{
  "_format": "hh-sol-artifact-1",
  "contractName": "Evaluation",
  "sourceName": "contracts/Evaluation.sol",
  "abi": [
    {
      "inputs": [
        {
          "internalType": "address",
          "name": "_vrfAddress",
          "type": "address"
        },
        {
          "internalType": "address",
          "name": "_epnsCommAddress",
          "type": "address"
        },
        {
          "internalType": "address",
          "name": "_crowdfundingAddress",
          "type": "address"
        },
        {
          "internalType": "address",
          "name": "_creator",
          "type": "address"
        },
        {
          "internalType": "uint256",
          "name": "_deadline",
          "type": "uint256"
        },
        {
          "internalType": "uint256[]",
          "name": "_projectTime",
          "type": "uint256[]"
        },
        {
          "internalType": "uint256",
          "name": "_evaluationTime",
          "type": "uint256"
        }
      ],
      "stateMutability": "nonpayable",
      "type": "constructor"
    },
    {
      "anonymous": false,
      "inputs": [
        {
          "indexed": true,
          "internalType": "address",
          "name": "previousOwner",
          "type": "address"
        },
        {
          "indexed": true,
          "internalType": "address",
          "name": "newOwner",
          "type": "address"
        }
      ],
      "name": "OwnershipTransferred",
      "type": "event"
    },
    {
      "anonymous": false,
      "inputs": [
        {
          "indexed": false,
          "internalType": "address[]",
          "name": "",
          "type": "address[]"
        }
      ],
      "name": "SelectedEvaluators",
      "type": "event"
    },
    {
      "inputs": [
        {
          "internalType": "uint256",
          "name": "",
          "type": "uint256"
        }
      ],
      "name": "allJudges",
      "outputs": [
        {
          "internalType": "bool",
          "name": "images",
          "type": "bool"
        },
        {
          "internalType": "bool",
          "name": "georeference",
          "type": "bool"
        },
        {
          "internalType": "bool",
          "name": "document",
          "type": "bool"
        },
        {
          "internalType": "bool",
          "name": "links",
          "type": "bool"
        }
      ],
      "stateMutability": "view",
      "type": "function"
    },
    {
      "inputs": [],
      "name": "bounty",
      "outputs": [
        {
          "internalType": "uint256",
          "name": "",
          "type": "uint256"
        }
      ],
      "stateMutability": "view",
      "type": "function"
    },
    {
      "inputs": [],
      "name": "creator",
      "outputs": [
        {
          "internalType": "address",
          "name": "",
          "type": "address"
        }
      ],
      "stateMutability": "view",
      "type": "function"
    },
    {
      "inputs": [],
      "name": "crowdfunding",
      "outputs": [
        {
          "internalType": "contract ICrowdfunding",
          "name": "",
          "type": "address"
        }
      ],
      "stateMutability": "view",
      "type": "function"
    },
    {
      "inputs": [],
      "name": "deadline",
      "outputs": [
        {
          "internalType": "uint256",
          "name": "",
          "type": "uint256"
        }
      ],
      "stateMutability": "view",
      "type": "function"
    },
    {
      "inputs": [
        {
          "internalType": "bool",
          "name": "_images",
          "type": "bool"
        },
        {
          "internalType": "bool",
          "name": "_georeference",
          "type": "bool"
        },
        {
          "internalType": "bool",
          "name": "_document",
          "type": "bool"
        },
        {
          "internalType": "bool",
          "name": "_links",
          "type": "bool"
        }
      ],
      "name": "evaluateEvidence",
      "outputs": [],
      "stateMutability": "nonpayable",
      "type": "function"
    },
    {
      "inputs": [],
      "name": "evaluationCounter",
      "outputs": [
        {
          "internalType": "uint256",
          "name": "",
          "type": "uint256"
        }
      ],
      "stateMutability": "view",
      "type": "function"
    },
    {
      "inputs": [],
      "name": "evaluationTime",
      "outputs": [
        {
          "internalType": "uint256",
          "name": "",
          "type": "uint256"
        }
      ],
      "stateMutability": "view",
      "type": "function"
    },
    {
      "inputs": [],
      "name": "evaluatorCounter",
      "outputs": [
        {
          "internalType": "uint256",
          "name": "",
          "type": "uint256"
        }
      ],
      "stateMutability": "view",
      "type": "function"
    },
    {
      "inputs": [
        {
          "internalType": "uint256",
          "name": "",
          "type": "uint256"
        }
      ],
      "name": "evaluators",
      "outputs": [
        {
          "internalType": "address",
          "name": "",
          "type": "address"
        }
      ],
      "stateMutability": "view",
      "type": "function"
    },
    {
      "inputs": [],
      "name": "evidence",
      "outputs": [
        {
          "internalType": "string",
          "name": "",
          "type": "string"
        }
      ],
      "stateMutability": "view",
      "type": "function"
    },
    {
      "inputs": [],
      "name": "getAllEvaluatorsSelected",
      "outputs": [
        {
          "internalType": "address[]",
          "name": "",
          "type": "address[]"
        }
      ],
      "stateMutability": "view",
      "type": "function"
    },
    {
      "inputs": [],
      "name": "getAllJudges",
      "outputs": [
        {
          "components": [
            {
              "internalType": "bool",
              "name": "images",
              "type": "bool"
            },
            {
              "internalType": "bool",
              "name": "georeference",
              "type": "bool"
            },
            {
              "internalType": "bool",
              "name": "document",
              "type": "bool"
            },
            {
              "internalType": "bool",
              "name": "links",
              "type": "bool"
            }
          ],
          "internalType": "struct Evaluation.Judge[]",
          "name": "",
          "type": "tuple[]"
        }
      ],
      "stateMutability": "view",
      "type": "function"
    },
    {
      "inputs": [
        {
          "internalType": "address",
          "name": "",
          "type": "address"
        }
      ],
      "name": "isEvaluator",
      "outputs": [
        {
          "internalType": "bool",
          "name": "",
          "type": "bool"
        }
      ],
      "stateMutability": "view",
      "type": "function"
    },
    {
      "inputs": [
        {
          "internalType": "address",
          "name": "",
          "type": "address"
        }
      ],
      "name": "isJudged",
      "outputs": [
        {
          "internalType": "bool",
          "name": "",
          "type": "bool"
        }
      ],
      "stateMutability": "view",
      "type": "function"
    },
    {
      "inputs": [
        {
          "internalType": "address",
          "name": "",
          "type": "address"
        }
      ],
      "name": "judges",
      "outputs": [
        {
          "internalType": "bool",
          "name": "images",
          "type": "bool"
        },
        {
          "internalType": "bool",
          "name": "georeference",
          "type": "bool"
        },
        {
          "internalType": "bool",
          "name": "document",
          "type": "bool"
        },
        {
          "internalType": "bool",
          "name": "links",
          "type": "bool"
        }
      ],
      "stateMutability": "view",
      "type": "function"
    },
    {
      "inputs": [],
      "name": "openForEvaluate",
      "outputs": [
        {
          "internalType": "bool",
          "name": "",
          "type": "bool"
        }
      ],
      "stateMutability": "view",
      "type": "function"
    },
    {
      "inputs": [],
      "name": "owner",
      "outputs": [
        {
          "internalType": "address",
          "name": "",
          "type": "address"
        }
      ],
      "stateMutability": "view",
      "type": "function"
    },
    {
      "inputs": [
        {
          "internalType": "uint256",
          "name": "",
          "type": "uint256"
        }
      ],
      "name": "projectTime",
      "outputs": [
        {
          "internalType": "uint256",
          "name": "",
          "type": "uint256"
        }
      ],
      "stateMutability": "view",
      "type": "function"
    },
    {
      "inputs": [],
      "name": "proposeEvaluator",
      "outputs": [],
      "stateMutability": "nonpayable",
      "type": "function"
    },
    {
      "inputs": [],
      "name": "pushComm",
      "outputs": [
        {
          "internalType": "contract IPUSHCommInterface",
          "name": "",
          "type": "address"
        }
      ],
      "stateMutability": "view",
      "type": "function"
    },
    {
      "inputs": [],
      "name": "renounceOwnership",
      "outputs": [],
      "stateMutability": "nonpayable",
      "type": "function"
    },
    {
      "inputs": [],
      "name": "selectEvaluators",
      "outputs": [
        {
          "internalType": "bool",
          "name": "",
          "type": "bool"
        }
      ],
      "stateMutability": "nonpayable",
      "type": "function"
    },
    {
      "inputs": [
        {
          "internalType": "uint256",
          "name": "",
          "type": "uint256"
        }
      ],
      "name": "selectedEvaluators",
      "outputs": [
        {
          "internalType": "address",
          "name": "",
          "type": "address"
        }
      ],
      "stateMutability": "view",
      "type": "function"
    },
    {
      "inputs": [
        {
          "internalType": "string",
          "name": "_evidence",
          "type": "string"
        }
      ],
      "name": "setEvidence",
      "outputs": [],
      "stateMutability": "nonpayable",
      "type": "function"
    },
    {
      "inputs": [
        {
          "internalType": "address[]",
          "name": "_selectedEvaluators",
          "type": "address[]"
        }
      ],
      "name": "setSelectedEvaluators",
      "outputs": [],
      "stateMutability": "nonpayable",
      "type": "function"
    },
    {
      "inputs": [
        {
          "internalType": "address",
          "name": "newOwner",
          "type": "address"
        }
      ],
      "name": "transferOwnership",
      "outputs": [],
      "stateMutability": "nonpayable",
      "type": "function"
    },
    {
      "inputs": [],
      "name": "vrfConsumer",
      "outputs": [
        {
          "internalType": "contract IVRFv2Consumer",
          "name": "",
          "type": "address"
        }
      ],
      "stateMutability": "view",
      "type": "function"
    },
    {
      "stateMutability": "payable",
      "type": "receive"
    }
  ],
  "bytecode": "0x60806040526000805460ff60a01b1916600160a01b1790553480156200002457600080fd5b5060405162001f5f38038062001f5f8339810160408190526200004791620001c1565b6200005233620000d7565b600880546001600160a01b03808a166001600160a01b03199283161790925560098054898416908316179055600a8054928816929091169190911790558151620000a490600690602085019062000127565b5060035550600780546001600160a01b0319166001600160a01b03939093169290921790915560025550620002eb915050565b600080546001600160a01b038381166001600160a01b0319831681178455604051919092169283917f8be0079c531659141344cd1fd0a4f28419497f9722a3daafe3b4186f6b6457e09190a35050565b82805482825590600052602060002090810192821562000165579160200282015b828111156200016557825182559160200191906001019062000148565b506200017392915062000177565b5090565b5b8082111562000173576000815560010162000178565b80516001600160a01b0381168114620001a657600080fd5b919050565b634e487b7160e01b600052604160045260246000fd5b600080600080600080600060e0888a031215620001dd57600080fd5b620001e8886200018e565b96506020620001f9818a016200018e565b96506200020960408a016200018e565b95506200021960608a016200018e565b60808a015160a08b015191965094506001600160401b03808211156200023e57600080fd5b818b0191508b601f8301126200025357600080fd5b815181811115620002685762000268620001ab565b8060051b604051601f19603f83011681018181108582111715620002905762000290620001ab565b60405291825284820192508381018501918e831115620002af57600080fd5b938501935b82851015620002cf57845184529385019392850192620002b4565b80975050505050505060c0880151905092959891949750929550565b611c6480620002fb6000396000f3fe6080604052600436106101bb5760003560e01c806384e08ab6116100ec578063c0840f561161008a578063e168afe311610064578063e168afe3146105a1578063ef71e0de146105c1578063f2fde38b146105d7578063f3ad1535146105f757600080fd5b8063c0840f561461054a578063c201c9f71461056c578063e141480d1461058c57600080fd5b806392ceecf1116100c657806392ceecf1146104dc578063943dfef1146104f2578063a77e098714610508578063bc61495b1461052a57600080fd5b806384e08ab61461047e5780638a83cc211461049e5780638da5cb5b146104be57600080fd5b806329dcb0cf1161015957806367ecb10f1161013357806367ecb10f146103be5780636a5d498c14610408578063715018a61461041d5780638422a2f21461043257600080fd5b806329dcb0cf1461036857806356885cd81461037e5780635ac9d2c41461039e57600080fd5b80631ef4d1fd116101955780631ef4d1fd146102d4578063214eafd4146102f4578063222743a21461031457806325b2564a1461034457600080fd5b806302d05d3f146102365780630cf9af03146102735780631b561cf9146102a457600080fd5b3661023157600a546001600160a01b0316331461022f5760405162461bcd60e51b815260206004820152602760248201527f72656365697665723a204e6f74207468652063726f776466756e64696e6720636044820152661bdb9d1c9858dd60ca1b60648201526084015b60405180910390fd5b005b600080fd5b34801561024257600080fd5b50600754610256906001600160a01b031681565b6040516001600160a01b0390911681526020015b60405180910390f35b34801561027f57600080fd5b5060005461029490600160a01b900460ff1681565b604051901515815260200161026a565b3480156102b057600080fd5b506102946102bf36600461168a565b60106020526000908152604090205460ff1681565b3480156102e057600080fd5b50600854610256906001600160a01b031681565b34801561030057600080fd5b5061022f61030f3660046116f3565b610619565b34801561032057600080fd5b5061029461032f36600461168a565b60116020526000908152604090205460ff1681565b34801561035057600080fd5b5061035a60045481565b60405190815260200161026a565b34801561037457600080fd5b5061035a60025481565b34801561038a57600080fd5b50600a54610256906001600160a01b031681565b3480156103aa57600080fd5b506102566103b93660046117a0565b6106f4565b3480156103ca57600080fd5b506103de6103d93660046117a0565b61071e565b6040805194151585529215156020850152901515918301919091521515606082015260800161026a565b34801561041457600080fd5b5061022f61075e565b34801561042957600080fd5b5061022f6108a4565b34801561043e57600080fd5b506103de61044d36600461168a565b600f6020526000908152604090205460ff808216916101008104821691620100008204811691630100000090041684565b34801561048a57600080fd5b5061022f6104993660046117b9565b6108b8565b3480156104aa57600080fd5b5061022f6104b936600461185e565b610a30565b3480156104ca57600080fd5b506000546001600160a01b0316610256565b3480156104e857600080fd5b5061035a60035481565b3480156104fe57600080fd5b5061035a60015481565b34801561051457600080fd5b5061051d61108c565b60405161026a91906118d6565b34801561053657600080fd5b50600954610256906001600160a01b031681565b34801561055657600080fd5b5061055f61111a565b60405161026a9190611909565b34801561057857600080fd5b5061035a6105873660046117a0565b611269565b34801561059857600080fd5b5061029461128a565b3480156105ad57600080fd5b506102566105bc3660046117a0565b611449565b3480156105cd57600080fd5b5061035a60055481565b3480156105e357600080fd5b5061022f6105f236600461168a565b611459565b34801561060357600080fd5b5061060c6114d2565b60405161026a9190611975565b6008546001600160a01b031633146106875760405162461bcd60e51b815260206004820152602b60248201527f73657453656c65637465644576616c7561746f72733a204e6f7420746865205660448201526a14918818dbdb9d1c9858dd60aa1b6064820152608401610226565b60005b81518110156106a5578061069d816119c2565b91505061068a565b5080516106b990600b9060208401906115f4565b507ffd35f96279e550a2cd0fa660d841f96151fb8e2f8fdded9e10f8865219543306816040516106e99190611975565b60405180910390a150565b600b818154811061070457600080fd5b6000918252602090912001546001600160a01b0316905081565b600d818154811061072e57600080fd5b60009182526020909120015460ff8082169250610100820481169162010000810482169163010000009091041684565b60025442106107c55760405162461bcd60e51b815260206004820152602d60248201527f6265636f6d654576616c7561746f723a207468652073656c656374696f6e207060448201526c32b934b7b21034b99037bb32b960991b6064820152608401610226565b3360009081526010602052604090205460ff16156108335760405162461bcd60e51b815260206004820152602560248201527f6265636f6d654576616c7561746f723a20416c726561647920616e206576616c6044820152643ab0ba37b960d91b6064820152608401610226565b60058054906000610843836119c2565b9091555050600c805460018181019092557fdf6966c971051c3d54ec59162606531493a51404a002842f56009d7e5cf4a8c70180546001600160a01b031916339081179091556000908152601060205260409020805460ff19169091179055565b6108ac611534565b6108b6600061158e565b565b6007546001600160a01b031633146109215760405162461bcd60e51b815260206004820152602660248201527f6f6e6c7943726561746f723a2063616c6c6572206973206e6f742074686520636044820152653932b0ba37b960d11b6064820152608401610226565b6006600181548110610935576109356119e9565b906000526020600020015442101561099a5760405162461bcd60e51b815260206004820152602260248201527f73657445766964656e63653a205468652070726f6a6563742068617320656e64604482015261195960f21b6064820152608401610226565b6003544210610a005760405162461bcd60e51b815260206004820152602c60248201527f73657445766964656e63653a20546865206576616c756174696f6e207065726960448201526b1bd9081a185cc8195b99195960a21b6064820152608401610226565b60005b600b54811015610a1f5780610a17816119c2565b915050610a03565b50600e610a2c8282611a82565b5050565b600054600160a01b900460ff16610aa15760405162461bcd60e51b815260206004820152602f60248201527f6576616c7561746545766964656e63653a20546865206576616c756174696f6e60448201526e103832b934b7b21034b99037bb32b960891b6064820152608401610226565b60025442118015610ab3575060035442105b610b1a5760405162461bcd60e51b815260206004820152603260248201527f6576616c7561746545766964656e63653a205468652073656c656374696f6e206044820152713832b934b7b21034b9903737ba1037bb32b960711b6064820152608401610226565b610bc660405180602001604052806000815250600e8054610b3a906119ff565b80601f0160208091040260200160405190810160405280929190818152602001828054610b66906119ff565b8015610bb35780601f10610b8857610100808354040283529160200191610bb3565b820191906000526020600020905b815481529060010190602001808311610b9657829003601f168201915b50505050506115de90919063ffffffff16565b15610c235760405162461bcd60e51b815260206004820152602760248201527f6576616c7561746545766964656e63653a205468652065766964656e636520696044820152667320656d70747960c81b6064820152608401610226565b3360009081526010602052604090205460ff16610c8d5760405162461bcd60e51b815260206004820152602260248201527f6576616c7561746545766964656e63653a204e6f7420616e206576616c75617460448201526137b960f11b6064820152608401610226565b3360009081526011602052604090205460ff1615610cf95760405162461bcd60e51b815260206004820152602360248201527f6576616c7561746545766964656e63653a20416c7265616479206576616c75616044820152621d195960ea1b6064820152608401610226565b604080516080810182528515158152841515602080830191825285151583850190815285151560608501908152336000908152600f808552878220965187549651945193511515630100000090810263ff0000001995151562010000908102871663ffff00001998151561010090810261ff0019961515871661ffff199d8e1617178a1691909117929092178b55601189529a8520805460ff19908116600190811790925594909852600d80549889018155855289547fd7b6990105719101dabeb77144f2a3385c8033acd3af97e9423a695e81ad1eb5909801805460ff998a161515958116861782558b548390048a161515909202949093169816979097179190911780825587548990048616151590980262ff000019891681178255965486900490941615159094029416941693909317919091179091556004805491610e41836119c2565b91905055506004546003036110865760005b600b54811015610f6a576000600b8281548110610e7257610e726119e9565b6000918252602090912001546001546001600160a01b0390911690610e9990600390611b42565b604051600081818185875af1925050503d8060008114610ed5576040519150601f19603f3d011682016040523d82523d6000602084013e610eda565b606091505b5050905080610f355760405162461bcd60e51b815260206004820152602160248201527f6576616c7561746545766964656e63653a205472616e73666572206661696c656044820152601960fa1b6064820152608401610226565b336001600160a01b0316600b8381548110610f5257610f526119e9565b50600052505080610f62816119c2565b915050610e53565b50600080546001600160a01b03166007546040516001600160a01b0391821660248201526002604482015291169060640160408051601f198184030181529181526020820180516001600160e01b031663327c8aa160e11b17905251610fd09190611b64565b6000604051808303816000865af19150503d806000811461100d576040519150601f19603f3d011682016040523d82523d6000602084013e611012565b606091505b50509050806110775760405162461bcd60e51b815260206004820152602b60248201527f6576616c7561746545766964656e63653a205365742070726f6a65637420737460448201526a185d1d5cc819985a5b195960aa1b6064820152608401610226565b506000805460ff60a01b191690555b50505050565b600e8054611099906119ff565b80601f01602080910402602001604051908101604052809291908181526020018280546110c5906119ff565b80156111125780601f106110e757610100808354040283529160200191611112565b820191906000526020600020905b8154815290600101906020018083116110f557829003601f168201915b505050505081565b600c5460609060009067ffffffffffffffff81111561113b5761113b6116ac565b60405190808252806020026020018201604052801561118d57816020015b6040805160808101825260008082526020808301829052928201819052606082015282526000199092019101816111595790505b50600c549091506000036111a057919050565b60005b600c5481101561126357600f6000600c83815481106111c4576111c46119e9565b60009182526020808320909101546001600160a01b0316835282810193909352604091820190208151608081018352905460ff808216151583526101008204811615159483019490945262010000810484161515928201929092526301000000909104909116151560608201528251839083908110611245576112456119e9565b6020026020010181905250808061125b906119c2565b9150506111a3565b50919050565b6006818154811061127957600080fd5b600091825260209091200154905081565b600a546000906001600160a01b031633146112ff5760405162461bcd60e51b815260206004820152602f60248201527f73656c6563744576616c7561746f72733a204e6f74207468652063726f77646660448201526e1d5b991a5b99c818dbdb9d1c9858dd608a1b6064820152608401610226565b600c546003101561138b57600854604051630a6fba9f60e31b81526001600160a01b039091169063537dd4f890611340906003903090600c90600401611bc9565b6020604051808303816000875af115801561135f573d6000803e3d6000fd5b505050506040513d601f19601f820116820180604052508101906113839190611c02565b506001905090565b600c546003036114435760005b600c5481101561140457600b600c82815481106113b7576113b76119e9565b60009182526020808320909101548354600181018555938352912090910180546001600160a01b0319166001600160a01b03909216919091179055806113fc816119c2565b915050611398565b507ffd35f96279e550a2cd0fa660d841f96151fb8e2f8fdded9e10f8865219543306600c6040516114359190611c1b565b60405180910390a150600190565b50600090565b600c818154811061070457600080fd5b611461611534565b6001600160a01b0381166114c65760405162461bcd60e51b815260206004820152602660248201527f4f776e61626c653a206e6577206f776e657220697320746865207a65726f206160448201526564647265737360d01b6064820152608401610226565b6114cf8161158e565b50565b6060600b80548060200260200160405190810160405280929190818152602001828054801561152a57602002820191906000526020600020905b81546001600160a01b0316815260019091019060200180831161150c575b5050505050905090565b6000546001600160a01b031633146108b65760405162461bcd60e51b815260206004820181905260248201527f4f776e61626c653a2063616c6c6572206973206e6f7420746865206f776e65726044820152606401610226565b600080546001600160a01b038381166001600160a01b0319831681178455604051919092169283917f8be0079c531659141344cd1fd0a4f28419497f9722a3daafe3b4186f6b6457e09190a35050565b8051602091820120825192909101919091201490565b828054828255906000526020600020908101928215611649579160200282015b8281111561164957825182546001600160a01b0319166001600160a01b03909116178255602090920191600190910190611614565b50611655929150611659565b5090565b5b80821115611655576000815560010161165a565b80356001600160a01b038116811461168557600080fd5b919050565b60006020828403121561169c57600080fd5b6116a58261166e565b9392505050565b634e487b7160e01b600052604160045260246000fd5b604051601f8201601f1916810167ffffffffffffffff811182821017156116eb576116eb6116ac565b604052919050565b6000602080838503121561170657600080fd5b823567ffffffffffffffff8082111561171e57600080fd5b818501915085601f83011261173257600080fd5b813581811115611744576117446116ac565b8060051b91506117558483016116c2565b818152918301840191848101908884111561176f57600080fd5b938501935b83851015611794576117858561166e565b82529385019390850190611774565b98975050505050505050565b6000602082840312156117b257600080fd5b5035919050565b600060208083850312156117cc57600080fd5b823567ffffffffffffffff808211156117e457600080fd5b818501915085601f8301126117f857600080fd5b81358181111561180a5761180a6116ac565b61181c601f8201601f191685016116c2565b9150808252868482850101111561183257600080fd5b8084840185840137600090820190930192909252509392505050565b8035801515811461168557600080fd5b6000806000806080858703121561187457600080fd5b61187d8561184e565b935061188b6020860161184e565b92506118996040860161184e565b91506118a76060860161184e565b905092959194509250565b60005b838110156118cd5781810151838201526020016118b5565b50506000910152565b60208152600082518060208401526118f58160408501602087016118b2565b601f01601f19169190910160400192915050565b602080825282518282018190526000919060409081850190868401855b82811015611968578151805115158552868101511515878601528581015115158686015260609081015115159085015260809093019290850190600101611926565b5091979650505050505050565b6020808252825182820181905260009190848201906040850190845b818110156119b65783516001600160a01b031683529284019291840191600101611991565b50909695505050505050565b6000600182016119e257634e487b7160e01b600052601160045260246000fd5b5060010190565b634e487b7160e01b600052603260045260246000fd5b600181811c90821680611a1357607f821691505b60208210810361126357634e487b7160e01b600052602260045260246000fd5b601f821115611a7d57600081815260208120601f850160051c81016020861015611a5a5750805b601f850160051c820191505b81811015611a7957828155600101611a66565b5050505b505050565b815167ffffffffffffffff811115611a9c57611a9c6116ac565b611ab081611aaa84546119ff565b84611a33565b602080601f831160018114611ae55760008415611acd5750858301515b600019600386901b1c1916600185901b178555611a79565b600085815260208120601f198616915b82811015611b1457888601518255948401946001909101908401611af5565b5085821015611b325787850151600019600388901b60f8161c191681555b5050505050600190811b01905550565b600082611b5f57634e487b7160e01b600052601260045260246000fd5b500490565b60008251611b768184602087016118b2565b9190910192915050565b6000815480845260208085019450836000528060002060005b83811015611bbe5781546001600160a01b031687529582019560019182019101611b99565b509495945050505050565b63ffffffff841681526001600160a01b0383166020820152606060408201819052600090611bf990830184611b80565b95945050505050565b600060208284031215611c1457600080fd5b5051919050565b6020815260006116a56020830184611b8056fea264697066735822122070b35c3506e74ea2c3f2b08f0cdc6611f5b2275196d036425355f8c90912ce3164736f6c63430008140033",
  "linkReferences": {},
  "deployedLinkReferences": {}
}