{
  "_format": "hh-sol-artifact-1",
  "contractName": "Evaluation",
  "sourceName": "contracts/Evaluation.sol",
  "abi": [
    {
      "inputs": [
        {
          "internalType": "address",
          "name": "_vrfAddress",
          "type": "address"
        },
        {
          "internalType": "address",
          "name": "_epnsCommAddress",
          "type": "address"
        },
        {
          "internalType": "address",
          "name": "_crowdfundingAddress",
          "type": "address"
        },
        {
          "internalType": "address",
          "name": "_creator",
          "type": "address"
        },
        {
          "internalType": "uint256",
          "name": "_deadline",
          "type": "uint256"
        },
        {
          "internalType": "uint256[]",
          "name": "_projectTime",
          "type": "uint256[]"
        },
        {
          "internalType": "uint256",
          "name": "_evaluationTime",
          "type": "uint256"
        }
      ],
      "stateMutability": "nonpayable",
      "type": "constructor"
    },
    {
      "anonymous": false,
      "inputs": [
        {
          "indexed": true,
          "internalType": "address",
          "name": "previousOwner",
          "type": "address"
        },
        {
          "indexed": true,
          "internalType": "address",
          "name": "newOwner",
          "type": "address"
        }
      ],
      "name": "OwnershipTransferred",
      "type": "event"
    },
    {
      "anonymous": false,
      "inputs": [
        {
          "indexed": false,
          "internalType": "address[]",
          "name": "",
          "type": "address[]"
        }
      ],
      "name": "SelectedEvaluators",
      "type": "event"
    },
    {
      "inputs": [
        {
          "internalType": "uint256",
          "name": "",
          "type": "uint256"
        }
      ],
      "name": "allJudges",
      "outputs": [
        {
          "internalType": "bool",
          "name": "georeference",
          "type": "bool"
        },
        {
          "internalType": "bool",
          "name": "document",
          "type": "bool"
        }
      ],
      "stateMutability": "view",
      "type": "function"
    },
    {
      "inputs": [],
      "name": "bounty",
      "outputs": [
        {
          "internalType": "uint256",
          "name": "",
          "type": "uint256"
        }
      ],
      "stateMutability": "view",
      "type": "function"
    },
    {
      "inputs": [],
      "name": "creator",
      "outputs": [
        {
          "internalType": "address",
          "name": "",
          "type": "address"
        }
      ],
      "stateMutability": "view",
      "type": "function"
    },
    {
      "inputs": [],
      "name": "crowdfunding",
      "outputs": [
        {
          "internalType": "contract ICrowdfunding",
          "name": "",
          "type": "address"
        }
      ],
      "stateMutability": "view",
      "type": "function"
    },
    {
      "inputs": [],
      "name": "deadline",
      "outputs": [
        {
          "internalType": "uint256",
          "name": "",
          "type": "uint256"
        }
      ],
      "stateMutability": "view",
      "type": "function"
    },
    {
      "inputs": [
        {
          "internalType": "bool[]",
          "name": "_images",
          "type": "bool[]"
        },
        {
          "internalType": "bool",
          "name": "_georeference",
          "type": "bool"
        },
        {
          "internalType": "bool",
          "name": "_document",
          "type": "bool"
        },
        {
          "internalType": "bool[]",
          "name": "_links",
          "type": "bool[]"
        }
      ],
      "name": "evaluateEvidence",
      "outputs": [],
      "stateMutability": "nonpayable",
      "type": "function"
    },
    {
      "inputs": [],
      "name": "evaluationCounter",
      "outputs": [
        {
          "internalType": "uint256",
          "name": "",
          "type": "uint256"
        }
      ],
      "stateMutability": "view",
      "type": "function"
    },
    {
      "inputs": [],
      "name": "evaluationTime",
      "outputs": [
        {
          "internalType": "uint256",
          "name": "",
          "type": "uint256"
        }
      ],
      "stateMutability": "view",
      "type": "function"
    },
    {
      "inputs": [
        {
          "internalType": "uint256",
          "name": "",
          "type": "uint256"
        }
      ],
      "name": "evaluators",
      "outputs": [
        {
          "internalType": "address",
          "name": "",
          "type": "address"
        }
      ],
      "stateMutability": "view",
      "type": "function"
    },
    {
      "inputs": [],
      "name": "evidence",
      "outputs": [
        {
          "internalType": "string",
          "name": "",
          "type": "string"
        }
      ],
      "stateMutability": "view",
      "type": "function"
    },
    {
      "inputs": [],
      "name": "getAllEvaluatorsSelected",
      "outputs": [
        {
          "internalType": "address[]",
          "name": "",
          "type": "address[]"
        }
      ],
      "stateMutability": "view",
      "type": "function"
    },
    {
      "inputs": [],
      "name": "getAllJudges",
      "outputs": [
        {
          "components": [
            {
              "internalType": "bool[]",
              "name": "images",
              "type": "bool[]"
            },
            {
              "internalType": "bool",
              "name": "georeference",
              "type": "bool"
            },
            {
              "internalType": "bool",
              "name": "document",
              "type": "bool"
            },
            {
              "internalType": "bool[]",
              "name": "links",
              "type": "bool[]"
            }
          ],
          "internalType": "struct Evaluation.Judge[]",
          "name": "",
          "type": "tuple[]"
        }
      ],
      "stateMutability": "view",
      "type": "function"
    },
    {
      "inputs": [
        {
          "internalType": "address",
          "name": "",
          "type": "address"
        }
      ],
      "name": "isEvaluator",
      "outputs": [
        {
          "internalType": "bool",
          "name": "",
          "type": "bool"
        }
      ],
      "stateMutability": "view",
      "type": "function"
    },
    {
      "inputs": [
        {
          "internalType": "address",
          "name": "",
          "type": "address"
        }
      ],
      "name": "isJudged",
      "outputs": [
        {
          "internalType": "bool",
          "name": "",
          "type": "bool"
        }
      ],
      "stateMutability": "view",
      "type": "function"
    },
    {
      "inputs": [
        {
          "internalType": "address",
          "name": "",
          "type": "address"
        }
      ],
      "name": "judges",
      "outputs": [
        {
          "internalType": "bool",
          "name": "georeference",
          "type": "bool"
        },
        {
          "internalType": "bool",
          "name": "document",
          "type": "bool"
        }
      ],
      "stateMutability": "view",
      "type": "function"
    },
    {
      "inputs": [],
      "name": "leaveApplicaction",
      "outputs": [],
      "stateMutability": "nonpayable",
      "type": "function"
    },
    {
      "inputs": [],
      "name": "openForEvaluate",
      "outputs": [
        {
          "internalType": "bool",
          "name": "",
          "type": "bool"
        }
      ],
      "stateMutability": "view",
      "type": "function"
    },
    {
      "inputs": [],
      "name": "owner",
      "outputs": [
        {
          "internalType": "address",
          "name": "",
          "type": "address"
        }
      ],
      "stateMutability": "view",
      "type": "function"
    },
    {
      "inputs": [
        {
          "internalType": "uint256",
          "name": "",
          "type": "uint256"
        }
      ],
      "name": "projectTime",
      "outputs": [
        {
          "internalType": "uint256",
          "name": "",
          "type": "uint256"
        }
      ],
      "stateMutability": "view",
      "type": "function"
    },
    {
      "inputs": [],
      "name": "proposeEvaluator",
      "outputs": [],
      "stateMutability": "nonpayable",
      "type": "function"
    },
    {
      "inputs": [],
      "name": "pushComm",
      "outputs": [
        {
          "internalType": "contract IPUSHCommInterface",
          "name": "",
          "type": "address"
        }
      ],
      "stateMutability": "view",
      "type": "function"
    },
    {
      "inputs": [],
      "name": "renounceOwnership",
      "outputs": [],
      "stateMutability": "nonpayable",
      "type": "function"
    },
    {
      "inputs": [],
      "name": "selectEvaluators",
      "outputs": [
        {
          "internalType": "bool",
          "name": "",
          "type": "bool"
        }
      ],
      "stateMutability": "nonpayable",
      "type": "function"
    },
    {
      "inputs": [
        {
          "internalType": "uint256",
          "name": "",
          "type": "uint256"
        }
      ],
      "name": "selectedEvaluators",
      "outputs": [
        {
          "internalType": "address",
          "name": "",
          "type": "address"
        }
      ],
      "stateMutability": "view",
      "type": "function"
    },
    {
      "inputs": [
        {
          "internalType": "string",
          "name": "_evidence",
          "type": "string"
        }
      ],
      "name": "setEvidence",
      "outputs": [],
      "stateMutability": "nonpayable",
      "type": "function"
    },
    {
      "inputs": [
        {
          "internalType": "address[]",
          "name": "_selectedEvaluators",
          "type": "address[]"
        }
      ],
      "name": "setSelectedEvaluators",
      "outputs": [],
      "stateMutability": "nonpayable",
      "type": "function"
    },
    {
      "inputs": [
        {
          "internalType": "address",
          "name": "newOwner",
          "type": "address"
        }
      ],
      "name": "transferOwnership",
      "outputs": [],
      "stateMutability": "nonpayable",
      "type": "function"
    },
    {
      "inputs": [],
      "name": "vrfConsumer",
      "outputs": [
        {
          "internalType": "contract IVRFv2Consumer",
          "name": "",
          "type": "address"
        }
      ],
      "stateMutability": "view",
      "type": "function"
    },
    {
      "stateMutability": "payable",
      "type": "receive"
    }
  ],
  "bytecode": "0x60806040526000805460ff60a01b1916600160a01b1790553480156200002457600080fd5b50604051620024a5380380620024a58339810160408190526200004791620001c1565b6200005233620000d7565b600780546001600160a01b03808a166001600160a01b0319928316179092556008805489841690831617905560098054928816929091169190911790558151620000a490600590602085019062000127565b5060035550600680546001600160a01b0319166001600160a01b03939093169290921790915560025550620002eb915050565b600080546001600160a01b038381166001600160a01b0319831681178455604051919092169283917f8be0079c531659141344cd1fd0a4f28419497f9722a3daafe3b4186f6b6457e09190a35050565b82805482825590600052602060002090810192821562000165579160200282015b828111156200016557825182559160200191906001019062000148565b506200017392915062000177565b5090565b5b8082111562000173576000815560010162000178565b80516001600160a01b0381168114620001a657600080fd5b919050565b634e487b7160e01b600052604160045260246000fd5b600080600080600080600060e0888a031215620001dd57600080fd5b620001e8886200018e565b96506020620001f9818a016200018e565b96506200020960408a016200018e565b95506200021960608a016200018e565b60808a015160a08b015191965094506001600160401b03808211156200023e57600080fd5b818b0191508b601f8301126200025357600080fd5b815181811115620002685762000268620001ab565b8060051b604051601f19603f83011681018181108582111715620002905762000290620001ab565b60405291825284820192508381018501918e831115620002af57600080fd5b938501935b82851015620002cf57845184529385019392850192620002b4565b80975050505050505060c0880151905092959891949750929550565b6121aa80620002fb6000396000f3fe6080604052600436106101bb5760003560e01c80638422a2f2116100ec578063bc61495b1161008a578063e141480d11610064578063e141480d1461057e578063e168afe314610593578063f2fde38b146105b3578063f3ad1535146105d357600080fd5b8063bc61495b1461051c578063c0840f561461053c578063c201c9f71461055e57600080fd5b806392ceecf1116100c657806392ceecf1146104b9578063943dfef1146104cf578063a77e0987146104e5578063aa209e7c1461050757600080fd5b80638422a2f21461043f57806384e08ab61461047b5780638da5cb5b1461049b57600080fd5b806329dcb0cf1161015957806367ecb10f1161013357806367ecb10f146103be5780636a5d498c146103f5578063715018a61461040a5780637ed2492a1461041f57600080fd5b806329dcb0cf1461036857806356885cd81461037e5780635ac9d2c41461039e57600080fd5b80631ef4d1fd116101955780631ef4d1fd146102d4578063214eafd4146102f4578063222743a21461031457806325b2564a1461034457600080fd5b806302d05d3f146102365780630cf9af03146102735780631b561cf9146102a457600080fd5b36610231576009546001600160a01b0316331461022f5760405162461bcd60e51b815260206004820152602760248201527f72656365697665723a204e6f74207468652063726f776466756e64696e6720636044820152661bdb9d1c9858dd60ca1b60648201526084015b60405180910390fd5b005b600080fd5b34801561024257600080fd5b50600654610256906001600160a01b031681565b6040516001600160a01b0390911681526020015b60405180910390f35b34801561027f57600080fd5b5060005461029490600160a01b900460ff1681565b604051901515815260200161026a565b3480156102b057600080fd5b506102946102bf366004611a87565b600f6020526000908152604090205460ff1681565b3480156102e057600080fd5b50600754610256906001600160a01b031681565b34801561030057600080fd5b5061022f61030f366004611b14565b6105f5565b34801561032057600080fd5b5061029461032f366004611a87565b60106020526000908152604090205460ff1681565b34801561035057600080fd5b5061035a60045481565b60405190815260200161026a565b34801561037457600080fd5b5061035a60025481565b34801561038a57600080fd5b50600954610256906001600160a01b031681565b3480156103aa57600080fd5b506102566103b9366004611bb1565b6106d0565b3480156103ca57600080fd5b506103de6103d9366004611bb1565b6106fa565b60408051921515835290151560208301520161026a565b34801561040157600080fd5b5061022f61072f565b34801561041657600080fd5b5061022f610862565b34801561042b57600080fd5b5061022f61043a366004611c47565b610876565b34801561044b57600080fd5b506103de61045a366004611a87565b600e6020526000908152604090206001015460ff8082169161010090041682565b34801561048757600080fd5b5061022f610496366004611ccc565b610fb2565b3480156104a757600080fd5b506000546001600160a01b0316610256565b3480156104c557600080fd5b5061035a60035481565b3480156104db57600080fd5b5061035a60015481565b3480156104f157600080fd5b506104fa61112a565b60405161026a9190611d85565b34801561051357600080fd5b5061022f6111b8565b34801561052857600080fd5b50600854610256906001600160a01b031681565b34801561054857600080fd5b5061055161139a565b60405161026a9190611df5565b34801561056a57600080fd5b5061035a610579366004611bb1565b6115c5565b34801561058a57600080fd5b506102946115e6565b34801561059f57600080fd5b506102566105ae366004611bb1565b611755565b3480156105bf57600080fd5b5061022f6105ce366004611a87565b611765565b3480156105df57600080fd5b506105e86117db565b60405161026a9190611e95565b6007546001600160a01b031633146106635760405162461bcd60e51b815260206004820152602b60248201527f73657453656c65637465644576616c7561746f72733a204e6f7420746865205660448201526a14918818dbdb9d1c9858dd60aa1b6064820152608401610226565b60005b8151811015610681578061067981611ef8565b915050610666565b50805161069590600a906020840190611903565b507ffd35f96279e550a2cd0fa660d841f96151fb8e2f8fdded9e10f8865219543306816040516106c59190611e95565b60405180910390a150565b600a81815481106106e057600080fd5b6000918252602090912001546001600160a01b0316905081565b600c818154811061070a57600080fd5b600091825260209091206001600390920201015460ff80821692506101009091041682565b60025442106107965760405162461bcd60e51b815260206004820152602d60248201527f6265636f6d654576616c7561746f723a207468652073656c656374696f6e207060448201526c32b934b7b21034b99037bb32b960991b6064820152608401610226565b336000908152600f602052604090205460ff16156108045760405162461bcd60e51b815260206004820152602560248201527f6265636f6d654576616c7561746f723a20416c726561647920616e206576616c6044820152643ab0ba37b960d91b6064820152608401610226565b336000818152600f60205260408120805460ff19166001908117909155600b805491820181559091527f0175b7a638427703f0dbe7bb9bbf987a2551717b34e79f33b5b1008d1fa01db90180546001600160a01b0319169091179055565b61086a61183d565b6108746000611897565b565b600054600160a01b900460ff166108e75760405162461bcd60e51b815260206004820152602f60248201527f6576616c7561746545766964656e63653a20546865206576616c756174696f6e60448201526e103832b934b7b21034b99037bb32b960891b6064820152608401610226565b600254421180156108f9575060035442105b6109605760405162461bcd60e51b815260206004820152603260248201527f6576616c7561746545766964656e63653a205468652073656c656374696f6e206044820152713832b934b7b21034b9903737ba1037bb32b960711b6064820152608401610226565b83516003146109c05760405162461bcd60e51b815260206004820152602660248201527f6576616c7561746545766964656e63653a2054686520696d6167657320617265604482015265206e6f74203360d01b6064820152608401610226565b8051600314610a1f5760405162461bcd60e51b815260206004820152602560248201527f6576616c7561746545766964656e63653a20546865206c696e6b7320617265206044820152646e6f74203360d81b6064820152608401610226565b610acb60405180602001604052806000815250600d8054610a3f90611f11565b80601f0160208091040260200160405190810160405280929190818152602001828054610a6b90611f11565b8015610ab85780601f10610a8d57610100808354040283529160200191610ab8565b820191906000526020600020905b815481529060010190602001808311610a9b57829003601f168201915b50505050506118e790919063ffffffff16565b15610b285760405162461bcd60e51b815260206004820152602760248201527f6576616c7561746545766964656e63653a205468652065766964656e636520696044820152667320656d70747960c81b6064820152608401610226565b336000908152600f602052604090205460ff16610b925760405162461bcd60e51b815260206004820152602260248201527f6576616c7561746545766964656e63653a204e6f7420616e206576616c75617460448201526137b960f11b6064820152608401610226565b3360009081526010602052604090205460ff1615610bfe5760405162461bcd60e51b815260206004820152602360248201527f6576616c7561746545766964656e63653a20416c7265616479206576616c75616044820152621d195960ea1b6064820152608401610226565b604080516080810182528581528415156020808301919091528415158284015260608201849052336000908152600e8252929092208151805192939192610c489284920190611968565b50602082810151600183018054604086015115156101000261ff00199315159390931661ffff199091161791909117905560608301518051610c909260028501920190611968565b5050336000908152601060209081526040808320805460ff19166001908117909155600e9092528220600c8054928301815590925281549192506003027fdf6966c971051c3d54ec59162606531493a51404a002842f56009d7e5cf4a8c70190610cfd9082908490611a08565b5060018281018054918301805460ff938416151560ff19821681178355925461010090819004909416151590930261ff001990921661ffff199093169290921717905560028083018054610d549284019190611a08565b50506004805491506000610d6783611ef8565b9190505550600454600303610fac5760005b600a54811015610e90576000600a8281548110610d9857610d98611f45565b6000918252602090912001546001546001600160a01b0390911690610dbf90600390611f5b565b604051600081818185875af1925050503d8060008114610dfb576040519150601f19603f3d011682016040523d82523d6000602084013e610e00565b606091505b5050905080610e5b5760405162461bcd60e51b815260206004820152602160248201527f6576616c7561746545766964656e63653a205472616e73666572206661696c656044820152601960fa1b6064820152608401610226565b336001600160a01b0316600a8381548110610e7857610e78611f45565b50600052505080610e8881611ef8565b915050610d79565b50600080546001600160a01b03166006546040516001600160a01b0391821660248201526002604482015291169060640160408051601f198184030181529181526020820180516001600160e01b031663327c8aa160e11b17905251610ef69190611f7d565b6000604051808303816000865af19150503d8060008114610f33576040519150601f19603f3d011682016040523d82523d6000602084013e610f38565b606091505b5050905080610f9d5760405162461bcd60e51b815260206004820152602b60248201527f6576616c7561746545766964656e63653a205365742070726f6a65637420737460448201526a185d1d5cc819985a5b195960aa1b6064820152608401610226565b506000805460ff60a01b191690555b50505050565b6006546001600160a01b0316331461101b5760405162461bcd60e51b815260206004820152602660248201527f6f6e6c7943726561746f723a2063616c6c6572206973206e6f742074686520636044820152653932b0ba37b960d11b6064820152608401610226565b600560018154811061102f5761102f611f45565b90600052602060002001544210156110945760405162461bcd60e51b815260206004820152602260248201527f73657445766964656e63653a205468652070726f6a6563742068617320656e64604482015261195960f21b6064820152608401610226565b60035442106110fa5760405162461bcd60e51b815260206004820152602c60248201527f73657445766964656e63653a20546865206576616c756174696f6e207065726960448201526b1bd9081a185cc8195b99195960a21b6064820152608401610226565b60005b600a54811015611119578061111181611ef8565b9150506110fd565b50600d6111268282611fe8565b5050565b600d805461113790611f11565b80601f016020809104026020016040519081016040528092919081815260200182805461116390611f11565b80156111b05780601f10611185576101008083540402835291602001916111b0565b820191906000526020600020905b81548152906001019060200180831161119357829003601f168201915b505050505081565b600254421061121d5760405162461bcd60e51b815260206004820152602b60248201527f6c6566744576616c7561746f723a207468652073656c656374696f6e2070657260448201526a34b7b21034b99037bb32b960a91b6064820152608401610226565b336000908152600f602052604090205460ff1661127c5760405162461bcd60e51b815260206004820152601f60248201527f6c6566744576616c7561746f723a204e6f7420616e206576616c7561746f72006044820152606401610226565b336000908152600f60205260408120805460ff191690555b600b5481101561139757336001600160a01b0316600b82815481106112bb576112bb611f45565b6000918252602090912001546001600160a01b03160361138557600b80546112e5906001906120a8565b815481106112f5576112f5611f45565b600091825260209091200154600b80546001600160a01b03909216918390811061132157611321611f45565b9060005260206000200160006101000a8154816001600160a01b0302191690836001600160a01b03160217905550600b805480611360576113606120bb565b600082815260209020810160001990810180546001600160a01b031916905501905550565b8061138f81611ef8565b915050611294565b50565b600b5460609060009067ffffffffffffffff8111156113bb576113bb611aa9565b60405190808252806020026020018201604052801561141b57816020015b611408604051806080016040528060608152602001600015158152602001600015158152602001606081525090565b8152602001906001900390816113d95790505b50600b5490915060000361142e57919050565b60005b600b548110156115bf57600e6000600b838154811061145257611452611f45565b60009182526020808320909101546001600160a01b0316835282810193909352604091820190208151815460a094810282018501909352608081018381529093919284928491908401828280156114e857602002820191906000526020600020906000905b825461010083900a900460ff1615158152602060019283018181049485019490930390920291018084116114b75790505b5050509183525050600182015460ff8082161515602080850191909152610100909204161515604080840191909152600284018054825181850281018501909352808352606090940193919290919083018282801561158657602002820191906000526020600020906000905b825461010083900a900460ff1615158152602060019283018181049485019490930390920291018084116115555790505b5050505050815250508282815181106115a1576115a1611f45565b602002602001018190525080806115b790611ef8565b915050611431565b50919050565b600581815481106115d557600080fd5b600091825260209091200154905081565b6009546000906001600160a01b0316331461165b5760405162461bcd60e51b815260206004820152602f60248201527f73656c6563744576616c7561746f72733a204e6f74207468652063726f77646660448201526e1d5b991a5b99c818dbdb9d1c9858dd608a1b6064820152608401610226565b600b54600310156116e757600754604051630a6fba9f60e31b81526001600160a01b039091169063537dd4f89061169c906003903090600b9060040161210f565b6020604051808303816000875af11580156116bb573d6000803e3d6000fd5b505050506040513d601f19601f820116820180604052508101906116df9190612148565b506001905090565b600b5460030361174f5760005b600a54811015611710578061170881611ef8565b9150506116f4565b507ffd35f96279e550a2cd0fa660d841f96151fb8e2f8fdded9e10f8865219543306600b6040516117419190612161565b60405180910390a150600190565b50600090565b600b81815481106106e057600080fd5b61176d61183d565b6001600160a01b0381166117d25760405162461bcd60e51b815260206004820152602660248201527f4f776e61626c653a206e6577206f776e657220697320746865207a65726f206160448201526564647265737360d01b6064820152608401610226565b61139781611897565b6060600a80548060200260200160405190810160405280929190818152602001828054801561183357602002820191906000526020600020905b81546001600160a01b03168152600190910190602001808311611815575b5050505050905090565b6000546001600160a01b031633146108745760405162461bcd60e51b815260206004820181905260248201527f4f776e61626c653a2063616c6c6572206973206e6f7420746865206f776e65726044820152606401610226565b600080546001600160a01b038381166001600160a01b0319831681178455604051919092169283917f8be0079c531659141344cd1fd0a4f28419497f9722a3daafe3b4186f6b6457e09190a35050565b6000818051906020012083805190602001201490505b92915050565b828054828255906000526020600020908101928215611958579160200282015b8281111561195857825182546001600160a01b0319166001600160a01b03909116178255602090920191600190910190611923565b50611964929150611a56565b5090565b82805482825590600052602060002090601f016020900481019282156119585791602002820160005b838211156119ce57835183826101000a81548160ff0219169083151502179055509260200192600101602081600001049283019260010302611991565b80156119fb5782816101000a81549060ff02191690556001016020816000010492830192600103026119ce565b5050611964929150611a56565b82805482825590600052602060002090601f0160209004810192821561195857600052602060002091601f016020900482015b82811115611958578254825591600101919060010190611a3b565b5b808211156119645760008155600101611a57565b80356001600160a01b0381168114611a8257600080fd5b919050565b600060208284031215611a9957600080fd5b611aa282611a6b565b9392505050565b634e487b7160e01b600052604160045260246000fd5b604051601f8201601f1916810167ffffffffffffffff81118282101715611ae857611ae8611aa9565b604052919050565b600067ffffffffffffffff821115611b0a57611b0a611aa9565b5060051b60200190565b60006020808385031215611b2757600080fd5b823567ffffffffffffffff811115611b3e57600080fd5b8301601f81018513611b4f57600080fd5b8035611b62611b5d82611af0565b611abf565b81815260059190911b82018301908381019087831115611b8157600080fd5b928401925b82841015611ba657611b9784611a6b565b82529284019290840190611b86565b979650505050505050565b600060208284031215611bc357600080fd5b5035919050565b80358015158114611a8257600080fd5b600082601f830112611beb57600080fd5b81356020611bfb611b5d83611af0565b82815260059290921b84018101918181019086841115611c1a57600080fd5b8286015b84811015611c3c57611c2f81611bca565b8352918301918301611c1e565b509695505050505050565b60008060008060808587031215611c5d57600080fd5b843567ffffffffffffffff80821115611c7557600080fd5b611c8188838901611bda565b9550611c8f60208801611bca565b9450611c9d60408801611bca565b93506060870135915080821115611cb357600080fd5b50611cc087828801611bda565b91505092959194509250565b60006020808385031215611cdf57600080fd5b823567ffffffffffffffff80821115611cf757600080fd5b818501915085601f830112611d0b57600080fd5b813581811115611d1d57611d1d611aa9565b611d2f601f8201601f19168501611abf565b91508082528684828501011115611d4557600080fd5b8084840185840137600090820190930192909252509392505050565b60005b83811015611d7c578181015183820152602001611d64565b50506000910152565b6020815260008251806020840152611da4816040850160208701611d61565b601f01601f19169190910160400192915050565b600081518084526020808501945080840160005b83811015611dea578151151587529582019590820190600101611dcc565b509495945050505050565b60006020808301818452808551808352604092508286019150828160051b87010184880160005b83811015611e8757603f19898403018552815160808151818652611e4282870182611db8565b915050888201511515898601528782015115158886015260608083015192508582038187015250611e738183611db8565b968901969450505090860190600101611e1c565b509098975050505050505050565b6020808252825182820181905260009190848201906040850190845b81811015611ed65783516001600160a01b031683529284019291840191600101611eb1565b50909695505050505050565b634e487b7160e01b600052601160045260246000fd5b600060018201611f0a57611f0a611ee2565b5060010190565b600181811c90821680611f2557607f821691505b6020821081036115bf57634e487b7160e01b600052602260045260246000fd5b634e487b7160e01b600052603260045260246000fd5b600082611f7857634e487b7160e01b600052601260045260246000fd5b500490565b60008251611f8f818460208701611d61565b9190910192915050565b601f821115611fe357600081815260208120601f850160051c81016020861015611fc05750805b601f850160051c820191505b81811015611fdf57828155600101611fcc565b5050505b505050565b815167ffffffffffffffff81111561200257612002611aa9565b612016816120108454611f11565b84611f99565b602080601f83116001811461204b57600084156120335750858301515b600019600386901b1c1916600185901b178555611fdf565b600085815260208120601f198616915b8281101561207a5788860151825594840194600190910190840161205b565b50858210156120985787850151600019600388901b60f8161c191681555b5050505050600190811b01905550565b818103818111156118fd576118fd611ee2565b634e487b7160e01b600052603160045260246000fd5b6000815480845260208085019450836000528060002060005b83811015611dea5781546001600160a01b0316875295820195600191820191016120ea565b63ffffffff841681526001600160a01b038316602082015260606040820181905260009061213f908301846120d1565b95945050505050565b60006020828403121561215a57600080fd5b5051919050565b602081526000611aa260208301846120d156fea2646970667358221220882e83214e0047267c39f5dd5f8ac9f7a791d15ea107efc2444baa868543c79d64736f6c63430008140033",
  "linkReferences": {},
  "deployedLinkReferences": {}
}