{
  "_format": "hh-sol-artifact-1",
  "contractName": "Evaluation",
  "sourceName": "contracts/Evaluation.sol",
  "abi": [
    {
      "inputs": [
        {
          "internalType": "address",
          "name": "_vrfAddress",
          "type": "address"
        },
        {
          "internalType": "address",
          "name": "_epnsCommAddress",
          "type": "address"
        },
        {
          "internalType": "address",
          "name": "_crowdfundingAddress",
          "type": "address"
        },
        {
          "internalType": "address",
          "name": "_creator",
          "type": "address"
        },
        {
          "internalType": "uint256",
          "name": "_deadline",
          "type": "uint256"
        },
        {
          "internalType": "uint256[]",
          "name": "_projectTime",
          "type": "uint256[]"
        },
        {
          "internalType": "uint256",
          "name": "_evaluationTime",
          "type": "uint256"
        }
      ],
      "stateMutability": "nonpayable",
      "type": "constructor"
    },
    {
      "anonymous": false,
      "inputs": [
        {
          "indexed": true,
          "internalType": "address",
          "name": "previousOwner",
          "type": "address"
        },
        {
          "indexed": true,
          "internalType": "address",
          "name": "newOwner",
          "type": "address"
        }
      ],
      "name": "OwnershipTransferred",
      "type": "event"
    },
    {
      "anonymous": false,
      "inputs": [
        {
          "indexed": false,
          "internalType": "address[]",
          "name": "",
          "type": "address[]"
        }
      ],
      "name": "SelectedEvaluators",
      "type": "event"
    },
    {
      "inputs": [
        {
          "internalType": "uint256",
          "name": "",
          "type": "uint256"
        }
      ],
      "name": "allJudges",
      "outputs": [
        {
          "internalType": "bool",
          "name": "georeference",
          "type": "bool"
        },
        {
          "internalType": "bool",
          "name": "document",
          "type": "bool"
        }
      ],
      "stateMutability": "view",
      "type": "function"
    },
    {
      "inputs": [],
      "name": "bounty",
      "outputs": [
        {
          "internalType": "uint256",
          "name": "",
          "type": "uint256"
        }
      ],
      "stateMutability": "view",
      "type": "function"
    },
    {
      "inputs": [],
      "name": "creator",
      "outputs": [
        {
          "internalType": "address",
          "name": "",
          "type": "address"
        }
      ],
      "stateMutability": "view",
      "type": "function"
    },
    {
      "inputs": [],
      "name": "crowdfunding",
      "outputs": [
        {
          "internalType": "contract ICrowdfunding",
          "name": "",
          "type": "address"
        }
      ],
      "stateMutability": "view",
      "type": "function"
    },
    {
      "inputs": [],
      "name": "deadline",
      "outputs": [
        {
          "internalType": "uint256",
          "name": "",
          "type": "uint256"
        }
      ],
      "stateMutability": "view",
      "type": "function"
    },
    {
      "inputs": [
        {
          "internalType": "bool[]",
          "name": "_images",
          "type": "bool[]"
        },
        {
          "internalType": "bool",
          "name": "_georeference",
          "type": "bool"
        },
        {
          "internalType": "bool",
          "name": "_document",
          "type": "bool"
        },
        {
          "internalType": "bool[]",
          "name": "_links",
          "type": "bool[]"
        }
      ],
      "name": "evaluateEvidence",
      "outputs": [],
      "stateMutability": "nonpayable",
      "type": "function"
    },
    {
      "inputs": [],
      "name": "evaluationCounter",
      "outputs": [
        {
          "internalType": "uint256",
          "name": "",
          "type": "uint256"
        }
      ],
      "stateMutability": "view",
      "type": "function"
    },
    {
      "inputs": [],
      "name": "evaluationTime",
      "outputs": [
        {
          "internalType": "uint256",
          "name": "",
          "type": "uint256"
        }
      ],
      "stateMutability": "view",
      "type": "function"
    },
    {
      "inputs": [],
      "name": "evaluatorCounter",
      "outputs": [
        {
          "internalType": "uint256",
          "name": "",
          "type": "uint256"
        }
      ],
      "stateMutability": "view",
      "type": "function"
    },
    {
      "inputs": [
        {
          "internalType": "uint256",
          "name": "",
          "type": "uint256"
        }
      ],
      "name": "evaluators",
      "outputs": [
        {
          "internalType": "address",
          "name": "",
          "type": "address"
        }
      ],
      "stateMutability": "view",
      "type": "function"
    },
    {
      "inputs": [],
      "name": "evidence",
      "outputs": [
        {
          "internalType": "string",
          "name": "",
          "type": "string"
        }
      ],
      "stateMutability": "view",
      "type": "function"
    },
    {
      "inputs": [],
      "name": "getAllEvaluatorsSelected",
      "outputs": [
        {
          "internalType": "address[]",
          "name": "",
          "type": "address[]"
        }
      ],
      "stateMutability": "view",
      "type": "function"
    },
    {
      "inputs": [],
      "name": "getAllJudges",
      "outputs": [
        {
          "components": [
            {
              "internalType": "bool[]",
              "name": "images",
              "type": "bool[]"
            },
            {
              "internalType": "bool",
              "name": "georeference",
              "type": "bool"
            },
            {
              "internalType": "bool",
              "name": "document",
              "type": "bool"
            },
            {
              "internalType": "bool[]",
              "name": "links",
              "type": "bool[]"
            }
          ],
          "internalType": "struct Evaluation.Judge[]",
          "name": "",
          "type": "tuple[]"
        }
      ],
      "stateMutability": "view",
      "type": "function"
    },
    {
      "inputs": [
        {
          "internalType": "address",
          "name": "",
          "type": "address"
        }
      ],
      "name": "isEvaluator",
      "outputs": [
        {
          "internalType": "bool",
          "name": "",
          "type": "bool"
        }
      ],
      "stateMutability": "view",
      "type": "function"
    },
    {
      "inputs": [
        {
          "internalType": "address",
          "name": "",
          "type": "address"
        }
      ],
      "name": "isJudged",
      "outputs": [
        {
          "internalType": "bool",
          "name": "",
          "type": "bool"
        }
      ],
      "stateMutability": "view",
      "type": "function"
    },
    {
      "inputs": [
        {
          "internalType": "address",
          "name": "",
          "type": "address"
        }
      ],
      "name": "judges",
      "outputs": [
        {
          "internalType": "bool",
          "name": "georeference",
          "type": "bool"
        },
        {
          "internalType": "bool",
          "name": "document",
          "type": "bool"
        }
      ],
      "stateMutability": "view",
      "type": "function"
    },
    {
      "inputs": [],
      "name": "openForEvaluate",
      "outputs": [
        {
          "internalType": "bool",
          "name": "",
          "type": "bool"
        }
      ],
      "stateMutability": "view",
      "type": "function"
    },
    {
      "inputs": [],
      "name": "owner",
      "outputs": [
        {
          "internalType": "address",
          "name": "",
          "type": "address"
        }
      ],
      "stateMutability": "view",
      "type": "function"
    },
    {
      "inputs": [
        {
          "internalType": "uint256",
          "name": "",
          "type": "uint256"
        }
      ],
      "name": "projectTime",
      "outputs": [
        {
          "internalType": "uint256",
          "name": "",
          "type": "uint256"
        }
      ],
      "stateMutability": "view",
      "type": "function"
    },
    {
      "inputs": [],
      "name": "proposeEvaluator",
      "outputs": [],
      "stateMutability": "nonpayable",
      "type": "function"
    },
    {
      "inputs": [],
      "name": "pushComm",
      "outputs": [
        {
          "internalType": "contract IPUSHCommInterface",
          "name": "",
          "type": "address"
        }
      ],
      "stateMutability": "view",
      "type": "function"
    },
    {
      "inputs": [],
      "name": "renounceOwnership",
      "outputs": [],
      "stateMutability": "nonpayable",
      "type": "function"
    },
    {
      "inputs": [],
      "name": "selectEvaluators",
      "outputs": [
        {
          "internalType": "bool",
          "name": "",
          "type": "bool"
        }
      ],
      "stateMutability": "nonpayable",
      "type": "function"
    },
    {
      "inputs": [
        {
          "internalType": "uint256",
          "name": "",
          "type": "uint256"
        }
      ],
      "name": "selectedEvaluators",
      "outputs": [
        {
          "internalType": "address",
          "name": "",
          "type": "address"
        }
      ],
      "stateMutability": "view",
      "type": "function"
    },
    {
      "inputs": [
        {
          "internalType": "string",
          "name": "_evidence",
          "type": "string"
        }
      ],
      "name": "setEvidence",
      "outputs": [],
      "stateMutability": "nonpayable",
      "type": "function"
    },
    {
      "inputs": [
        {
          "internalType": "address[]",
          "name": "_selectedEvaluators",
          "type": "address[]"
        }
      ],
      "name": "setSelectedEvaluators",
      "outputs": [],
      "stateMutability": "nonpayable",
      "type": "function"
    },
    {
      "inputs": [
        {
          "internalType": "address",
          "name": "newOwner",
          "type": "address"
        }
      ],
      "name": "transferOwnership",
      "outputs": [],
      "stateMutability": "nonpayable",
      "type": "function"
    },
    {
      "inputs": [],
      "name": "vrfConsumer",
      "outputs": [
        {
          "internalType": "contract IVRFv2Consumer",
          "name": "",
          "type": "address"
        }
      ],
      "stateMutability": "view",
      "type": "function"
    },
    {
      "stateMutability": "payable",
      "type": "receive"
    }
  ],
  "bytecode": "0x60806040526000805460ff60a01b1916600160a01b1790553480156200002457600080fd5b506040516200230b3803806200230b8339810160408190526200004791620001c1565b6200005233620000d7565b600880546001600160a01b03808a166001600160a01b03199283161790925560098054898416908316179055600a8054928816929091169190911790558151620000a490600690602085019062000127565b5060035550600780546001600160a01b0319166001600160a01b03939093169290921790915560025550620002eb915050565b600080546001600160a01b038381166001600160a01b0319831681178455604051919092169283917f8be0079c531659141344cd1fd0a4f28419497f9722a3daafe3b4186f6b6457e09190a35050565b82805482825590600052602060002090810192821562000165579160200282015b828111156200016557825182559160200191906001019062000148565b506200017392915062000177565b5090565b5b8082111562000173576000815560010162000178565b80516001600160a01b0381168114620001a657600080fd5b919050565b634e487b7160e01b600052604160045260246000fd5b600080600080600080600060e0888a031215620001dd57600080fd5b620001e8886200018e565b96506020620001f9818a016200018e565b96506200020960408a016200018e565b95506200021960608a016200018e565b60808a015160a08b015191965094506001600160401b03808211156200023e57600080fd5b818b0191508b601f8301126200025357600080fd5b815181811115620002685762000268620001ab565b8060051b604051601f19603f83011681018181108582111715620002905762000290620001ab565b60405291825284820192508381018501918e831115620002af57600080fd5b938501935b82851015620002cf57845184529385019392850192620002b4565b80975050505050505060c0880151905092959891949750929550565b61201080620002fb6000396000f3fe6080604052600436106101bb5760003560e01c80638422a2f2116100ec578063c0840f561161008a578063e168afe311610064578063e168afe31461057e578063ef71e0de1461059e578063f2fde38b146105b4578063f3ad1535146105d457600080fd5b8063c0840f5614610527578063c201c9f714610549578063e141480d1461056957600080fd5b806392ceecf1116100c657806392ceecf1146104b9578063943dfef1146104cf578063a77e0987146104e5578063bc61495b1461050757600080fd5b80638422a2f21461043f57806384e08ab61461047b5780638da5cb5b1461049b57600080fd5b806329dcb0cf1161015957806367ecb10f1161013357806367ecb10f146103be5780636a5d498c146103f5578063715018a61461040a5780637ed2492a1461041f57600080fd5b806329dcb0cf1461036857806356885cd81461037e5780635ac9d2c41461039e57600080fd5b80631ef4d1fd116101955780631ef4d1fd146102d4578063214eafd4146102f4578063222743a21461031457806325b2564a1461034457600080fd5b806302d05d3f146102365780630cf9af03146102735780631b561cf9146102a457600080fd5b3661023157600a546001600160a01b0316331461022f5760405162461bcd60e51b815260206004820152602760248201527f72656365697665723a204e6f74207468652063726f776466756e64696e6720636044820152661bdb9d1c9858dd60ca1b60648201526084015b60405180910390fd5b005b600080fd5b34801561024257600080fd5b50600754610256906001600160a01b031681565b6040516001600160a01b0390911681526020015b60405180910390f35b34801561027f57600080fd5b5060005461029490600160a01b900460ff1681565b604051901515815260200161026a565b3480156102b057600080fd5b506102946102bf36600461191e565b60106020526000908152604090205460ff1681565b3480156102e057600080fd5b50600854610256906001600160a01b031681565b34801561030057600080fd5b5061022f61030f3660046119ab565b6105f6565b34801561032057600080fd5b5061029461032f36600461191e565b60116020526000908152604090205460ff1681565b34801561035057600080fd5b5061035a60045481565b60405190815260200161026a565b34801561037457600080fd5b5061035a60025481565b34801561038a57600080fd5b50600a54610256906001600160a01b031681565b3480156103aa57600080fd5b506102566103b9366004611a48565b6106d1565b3480156103ca57600080fd5b506103de6103d9366004611a48565b6106fb565b60408051921515835290151560208301520161026a565b34801561040157600080fd5b5061022f610730565b34801561041657600080fd5b5061022f610876565b34801561042b57600080fd5b5061022f61043a366004611ade565b61088a565b34801561044b57600080fd5b506103de61045a36600461191e565b600f6020526000908152604090206001015460ff8082169161010090041682565b34801561048757600080fd5b5061022f610496366004611b63565b610fc6565b3480156104a757600080fd5b506000546001600160a01b0316610256565b3480156104c557600080fd5b5061035a60035481565b3480156104db57600080fd5b5061035a60015481565b3480156104f157600080fd5b506104fa61113e565b60405161026a9190611c1c565b34801561051357600080fd5b50600954610256906001600160a01b031681565b34801561053357600080fd5b5061053c6111cc565b60405161026a9190611c8c565b34801561055557600080fd5b5061035a610564366004611a48565b6113f7565b34801561057557600080fd5b50610294611418565b34801561058a57600080fd5b50610256610599366004611a48565b6115ef565b3480156105aa57600080fd5b5061035a60055481565b3480156105c057600080fd5b5061022f6105cf36600461191e565b6115ff565b3480156105e057600080fd5b506105e9611678565b60405161026a9190611d2c565b6008546001600160a01b031633146106645760405162461bcd60e51b815260206004820152602b60248201527f73657453656c65637465644576616c7561746f72733a204e6f7420746865205660448201526a14918818dbdb9d1c9858dd60aa1b6064820152608401610226565b60005b8151811015610682578061067a81611d79565b915050610667565b50805161069690600b90602084019061179a565b507ffd35f96279e550a2cd0fa660d841f96151fb8e2f8fdded9e10f8865219543306816040516106c69190611d2c565b60405180910390a150565b600b81815481106106e157600080fd5b6000918252602090912001546001600160a01b0316905081565b600d818154811061070b57600080fd5b600091825260209091206001600390920201015460ff80821692506101009091041682565b60025442106107975760405162461bcd60e51b815260206004820152602d60248201527f6265636f6d654576616c7561746f723a207468652073656c656374696f6e207060448201526c32b934b7b21034b99037bb32b960991b6064820152608401610226565b3360009081526010602052604090205460ff16156108055760405162461bcd60e51b815260206004820152602560248201527f6265636f6d654576616c7561746f723a20416c726561647920616e206576616c6044820152643ab0ba37b960d91b6064820152608401610226565b6005805490600061081583611d79565b9091555050600c805460018181019092557fdf6966c971051c3d54ec59162606531493a51404a002842f56009d7e5cf4a8c70180546001600160a01b031916339081179091556000908152601060205260409020805460ff19169091179055565b61087e6116da565b6108886000611734565b565b600054600160a01b900460ff166108fb5760405162461bcd60e51b815260206004820152602f60248201527f6576616c7561746545766964656e63653a20546865206576616c756174696f6e60448201526e103832b934b7b21034b99037bb32b960891b6064820152608401610226565b6002544211801561090d575060035442105b6109745760405162461bcd60e51b815260206004820152603260248201527f6576616c7561746545766964656e63653a205468652073656c656374696f6e206044820152713832b934b7b21034b9903737ba1037bb32b960711b6064820152608401610226565b83516003146109d45760405162461bcd60e51b815260206004820152602660248201527f6576616c7561746545766964656e63653a2054686520696d6167657320617265604482015265206e6f74203360d01b6064820152608401610226565b8051600314610a335760405162461bcd60e51b815260206004820152602560248201527f6576616c7561746545766964656e63653a20546865206c696e6b7320617265206044820152646e6f74203360d81b6064820152608401610226565b610adf60405180602001604052806000815250600e8054610a5390611da0565b80601f0160208091040260200160405190810160405280929190818152602001828054610a7f90611da0565b8015610acc5780601f10610aa157610100808354040283529160200191610acc565b820191906000526020600020905b815481529060010190602001808311610aaf57829003601f168201915b505050505061178490919063ffffffff16565b15610b3c5760405162461bcd60e51b815260206004820152602760248201527f6576616c7561746545766964656e63653a205468652065766964656e636520696044820152667320656d70747960c81b6064820152608401610226565b3360009081526010602052604090205460ff16610ba65760405162461bcd60e51b815260206004820152602260248201527f6576616c7561746545766964656e63653a204e6f7420616e206576616c75617460448201526137b960f11b6064820152608401610226565b3360009081526011602052604090205460ff1615610c125760405162461bcd60e51b815260206004820152602360248201527f6576616c7561746545766964656e63653a20416c7265616479206576616c75616044820152621d195960ea1b6064820152608401610226565b604080516080810182528581528415156020808301919091528415158284015260608201849052336000908152600f8252929092208151805192939192610c5c92849201906117ff565b50602082810151600183018054604086015115156101000261ff00199315159390931661ffff199091161791909117905560608301518051610ca492600285019201906117ff565b5050336000908152601160209081526040808320805460ff19166001908117909155600f9092528220600d8054928301815590925281549192506003027fd7b6990105719101dabeb77144f2a3385c8033acd3af97e9423a695e81ad1eb50190610d11908290849061189f565b5060018281018054918301805460ff938416151560ff19821681178355925461010090819004909416151590930261ff001990921661ffff199093169290921717905560028083018054610d68928401919061189f565b50506004805491506000610d7b83611d79565b9190505550600454600303610fc05760005b600b54811015610ea4576000600b8281548110610dac57610dac611dd4565b6000918252602090912001546001546001600160a01b0390911690610dd390600390611dea565b604051600081818185875af1925050503d8060008114610e0f576040519150601f19603f3d011682016040523d82523d6000602084013e610e14565b606091505b5050905080610e6f5760405162461bcd60e51b815260206004820152602160248201527f6576616c7561746545766964656e63653a205472616e73666572206661696c656044820152601960fa1b6064820152608401610226565b336001600160a01b0316600b8381548110610e8c57610e8c611dd4565b50600052505080610e9c81611d79565b915050610d8d565b50600080546001600160a01b03166007546040516001600160a01b0391821660248201526002604482015291169060640160408051601f198184030181529181526020820180516001600160e01b031663327c8aa160e11b17905251610f0a9190611e0c565b6000604051808303816000865af19150503d8060008114610f47576040519150601f19603f3d011682016040523d82523d6000602084013e610f4c565b606091505b5050905080610fb15760405162461bcd60e51b815260206004820152602b60248201527f6576616c7561746545766964656e63653a205365742070726f6a65637420737460448201526a185d1d5cc819985a5b195960aa1b6064820152608401610226565b506000805460ff60a01b191690555b50505050565b6007546001600160a01b0316331461102f5760405162461bcd60e51b815260206004820152602660248201527f6f6e6c7943726561746f723a2063616c6c6572206973206e6f742074686520636044820152653932b0ba37b960d11b6064820152608401610226565b600660018154811061104357611043611dd4565b90600052602060002001544210156110a85760405162461bcd60e51b815260206004820152602260248201527f73657445766964656e63653a205468652070726f6a6563742068617320656e64604482015261195960f21b6064820152608401610226565b600354421061110e5760405162461bcd60e51b815260206004820152602c60248201527f73657445766964656e63653a20546865206576616c756174696f6e207065726960448201526b1bd9081a185cc8195b99195960a21b6064820152608401610226565b60005b600b5481101561112d578061112581611d79565b915050611111565b50600e61113a8282611e77565b5050565b600e805461114b90611da0565b80601f016020809104026020016040519081016040528092919081815260200182805461117790611da0565b80156111c45780601f10611199576101008083540402835291602001916111c4565b820191906000526020600020905b8154815290600101906020018083116111a757829003601f168201915b505050505081565b600c5460609060009067ffffffffffffffff8111156111ed576111ed611940565b60405190808252806020026020018201604052801561124d57816020015b61123a604051806080016040528060608152602001600015158152602001600015158152602001606081525090565b81526020019060019003908161120b5790505b50600c5490915060000361126057919050565b60005b600c548110156113f157600f6000600c838154811061128457611284611dd4565b60009182526020808320909101546001600160a01b0316835282810193909352604091820190208151815460a0948102820185019093526080810183815290939192849284919084018282801561131a57602002820191906000526020600020906000905b825461010083900a900460ff1615158152602060019283018181049485019490930390920291018084116112e95790505b5050509183525050600182015460ff808216151560208085019190915261010090920416151560408084019190915260028401805482518185028101850190935280835260609094019391929091908301828280156113b857602002820191906000526020600020906000905b825461010083900a900460ff1615158152602060019283018181049485019490930390920291018084116113875790505b5050505050815250508282815181106113d3576113d3611dd4565b602002602001018190525080806113e990611d79565b915050611263565b50919050565b6006818154811061140757600080fd5b600091825260209091200154905081565b600a546000906001600160a01b0316331461148d5760405162461bcd60e51b815260206004820152602f60248201527f73656c6563744576616c7561746f72733a204e6f74207468652063726f77646660448201526e1d5b991a5b99c818dbdb9d1c9858dd608a1b6064820152608401610226565b600c546003101561151957600854604051630a6fba9f60e31b81526001600160a01b039091169063537dd4f8906114ce906003903090600c90600401611f75565b6020604051808303816000875af11580156114ed573d6000803e3d6000fd5b505050506040513d601f19601f820116820180604052508101906115119190611fae565b506001905090565b600c546003036115e95760005b600b548110156115aa57600c818154811061154357611543611dd4565b600091825260209091200154600b80546001600160a01b03909216918390811061156f5761156f611dd4565b600091825260209091200180546001600160a01b0319166001600160a01b0392909216919091179055806115a281611d79565b915050611526565b507ffd35f96279e550a2cd0fa660d841f96151fb8e2f8fdded9e10f8865219543306600c6040516115db9190611fc7565b60405180910390a150600190565b50600090565b600c81815481106106e157600080fd5b6116076116da565b6001600160a01b03811661166c5760405162461bcd60e51b815260206004820152602660248201527f4f776e61626c653a206e6577206f776e657220697320746865207a65726f206160448201526564647265737360d01b6064820152608401610226565b61167581611734565b50565b6060600b8054806020026020016040519081016040528092919081815260200182805480156116d057602002820191906000526020600020905b81546001600160a01b031681526001909101906020018083116116b2575b5050505050905090565b6000546001600160a01b031633146108885760405162461bcd60e51b815260206004820181905260248201527f4f776e61626c653a2063616c6c6572206973206e6f7420746865206f776e65726044820152606401610226565b600080546001600160a01b038381166001600160a01b0319831681178455604051919092169283917f8be0079c531659141344cd1fd0a4f28419497f9722a3daafe3b4186f6b6457e09190a35050565b8051602091820120825192909101919091201490565b8280548282559060005260206000209081019282156117ef579160200282015b828111156117ef57825182546001600160a01b0319166001600160a01b039091161782556020909201916001909101906117ba565b506117fb9291506118ed565b5090565b82805482825590600052602060002090601f016020900481019282156117ef5791602002820160005b8382111561186557835183826101000a81548160ff0219169083151502179055509260200192600101602081600001049283019260010302611828565b80156118925782816101000a81549060ff0219169055600101602081600001049283019260010302611865565b50506117fb9291506118ed565b82805482825590600052602060002090601f016020900481019282156117ef57600052602060002091601f016020900482015b828111156117ef5782548255916001019190600101906118d2565b5b808211156117fb57600081556001016118ee565b80356001600160a01b038116811461191957600080fd5b919050565b60006020828403121561193057600080fd5b61193982611902565b9392505050565b634e487b7160e01b600052604160045260246000fd5b604051601f8201601f1916810167ffffffffffffffff8111828210171561197f5761197f611940565b604052919050565b600067ffffffffffffffff8211156119a1576119a1611940565b5060051b60200190565b600060208083850312156119be57600080fd5b823567ffffffffffffffff8111156119d557600080fd5b8301601f810185136119e657600080fd5b80356119f96119f482611987565b611956565b81815260059190911b82018301908381019087831115611a1857600080fd5b928401925b82841015611a3d57611a2e84611902565b82529284019290840190611a1d565b979650505050505050565b600060208284031215611a5a57600080fd5b5035919050565b8035801515811461191957600080fd5b600082601f830112611a8257600080fd5b81356020611a926119f483611987565b82815260059290921b84018101918181019086841115611ab157600080fd5b8286015b84811015611ad357611ac681611a61565b8352918301918301611ab5565b509695505050505050565b60008060008060808587031215611af457600080fd5b843567ffffffffffffffff80821115611b0c57600080fd5b611b1888838901611a71565b9550611b2660208801611a61565b9450611b3460408801611a61565b93506060870135915080821115611b4a57600080fd5b50611b5787828801611a71565b91505092959194509250565b60006020808385031215611b7657600080fd5b823567ffffffffffffffff80821115611b8e57600080fd5b818501915085601f830112611ba257600080fd5b813581811115611bb457611bb4611940565b611bc6601f8201601f19168501611956565b91508082528684828501011115611bdc57600080fd5b8084840185840137600090820190930192909252509392505050565b60005b83811015611c13578181015183820152602001611bfb565b50506000910152565b6020815260008251806020840152611c3b816040850160208701611bf8565b601f01601f19169190910160400192915050565b600081518084526020808501945080840160005b83811015611c81578151151587529582019590820190600101611c63565b509495945050505050565b60006020808301818452808551808352604092508286019150828160051b87010184880160005b83811015611d1e57603f19898403018552815160808151818652611cd982870182611c4f565b915050888201511515898601528782015115158886015260608083015192508582038187015250611d0a8183611c4f565b968901969450505090860190600101611cb3565b509098975050505050505050565b6020808252825182820181905260009190848201906040850190845b81811015611d6d5783516001600160a01b031683529284019291840191600101611d48565b50909695505050505050565b600060018201611d9957634e487b7160e01b600052601160045260246000fd5b5060010190565b600181811c90821680611db457607f821691505b6020821081036113f157634e487b7160e01b600052602260045260246000fd5b634e487b7160e01b600052603260045260246000fd5b600082611e0757634e487b7160e01b600052601260045260246000fd5b500490565b60008251611e1e818460208701611bf8565b9190910192915050565b601f821115611e7257600081815260208120601f850160051c81016020861015611e4f5750805b601f850160051c820191505b81811015611e6e57828155600101611e5b565b5050505b505050565b815167ffffffffffffffff811115611e9157611e91611940565b611ea581611e9f8454611da0565b84611e28565b602080601f831160018114611eda5760008415611ec25750858301515b600019600386901b1c1916600185901b178555611e6e565b600085815260208120601f198616915b82811015611f0957888601518255948401946001909101908401611eea565b5085821015611f275787850151600019600388901b60f8161c191681555b5050505050600190811b01905550565b6000815480845260208085019450836000528060002060005b83811015611c815781546001600160a01b031687529582019560019182019101611f50565b63ffffffff841681526001600160a01b0383166020820152606060408201819052600090611fa590830184611f37565b95945050505050565b600060208284031215611fc057600080fd5b5051919050565b6020815260006119396020830184611f3756fea26469706673582212200c3b8389dba6599201c21162ad7bd2b4d0336d1a06d0ae90be9bb70e62c5259864736f6c63430008140033",
  "linkReferences": {},
  "deployedLinkReferences": {}
}