{
  "address": "0xc2DB63b07feF191feAF96450d7A28f397aF0f326",
  "abi": [
    {
      "inputs": [],
      "stateMutability": "nonpayable",
      "type": "constructor"
    },
    {
      "anonymous": false,
      "inputs": [
        {
          "indexed": true,
          "internalType": "address",
          "name": "account",
          "type": "address"
        },
        {
          "indexed": true,
          "internalType": "address",
          "name": "operator",
          "type": "address"
        },
        {
          "indexed": false,
          "internalType": "bool",
          "name": "approved",
          "type": "bool"
        }
      ],
      "name": "ApprovalForAll",
      "type": "event"
    },
    {
      "anonymous": false,
      "inputs": [
        {
          "indexed": true,
          "internalType": "address",
          "name": "previousOwner",
          "type": "address"
        },
        {
          "indexed": true,
          "internalType": "address",
          "name": "newOwner",
          "type": "address"
        }
      ],
      "name": "OwnershipTransferred",
      "type": "event"
    },
    {
      "anonymous": false,
      "inputs": [
        {
          "indexed": true,
          "internalType": "address",
          "name": "operator",
          "type": "address"
        },
        {
          "indexed": true,
          "internalType": "address",
          "name": "from",
          "type": "address"
        },
        {
          "indexed": true,
          "internalType": "address",
          "name": "to",
          "type": "address"
        },
        {
          "indexed": false,
          "internalType": "uint256[]",
          "name": "ids",
          "type": "uint256[]"
        },
        {
          "indexed": false,
          "internalType": "uint256[]",
          "name": "values",
          "type": "uint256[]"
        }
      ],
      "name": "TransferBatch",
      "type": "event"
    },
    {
      "anonymous": false,
      "inputs": [
        {
          "indexed": true,
          "internalType": "address",
          "name": "operator",
          "type": "address"
        },
        {
          "indexed": true,
          "internalType": "address",
          "name": "from",
          "type": "address"
        },
        {
          "indexed": true,
          "internalType": "address",
          "name": "to",
          "type": "address"
        },
        {
          "indexed": false,
          "internalType": "uint256",
          "name": "id",
          "type": "uint256"
        },
        {
          "indexed": false,
          "internalType": "uint256",
          "name": "value",
          "type": "uint256"
        }
      ],
      "name": "TransferSingle",
      "type": "event"
    },
    {
      "anonymous": false,
      "inputs": [
        {
          "indexed": false,
          "internalType": "string",
          "name": "value",
          "type": "string"
        },
        {
          "indexed": true,
          "internalType": "uint256",
          "name": "id",
          "type": "uint256"
        }
      ],
      "name": "URI",
      "type": "event"
    },
    {
      "inputs": [
        {
          "internalType": "address",
          "name": "account",
          "type": "address"
        },
        {
          "internalType": "uint256",
          "name": "id",
          "type": "uint256"
        }
      ],
      "name": "balanceOf",
      "outputs": [
        {
          "internalType": "uint256",
          "name": "",
          "type": "uint256"
        }
      ],
      "stateMutability": "view",
      "type": "function"
    },
    {
      "inputs": [
        {
          "internalType": "address[]",
          "name": "accounts",
          "type": "address[]"
        },
        {
          "internalType": "uint256[]",
          "name": "ids",
          "type": "uint256[]"
        }
      ],
      "name": "balanceOfBatch",
      "outputs": [
        {
          "internalType": "uint256[]",
          "name": "",
          "type": "uint256[]"
        }
      ],
      "stateMutability": "view",
      "type": "function"
    },
    {
      "inputs": [
        {
          "internalType": "uint256",
          "name": "id",
          "type": "uint256"
        }
      ],
      "name": "exists",
      "outputs": [
        {
          "internalType": "bool",
          "name": "",
          "type": "bool"
        }
      ],
      "stateMutability": "view",
      "type": "function"
    },
    {
      "inputs": [
        {
          "internalType": "address",
          "name": "from",
          "type": "address"
        },
        {
          "internalType": "address[]",
          "name": "recipients",
          "type": "address[]"
        },
        {
          "internalType": "uint256",
          "name": "tokenId",
          "type": "uint256"
        },
        {
          "internalType": "uint256[]",
          "name": "fractions",
          "type": "uint256[]"
        },
        {
          "internalType": "bytes",
          "name": "data",
          "type": "bytes"
        }
      ],
      "name": "fractionateToken",
      "outputs": [],
      "stateMutability": "nonpayable",
      "type": "function"
    },
    {
      "inputs": [
        {
          "internalType": "address",
          "name": "account",
          "type": "address"
        },
        {
          "internalType": "address",
          "name": "operator",
          "type": "address"
        }
      ],
      "name": "isApprovedForAll",
      "outputs": [
        {
          "internalType": "bool",
          "name": "",
          "type": "bool"
        }
      ],
      "stateMutability": "view",
      "type": "function"
    },
    {
      "inputs": [
        {
          "internalType": "address",
          "name": "account",
          "type": "address"
        },
        {
          "internalType": "uint256",
          "name": "id",
          "type": "uint256"
        },
        {
          "internalType": "uint256",
          "name": "amount",
          "type": "uint256"
        },
        {
          "internalType": "bytes",
          "name": "data",
          "type": "bytes"
        },
        {
          "internalType": "string",
          "name": "uri",
          "type": "string"
        }
      ],
      "name": "mint",
      "outputs": [
        {
          "internalType": "uint256",
          "name": "",
          "type": "uint256"
        }
      ],
      "stateMutability": "nonpayable",
      "type": "function"
    },
    {
      "inputs": [
        {
          "internalType": "address",
          "name": "to",
          "type": "address"
        },
        {
          "internalType": "uint256[]",
          "name": "ids",
          "type": "uint256[]"
        },
        {
          "internalType": "uint256[]",
          "name": "amounts",
          "type": "uint256[]"
        },
        {
          "internalType": "bytes",
          "name": "data",
          "type": "bytes"
        }
      ],
      "name": "mintBatch",
      "outputs": [],
      "stateMutability": "nonpayable",
      "type": "function"
    },
    {
      "inputs": [],
      "name": "owner",
      "outputs": [
        {
          "internalType": "address",
          "name": "",
          "type": "address"
        }
      ],
      "stateMutability": "view",
      "type": "function"
    },
    {
      "inputs": [],
      "name": "renounceOwnership",
      "outputs": [],
      "stateMutability": "nonpayable",
      "type": "function"
    },
    {
      "inputs": [
        {
          "internalType": "address",
          "name": "from",
          "type": "address"
        },
        {
          "internalType": "address",
          "name": "to",
          "type": "address"
        },
        {
          "internalType": "uint256[]",
          "name": "ids",
          "type": "uint256[]"
        },
        {
          "internalType": "uint256[]",
          "name": "amounts",
          "type": "uint256[]"
        },
        {
          "internalType": "bytes",
          "name": "data",
          "type": "bytes"
        }
      ],
      "name": "safeBatchTransferFrom",
      "outputs": [],
      "stateMutability": "nonpayable",
      "type": "function"
    },
    {
      "inputs": [
        {
          "internalType": "address",
          "name": "from",
          "type": "address"
        },
        {
          "internalType": "address",
          "name": "to",
          "type": "address"
        },
        {
          "internalType": "uint256",
          "name": "id",
          "type": "uint256"
        },
        {
          "internalType": "uint256",
          "name": "amount",
          "type": "uint256"
        },
        {
          "internalType": "bytes",
          "name": "data",
          "type": "bytes"
        }
      ],
      "name": "safeTransferFrom",
      "outputs": [],
      "stateMutability": "nonpayable",
      "type": "function"
    },
    {
      "inputs": [
        {
          "internalType": "address",
          "name": "operator",
          "type": "address"
        },
        {
          "internalType": "bool",
          "name": "approved",
          "type": "bool"
        }
      ],
      "name": "setApprovalForAll",
      "outputs": [],
      "stateMutability": "nonpayable",
      "type": "function"
    },
    {
      "inputs": [
        {
          "internalType": "bytes4",
          "name": "interfaceId",
          "type": "bytes4"
        }
      ],
      "name": "supportsInterface",
      "outputs": [
        {
          "internalType": "bool",
          "name": "",
          "type": "bool"
        }
      ],
      "stateMutability": "view",
      "type": "function"
    },
    {
      "inputs": [
        {
          "internalType": "uint256",
          "name": "id",
          "type": "uint256"
        }
      ],
      "name": "totalSupply",
      "outputs": [
        {
          "internalType": "uint256",
          "name": "",
          "type": "uint256"
        }
      ],
      "stateMutability": "view",
      "type": "function"
    },
    {
      "inputs": [
        {
          "internalType": "address",
          "name": "newOwner",
          "type": "address"
        }
      ],
      "name": "transferOwnership",
      "outputs": [],
      "stateMutability": "nonpayable",
      "type": "function"
    },
    {
      "inputs": [
        {
          "internalType": "uint256",
          "name": "",
          "type": "uint256"
        }
      ],
      "name": "uri",
      "outputs": [
        {
          "internalType": "string",
          "name": "",
          "type": "string"
        }
      ],
      "stateMutability": "view",
      "type": "function"
    }
  ],
  "transactionHash": "0xf457ca4ee6c5db1b6ddb1719b4e698e554adff125c49482b12e56eb24ee789e6",
  "args": [],
  "numDeployments": 1,
  "solcInputHash": "4cbb31becc6d546544eb8451799934ff",
  "bytecode": "0x60806040523480156200001157600080fd5b506040805160208101909152600081526200002c816200003e565b50620000383362000050565b62000213565b60026200004c828262000147565b5050565b600480546001600160a01b038381166001600160a01b0319831681179093556040519116919082907f8be0079c531659141344cd1fd0a4f28419497f9722a3daafe3b4186f6b6457e090600090a35050565b634e487b7160e01b600052604160045260246000fd5b600181811c90821680620000cd57607f821691505b602082108103620000ee57634e487b7160e01b600052602260045260246000fd5b50919050565b601f8211156200014257600081815260208120601f850160051c810160208610156200011d5750805b601f850160051c820191505b818110156200013e5782815560010162000129565b5050505b505050565b81516001600160401b03811115620001635762000163620000a2565b6200017b81620001748454620000b8565b84620000f4565b602080601f831160018114620001b357600084156200019a5750858301515b600019600386901b1c1916600185901b1785556200013e565b600085815260208120601f198616915b82811015620001e457888601518255948401946001909101908401620001c3565b5085821015620002035787850151600019600388901b60f8161c191681555b5050505050600190811b01905550565b611f0880620002236000396000f3fe608060405234801561001057600080fd5b50600436106100ff5760003560e01c8063864c1cd911610097578063c1341c4f11610066578063c1341c4f14610240578063e985e9c514610253578063f242432a1461028f578063f2fde38b146102a257600080fd5b8063864c1cd9146101df5780638da5cb5b146101f2578063a22cb4651461020d578063bd85b0391461022057600080fd5b80632eb2c2d6116100d35780632eb2c2d6146101825780634e1273f4146101955780634f558e79146101b5578063715018a6146101d757600080fd5b8062fdd58e1461010457806301ffc9a71461012a5780630e89341c1461014d5780631f7fdffa1461016d575b600080fd5b6101176101123660046112ff565b6102b5565b6040519081526020015b60405180910390f35b61013d61013836600461133f565b61034e565b6040519015158152602001610121565b61016061015b366004611363565b61039e565b60405161012191906113c2565b61018061017b366004611528565b610432565b005b6101806101903660046115c0565b61044c565b6101a86101a3366004611669565b610498565b604051610121919061176e565b61013d6101c3366004611363565b600090815260036020526040902054151590565b6101806105c1565b6101806101ed3660046117cc565b6105d5565b6004546040516001600160a01b039091168152602001610121565b61018061021b366004611879565b61075b565b61011761022e366004611363565b60009081526003602052604090205490565b61011761024e3660046118b5565b61076a565b61013d610261366004611943565b6001600160a01b03918216600090815260016020908152604080832093909416825291909152205460ff1690565b61018061029d366004611976565b61078b565b6101806102b03660046119da565b6107d0565b60006001600160a01b0383166103255760405162461bcd60e51b815260206004820152602a60248201527f455243313135353a2061646472657373207a65726f206973206e6f742061207660448201526930b634b21037bbb732b960b11b60648201526084015b60405180910390fd5b506000818152602081815260408083206001600160a01b03861684529091529020545b92915050565b60006001600160e01b03198216636cdb3d1360e11b148061037f57506001600160e01b031982166303a24d0760e21b145b8061034857506301ffc9a760e01b6001600160e01b0319831614610348565b6060600280546103ad906119f5565b80601f01602080910402602001604051908101604052809291908181526020018280546103d9906119f5565b80156104265780601f106103fb57610100808354040283529160200191610426565b820191906000526020600020905b81548152906001019060200180831161040957829003601f168201915b50505050509050919050565b61043a610849565b610446848484846108a3565b50505050565b6001600160a01b03851633148061046857506104688533610261565b6104845760405162461bcd60e51b815260040161031c90611a2f565b61049185858585856109fd565b5050505050565b606081518351146104fd5760405162461bcd60e51b815260206004820152602960248201527f455243313135353a206163636f756e747320616e6420696473206c656e677468604482015268040dad2e6dac2e8c6d60bb1b606482015260840161031c565b600083516001600160401b03811115610518576105186113d5565b604051908082528060200260200182016040528015610541578160200160208202803683370190505b50905060005b84518110156105b95761058c85828151811061056557610565611a7d565b602002602001015185838151811061057f5761057f611a7d565b60200260200101516102b5565b82828151811061059e5761059e611a7d565b60209081029190910101526105b281611aa9565b9050610547565b509392505050565b6105c9610849565b6105d36000610ba7565b565b84821461064a5760405162461bcd60e51b815260206004820152603b60248201527f6672616374696f6e617465546f6b656e3a204d69736d6174636820626574776560448201527f656e20726563697069656e747320616e64206672616374696f6e730000000000606482015260840161031c565b6000805b8381101561068e5784848281811061066857610668611a7d565b905060200201358261067a9190611ac2565b91508061068681611aa9565b91505061064e565b5061069988866102b5565b8111156106e85760405162461bcd60e51b815260206004820181905260248201527f4e6f7420656e6f75676820746f6b656e7320746f206672616374696f6e617465604482015260640161031c565b60005b868110156107505761073e8989898481811061070957610709611a7d565b905060200201602081019061071e91906119da565b8888888681811061073157610731611a7d565b905060200201358761078b565b8061074881611aa9565b9150506106eb565b505050505050505050565b610766338383610bf9565b5050565b600061077582610cd9565b61078186868686610ce5565b5092949350505050565b6001600160a01b0385163314806107a757506107a78533610261565b6107c35760405162461bcd60e51b815260040161031c90611a2f565b6104918585858585610dce565b6107d8610849565b6001600160a01b03811661083d5760405162461bcd60e51b815260206004820152602660248201527f4f776e61626c653a206e6577206f776e657220697320746865207a65726f206160448201526564647265737360d01b606482015260840161031c565b61084681610ba7565b50565b6004546001600160a01b031633146105d35760405162461bcd60e51b815260206004820181905260248201527f4f776e61626c653a2063616c6c6572206973206e6f7420746865206f776e6572604482015260640161031c565b6001600160a01b0384166108c95760405162461bcd60e51b815260040161031c90611ad5565b81518351146108ea5760405162461bcd60e51b815260040161031c90611b16565b336108fa81600087878787610efb565b60005b84518110156109955783818151811061091857610918611a7d565b602002602001015160008087848151811061093557610935611a7d565b602002602001015181526020019081526020016000206000886001600160a01b03166001600160a01b03168152602001908152602001600020600082825461097d9190611ac2565b9091555081905061098d81611aa9565b9150506108fd565b50846001600160a01b031660006001600160a01b0316826001600160a01b03167f4a39dc06d4c0dbc64b70af90fd698a233a518aa5d07e595d983b8c0526c8f7fb87876040516109e6929190611b5e565b60405180910390a461049181600087878787610f09565b8151835114610a1e5760405162461bcd60e51b815260040161031c90611b16565b6001600160a01b038416610a445760405162461bcd60e51b815260040161031c90611b8c565b33610a53818787878787610efb565b60005b8451811015610b39576000858281518110610a7357610a73611a7d565b602002602001015190506000858381518110610a9157610a91611a7d565b602090810291909101810151600084815280835260408082206001600160a01b038e168352909352919091205490915081811015610ae15760405162461bcd60e51b815260040161031c90611bd1565b6000838152602081815260408083206001600160a01b038e8116855292528083208585039055908b16825281208054849290610b1e908490611ac2565b9250508190555050505080610b3290611aa9565b9050610a56565b50846001600160a01b0316866001600160a01b0316826001600160a01b03167f4a39dc06d4c0dbc64b70af90fd698a233a518aa5d07e595d983b8c0526c8f7fb8787604051610b89929190611b5e565b60405180910390a4610b9f818787878787610f09565b505050505050565b600480546001600160a01b038381166001600160a01b0319831681179093556040519116919082907f8be0079c531659141344cd1fd0a4f28419497f9722a3daafe3b4186f6b6457e090600090a35050565b816001600160a01b0316836001600160a01b031603610c6c5760405162461bcd60e51b815260206004820152602960248201527f455243313135353a2073657474696e6720617070726f76616c20737461747573604482015268103337b91039b2b63360b91b606482015260840161031c565b6001600160a01b03838116600081815260016020908152604080832094871680845294825291829020805460ff191686151590811790915591519182527f17307eab39ab6107e8899845ad3d59bd9653f200f220920489ca2b5937696c31910160405180910390a3505050565b60026107668282611c66565b6001600160a01b038416610d0b5760405162461bcd60e51b815260040161031c90611ad5565b336000610d1785611064565b90506000610d2485611064565b9050610d3583600089858589610efb565b6000868152602081815260408083206001600160a01b038b16845290915281208054879290610d65908490611ac2565b909155505060408051878152602081018790526001600160a01b03808a1692600092918716917fc3d58168c5ae7397731d063d5bbf3d657854427343f4c083240f7aacaa2d0f62910160405180910390a4610dc5836000898989896110af565b50505050505050565b6001600160a01b038416610df45760405162461bcd60e51b815260040161031c90611b8c565b336000610e0085611064565b90506000610e0d85611064565b9050610e1d838989858589610efb565b6000868152602081815260408083206001600160a01b038c16845290915290205485811015610e5e5760405162461bcd60e51b815260040161031c90611bd1565b6000878152602081815260408083206001600160a01b038d8116855292528083208985039055908a16825281208054889290610e9b908490611ac2565b909155505060408051888152602081018890526001600160a01b03808b16928c821692918816917fc3d58168c5ae7397731d063d5bbf3d657854427343f4c083240f7aacaa2d0f62910160405180910390a4610750848a8a8a8a8a6110af565b610b9f86868686868661116a565b6001600160a01b0384163b15610b9f5760405163bc197c8160e01b81526001600160a01b0385169063bc197c8190610f4d9089908990889088908890600401611d25565b6020604051808303816000875af1925050508015610f88575060408051601f3d908101601f19168201909252610f8591810190611d83565b60015b61103457610f94611da0565b806308c379a003610fcd5750610fa8611dbc565b80610fb35750610fcf565b8060405162461bcd60e51b815260040161031c91906113c2565b505b60405162461bcd60e51b815260206004820152603460248201527f455243313135353a207472616e7366657220746f206e6f6e2d455243313135356044820152732932b1b2b4bb32b91034b6b83632b6b2b73a32b960611b606482015260840161031c565b6001600160e01b0319811663bc197c8160e01b14610dc55760405162461bcd60e51b815260040161031c90611e45565b6040805160018082528183019092526060916000919060208083019080368337019050509050828160008151811061109e5761109e611a7d565b602090810291909101015292915050565b6001600160a01b0384163b15610b9f5760405163f23a6e6160e01b81526001600160a01b0385169063f23a6e61906110f39089908990889088908890600401611e8d565b6020604051808303816000875af192505050801561112e575060408051601f3d908101601f1916820190925261112b91810190611d83565b60015b61113a57610f94611da0565b6001600160e01b0319811663f23a6e6160e01b14610dc55760405162461bcd60e51b815260040161031c90611e45565b6001600160a01b0385166111f15760005b83518110156111ef5782818151811061119657611196611a7d565b6020026020010151600360008684815181106111b4576111b4611a7d565b6020026020010151815260200190815260200160002060008282546111d99190611ac2565b909155506111e8905081611aa9565b905061117b565b505b6001600160a01b038416610b9f5760005b8351811015610dc557600084828151811061121f5761121f611a7d565b60200260200101519050600084838151811061123d5761123d611a7d565b60200260200101519050600060036000848152602001908152602001600020549050818110156112c05760405162461bcd60e51b815260206004820152602860248201527f455243313135353a206275726e20616d6f756e74206578636565647320746f74604482015267616c537570706c7960c01b606482015260840161031c565b600092835260036020526040909220910390556112dc81611aa9565b9050611202565b80356001600160a01b03811681146112fa57600080fd5b919050565b6000806040838503121561131257600080fd5b61131b836112e3565b946020939093013593505050565b6001600160e01b03198116811461084657600080fd5b60006020828403121561135157600080fd5b813561135c81611329565b9392505050565b60006020828403121561137557600080fd5b5035919050565b6000815180845260005b818110156113a257602081850181015186830182015201611386565b506000602082860101526020601f19601f83011685010191505092915050565b60208152600061135c602083018461137c565b634e487b7160e01b600052604160045260246000fd5b601f8201601f191681016001600160401b0381118282101715611410576114106113d5565b6040525050565b60006001600160401b03821115611430576114306113d5565b5060051b60200190565b600082601f83011261144b57600080fd5b8135602061145882611417565b60405161146582826113eb565b83815260059390931b850182019282810191508684111561148557600080fd5b8286015b848110156114a05780358352918301918301611489565b509695505050505050565b60006001600160401b038311156114c4576114c46113d5565b6040516114db601f8501601f1916602001826113eb565b8091508381528484840111156114f057600080fd5b83836020830137600060208583010152509392505050565b600082601f83011261151957600080fd5b61135c838335602085016114ab565b6000806000806080858703121561153e57600080fd5b611547856112e3565b935060208501356001600160401b038082111561156357600080fd5b61156f8883890161143a565b9450604087013591508082111561158557600080fd5b6115918883890161143a565b935060608701359150808211156115a757600080fd5b506115b487828801611508565b91505092959194509250565b600080600080600060a086880312156115d857600080fd5b6115e1866112e3565b94506115ef602087016112e3565b935060408601356001600160401b038082111561160b57600080fd5b61161789838a0161143a565b9450606088013591508082111561162d57600080fd5b61163989838a0161143a565b9350608088013591508082111561164f57600080fd5b5061165c88828901611508565b9150509295509295909350565b6000806040838503121561167c57600080fd5b82356001600160401b038082111561169357600080fd5b818501915085601f8301126116a757600080fd5b813560206116b482611417565b6040516116c182826113eb565b83815260059390931b85018201928281019150898411156116e157600080fd5b948201945b83861015611706576116f7866112e3565b825294820194908201906116e6565b9650508601359250508082111561171c57600080fd5b506117298582860161143a565b9150509250929050565b600081518084526020808501945080840160005b8381101561176357815187529582019590820190600101611747565b509495945050505050565b60208152600061135c6020830184611733565b60008083601f84011261179357600080fd5b5081356001600160401b038111156117aa57600080fd5b6020830191508360208260051b85010111156117c557600080fd5b9250929050565b600080600080600080600060a0888a0312156117e757600080fd5b6117f0886112e3565b965060208801356001600160401b038082111561180c57600080fd5b6118188b838c01611781565b909850965060408a0135955060608a013591508082111561183857600080fd5b6118448b838c01611781565b909550935060808a013591508082111561185d57600080fd5b5061186a8a828b01611508565b91505092959891949750929550565b6000806040838503121561188c57600080fd5b611895836112e3565b9150602083013580151581146118aa57600080fd5b809150509250929050565b600080600080600060a086880312156118cd57600080fd5b6118d6866112e3565b9450602086013593506040860135925060608601356001600160401b038082111561190057600080fd5b61190c89838a01611508565b9350608088013591508082111561192257600080fd5b508601601f8101881361193457600080fd5b61165c888235602084016114ab565b6000806040838503121561195657600080fd5b61195f836112e3565b915061196d602084016112e3565b90509250929050565b600080600080600060a0868803121561198e57600080fd5b611997866112e3565b94506119a5602087016112e3565b9350604086013592506060860135915060808601356001600160401b038111156119ce57600080fd5b61165c88828901611508565b6000602082840312156119ec57600080fd5b61135c826112e3565b600181811c90821680611a0957607f821691505b602082108103611a2957634e487b7160e01b600052602260045260246000fd5b50919050565b6020808252602e908201527f455243313135353a2063616c6c6572206973206e6f7420746f6b656e206f776e60408201526d195c881bdc88185c1c1c9bdd995960921b606082015260800190565b634e487b7160e01b600052603260045260246000fd5b634e487b7160e01b600052601160045260246000fd5b600060018201611abb57611abb611a93565b5060010190565b8082018082111561034857610348611a93565b60208082526021908201527f455243313135353a206d696e7420746f20746865207a65726f206164647265736040820152607360f81b606082015260800190565b60208082526028908201527f455243313135353a2069647320616e6420616d6f756e7473206c656e677468206040820152670dad2e6dac2e8c6d60c31b606082015260800190565b604081526000611b716040830185611733565b8281036020840152611b838185611733565b95945050505050565b60208082526025908201527f455243313135353a207472616e7366657220746f20746865207a65726f206164604082015264647265737360d81b606082015260800190565b6020808252602a908201527f455243313135353a20696e73756666696369656e742062616c616e636520666f60408201526939103a3930b739b332b960b11b606082015260800190565b601f821115611c6157600081815260208120601f850160051c81016020861015611c425750805b601f850160051c820191505b81811015610b9f57828155600101611c4e565b505050565b81516001600160401b03811115611c7f57611c7f6113d5565b611c9381611c8d84546119f5565b84611c1b565b602080601f831160018114611cc85760008415611cb05750858301515b600019600386901b1c1916600185901b178555610b9f565b600085815260208120601f198616915b82811015611cf757888601518255948401946001909101908401611cd8565b5085821015611d155787850151600019600388901b60f8161c191681555b5050505050600190811b01905550565b6001600160a01b0386811682528516602082015260a060408201819052600090611d5190830186611733565b8281036060840152611d638186611733565b90508281036080840152611d77818561137c565b98975050505050505050565b600060208284031215611d9557600080fd5b815161135c81611329565b600060033d1115611db95760046000803e5060005160e01c5b90565b600060443d1015611dca5790565b6040516003193d81016004833e81513d6001600160401b038160248401118184111715611df957505050505090565b8285019150815181811115611e115750505050505090565b843d8701016020828501011115611e2b5750505050505090565b611e3a602082860101876113eb565b509095945050505050565b60208082526028908201527f455243313135353a204552433131353552656365697665722072656a656374656040820152676420746f6b656e7360c01b606082015260800190565b6001600160a01b03868116825285166020820152604081018490526060810183905260a060808201819052600090611ec79083018461137c565b97965050505050505056fea2646970667358221220ee422598b7650792c0ffc10ffed4b109e7877f2779663d200f304b95f6816ab964736f6c63430008140033",
  "devdoc": {
    "events": {
      "ApprovalForAll(address,address,bool)": {
        "details": "Emitted when `account` grants or revokes permission to `operator` to transfer their tokens, according to `approved`."
      },
      "TransferBatch(address,address,address,uint256[],uint256[])": {
        "details": "Equivalent to multiple {TransferSingle} events, where `operator`, `from` and `to` are the same for all transfers."
      },
      "TransferSingle(address,address,address,uint256,uint256)": {
        "details": "Emitted when `value` tokens of token type `id` are transferred from `from` to `to` by `operator`."
      },
      "URI(string,uint256)": {
        "details": "Emitted when the URI for token type `id` changes to `value`, if it is a non-programmatic URI. If an {URI} event was emitted for `id`, the standard https://eips.ethereum.org/EIPS/eip-1155#metadata-extensions[guarantees] that `value` will equal the value returned by {IERC1155MetadataURI-uri}."
      }
    },
    "kind": "dev",
    "methods": {
      "balanceOf(address,uint256)": {
        "details": "See {IERC1155-balanceOf}. Requirements: - `account` cannot be the zero address."
      },
      "balanceOfBatch(address[],uint256[])": {
        "details": "See {IERC1155-balanceOfBatch}. Requirements: - `accounts` and `ids` must have the same length."
      },
      "exists(uint256)": {
        "details": "Indicates whether any token exist with a given id, or not."
      },
      "isApprovedForAll(address,address)": {
        "details": "See {IERC1155-isApprovedForAll}."
      },
      "owner()": {
        "details": "Returns the address of the current owner."
      },
      "renounceOwnership()": {
        "details": "Leaves the contract without owner. It will not be possible to call `onlyOwner` functions. Can only be called by the current owner. NOTE: Renouncing ownership will leave the contract without an owner, thereby disabling any functionality that is only available to the owner."
      },
      "safeBatchTransferFrom(address,address,uint256[],uint256[],bytes)": {
        "details": "See {IERC1155-safeBatchTransferFrom}."
      },
      "safeTransferFrom(address,address,uint256,uint256,bytes)": {
        "details": "See {IERC1155-safeTransferFrom}."
      },
      "setApprovalForAll(address,bool)": {
        "details": "See {IERC1155-setApprovalForAll}."
      },
      "supportsInterface(bytes4)": {
        "details": "See {IERC165-supportsInterface}."
      },
      "totalSupply(uint256)": {
        "details": "Total amount of tokens in with a given id."
      },
      "transferOwnership(address)": {
        "details": "Transfers ownership of the contract to a new account (`newOwner`). Can only be called by the current owner."
      },
      "uri(uint256)": {
        "details": "See {IERC1155MetadataURI-uri}. This implementation returns the same URI for *all* token types. It relies on the token type ID substitution mechanism https://eips.ethereum.org/EIPS/eip-1155#metadata[defined in the EIP]. Clients calling this function must replace the `\\{id\\}` substring with the actual token type ID."
      }
    },
    "version": 1
  },
  "userdoc": {
    "kind": "user",
    "methods": {},
    "version": 1
  },
  "storageLayout": {
    "storage": [
      {
        "astId": 490,
        "contract": "contracts/Hypercerts.sol:Hypercerts",
        "label": "_balances",
        "offset": 0,
        "slot": "0",
        "type": "t_mapping(t_uint256,t_mapping(t_address,t_uint256))"
      },
      {
        "astId": 496,
        "contract": "contracts/Hypercerts.sol:Hypercerts",
        "label": "_operatorApprovals",
        "offset": 0,
        "slot": "1",
        "type": "t_mapping(t_address,t_mapping(t_address,t_bool))"
      },
      {
        "astId": 498,
        "contract": "contracts/Hypercerts.sol:Hypercerts",
        "label": "_uri",
        "offset": 0,
        "slot": "2",
        "type": "t_string_storage"
      },
      {
        "astId": 1860,
        "contract": "contracts/Hypercerts.sol:Hypercerts",
        "label": "_totalSupply",
        "offset": 0,
        "slot": "3",
        "type": "t_mapping(t_uint256,t_uint256)"
      },
      {
        "astId": 359,
        "contract": "contracts/Hypercerts.sol:Hypercerts",
        "label": "_owner",
        "offset": 0,
        "slot": "4",
        "type": "t_address"
      }
    ],
    "types": {
      "t_address": {
        "encoding": "inplace",
        "label": "address",
        "numberOfBytes": "20"
      },
      "t_bool": {
        "encoding": "inplace",
        "label": "bool",
        "numberOfBytes": "1"
      },
      "t_mapping(t_address,t_bool)": {
        "encoding": "mapping",
        "key": "t_address",
        "label": "mapping(address => bool)",
        "numberOfBytes": "32",
        "value": "t_bool"
      },
      "t_mapping(t_address,t_mapping(t_address,t_bool))": {
        "encoding": "mapping",
        "key": "t_address",
        "label": "mapping(address => mapping(address => bool))",
        "numberOfBytes": "32",
        "value": "t_mapping(t_address,t_bool)"
      },
      "t_mapping(t_address,t_uint256)": {
        "encoding": "mapping",
        "key": "t_address",
        "label": "mapping(address => uint256)",
        "numberOfBytes": "32",
        "value": "t_uint256"
      },
      "t_mapping(t_uint256,t_mapping(t_address,t_uint256))": {
        "encoding": "mapping",
        "key": "t_uint256",
        "label": "mapping(uint256 => mapping(address => uint256))",
        "numberOfBytes": "32",
        "value": "t_mapping(t_address,t_uint256)"
      },
      "t_mapping(t_uint256,t_uint256)": {
        "encoding": "mapping",
        "key": "t_uint256",
        "label": "mapping(uint256 => uint256)",
        "numberOfBytes": "32",
        "value": "t_uint256"
      },
      "t_string_storage": {
        "encoding": "bytes",
        "label": "string",
        "numberOfBytes": "32"
      },
      "t_uint256": {
        "encoding": "inplace",
        "label": "uint256",
        "numberOfBytes": "32"
      }
    }
  }
}