{
  "address": "0x0AF8917eaCBf6275EF9C967fD332e6CE16AB181e",
  "abi": [
    {
      "inputs": [
        {
          "internalType": "address",
          "name": "_vrfConsumerAddress",
          "type": "address"
        },
        {
          "internalType": "address",
          "name": "_pushCommAddresspushCommAddress",
          "type": "address"
        },
        {
          "internalType": "address",
          "name": "_hypercertsAddress",
          "type": "address"
        },
        {
          "internalType": "address",
          "name": "_treasury",
          "type": "address"
        }
      ],
      "stateMutability": "nonpayable",
      "type": "constructor"
    },
    {
      "anonymous": false,
      "inputs": [
        {
          "indexed": true,
          "internalType": "address",
          "name": "previousOwner",
          "type": "address"
        },
        {
          "indexed": true,
          "internalType": "address",
          "name": "newOwner",
          "type": "address"
        }
      ],
      "name": "OwnershipTransferred",
      "type": "event"
    },
    {
      "anonymous": false,
      "inputs": [
        {
          "indexed": true,
          "internalType": "uint256",
          "name": "projectId",
          "type": "uint256"
        },
        {
          "indexed": false,
          "internalType": "uint256",
          "name": "amount",
          "type": "uint256"
        },
        {
          "indexed": false,
          "internalType": "uint256[]",
          "name": "projectTime",
          "type": "uint256[]"
        },
        {
          "indexed": false,
          "internalType": "string",
          "name": "info",
          "type": "string"
        },
        {
          "indexed": false,
          "internalType": "uint256",
          "name": "status",
          "type": "uint256"
        },
        {
          "indexed": true,
          "internalType": "address",
          "name": "crowdfunding",
          "type": "address"
        },
        {
          "indexed": true,
          "internalType": "address",
          "name": "evaluation",
          "type": "address"
        },
        {
          "indexed": false,
          "internalType": "address",
          "name": "creator",
          "type": "address"
        }
      ],
      "name": "ProjectCreated",
      "type": "event"
    },
    {
      "inputs": [
        {
          "internalType": "uint256",
          "name": "_amount",
          "type": "uint256"
        },
        {
          "internalType": "uint256",
          "name": "_planning",
          "type": "uint256"
        },
        {
          "internalType": "uint256[]",
          "name": "_projectTime",
          "type": "uint256[]"
        },
        {
          "internalType": "uint256",
          "name": "_evaluationTime",
          "type": "uint256"
        },
        {
          "internalType": "string",
          "name": "_info",
          "type": "string"
        }
      ],
      "name": "createProject",
      "outputs": [],
      "stateMutability": "nonpayable",
      "type": "function"
    },
    {
      "inputs": [],
      "name": "getAllProjects",
      "outputs": [
        {
          "components": [
            {
              "internalType": "uint256",
              "name": "id",
              "type": "uint256"
            },
            {
              "internalType": "uint256",
              "name": "amount",
              "type": "uint256"
            },
            {
              "internalType": "uint256[]",
              "name": "projectTime",
              "type": "uint256[]"
            },
            {
              "internalType": "string",
              "name": "info",
              "type": "string"
            },
            {
              "internalType": "enum status",
              "name": "status",
              "type": "uint8"
            },
            {
              "internalType": "contract Crowdfunding",
              "name": "crowdfunding",
              "type": "address"
            },
            {
              "internalType": "contract Evaluation",
              "name": "evaluation",
              "type": "address"
            },
            {
              "internalType": "address",
              "name": "creator",
              "type": "address"
            }
          ],
          "internalType": "struct NatureLink.Project[]",
          "name": "",
          "type": "tuple[]"
        }
      ],
      "stateMutability": "view",
      "type": "function"
    },
    {
      "inputs": [],
      "name": "hypercerts",
      "outputs": [
        {
          "internalType": "contract IHypercerts",
          "name": "",
          "type": "address"
        }
      ],
      "stateMutability": "view",
      "type": "function"
    },
    {
      "inputs": [
        {
          "internalType": "address",
          "name": "",
          "type": "address"
        }
      ],
      "name": "isUser",
      "outputs": [
        {
          "internalType": "bool",
          "name": "",
          "type": "bool"
        }
      ],
      "stateMutability": "view",
      "type": "function"
    },
    {
      "inputs": [],
      "name": "owner",
      "outputs": [
        {
          "internalType": "address",
          "name": "",
          "type": "address"
        }
      ],
      "stateMutability": "view",
      "type": "function"
    },
    {
      "inputs": [
        {
          "internalType": "address",
          "name": "",
          "type": "address"
        }
      ],
      "name": "portfolios",
      "outputs": [
        {
          "internalType": "uint256",
          "name": "projectIdCounter",
          "type": "uint256"
        }
      ],
      "stateMutability": "view",
      "type": "function"
    },
    {
      "inputs": [],
      "name": "pushComm",
      "outputs": [
        {
          "internalType": "contract IPUSHCommInterface",
          "name": "",
          "type": "address"
        }
      ],
      "stateMutability": "view",
      "type": "function"
    },
    {
      "inputs": [],
      "name": "refundStakesForFailedProjects",
      "outputs": [],
      "stateMutability": "nonpayable",
      "type": "function"
    },
    {
      "inputs": [],
      "name": "renounceOwnership",
      "outputs": [],
      "stateMutability": "nonpayable",
      "type": "function"
    },
    {
      "inputs": [
        {
          "internalType": "address",
          "name": "_creator",
          "type": "address"
        },
        {
          "internalType": "enum status",
          "name": "_newStatus",
          "type": "uint8"
        }
      ],
      "name": "setProjectStatus",
      "outputs": [],
      "stateMutability": "nonpayable",
      "type": "function"
    },
    {
      "inputs": [
        {
          "internalType": "address",
          "name": "_treasury",
          "type": "address"
        }
      ],
      "name": "setTreasury",
      "outputs": [
        {
          "internalType": "address",
          "name": "",
          "type": "address"
        }
      ],
      "stateMutability": "nonpayable",
      "type": "function"
    },
    {
      "inputs": [
        {
          "internalType": "address",
          "name": "newOwner",
          "type": "address"
        }
      ],
      "name": "transferOwnership",
      "outputs": [],
      "stateMutability": "nonpayable",
      "type": "function"
    },
    {
      "inputs": [],
      "name": "treasury",
      "outputs": [
        {
          "internalType": "address",
          "name": "",
          "type": "address"
        }
      ],
      "stateMutability": "view",
      "type": "function"
    },
    {
      "inputs": [
        {
          "internalType": "uint256",
          "name": "",
          "type": "uint256"
        }
      ],
      "name": "users",
      "outputs": [
        {
          "internalType": "address",
          "name": "",
          "type": "address"
        }
      ],
      "stateMutability": "view",
      "type": "function"
    },
    {
      "inputs": [],
      "name": "vrfConsumer",
      "outputs": [
        {
          "internalType": "contract IVRFv2Consumer",
          "name": "",
          "type": "address"
        }
      ],
      "stateMutability": "view",
      "type": "function"
    }
  ],
  "transactionHash": "0x93fa26b4b6c7e87b5ab9aa2b0cce1b6512b90b95e2cb0034e279080e3d890d4e",
  "args": [
    "0xd8E8c551D70E65f6C7a14CB97CFDBf513b8815e7",
    "0x0000000000000000000000000000000000000000",
    "0xe5db450ADdFCAe9748419f1bA9fD9067204DC148",
    "0x0e3E9b9631C114c7a851B299259B5b33837df31B"
  ],
  "numDeployments": 2,
  "solcInputHash": "f8b7dd7c8cf3f8f585245c898affa7c9",
  "bytecode": "0x60e06040523480156200001157600080fd5b5060405162006146380380620061468339810160408190526200003491620000e4565b6200003f3362000077565b6001600160a01b0391821660805292811660a05290811660c052600180546001600160a01b0319169290911691909117905562000141565b600080546001600160a01b038381166001600160a01b0319831681178455604051919092169283917f8be0079c531659141344cd1fd0a4f28419497f9722a3daafe3b4186f6b6457e09190a35050565b80516001600160a01b0381168114620000df57600080fd5b919050565b60008060008060808587031215620000fb57600080fd5b6200010685620000c7565b93506200011660208601620000c7565b92506200012660408601620000c7565b91506200013660608601620000c7565b905092959194509250565b60805160a05160c051615fb2620001946000396000818161026301528181610b620152610be901526000818161011401528181610bc80152610c740152600081816101a70152610b410152615fb26000f3fe60806040523480156200001157600080fd5b5060043610620001095760003560e01c80637baab3da11620000a3578063c76aa072116200006e578063c76aa0721462000285578063c9043165146200029c578063f0f4426014620002a6578063f2fde38b14620002bd57600080fd5b80637baab3da146200020057806380d0382914620002325780638da5cb5b146200024b578063bc61495b146200025d57600080fd5b80635c321ea811620000e45780635c321ea814620001a157806361d027b314620001c957806364f9154214620001dd578063715018a614620001f657600080fd5b80631ef4d1fd146200010e578063365b98b214620001535780634209fff1146200016a575b600080fd5b620001367f000000000000000000000000000000000000000000000000000000000000000081565b6040516001600160a01b0390911681526020015b60405180910390f35b6200013662000164366004620014f6565b620002d4565b620001906200017b36600462001526565b60036020526000908152604090205460ff1681565b60405190151581526020016200014a565b620001367f000000000000000000000000000000000000000000000000000000000000000081565b60015462000136906001600160a01b031681565b620001f4620001ee3660046200154d565b620002ff565b005b620001f46200043d565b620002236200021136600462001526565b60046020526000908152604090205481565b6040519081526020016200014a565b6200023c62000455565b6040516200014a91906200160f565b6000546001600160a01b031662000136565b620001367f000000000000000000000000000000000000000000000000000000000000000081565b620001f462000296366004620017e1565b620007ee565b620001f462001025565b62000136620002b736600462001526565b620012c3565b620001f4620002ce36600462001526565b620012f2565b60028181548110620002e557600080fd5b6000918252602090912001546001600160a01b0316905081565b6001600160a01b038216600090815260046020526040812090805b6001830154811015620003d7576000836001018281548110620003415762000341620018d6565b60009182526020909120600560079092020101546001600160a01b03169050338103620003c15784846001018381548110620003815762000381620018d6565b60009182526020909120600460079092020101805460ff19166001836002811115620003b157620003b1620015d6565b02179055506001925050620003d7565b5080620003ce8162001902565b9150506200031a565b5080620004375760405162461bcd60e51b815260206004820152602360248201527f73657450726f6a6563745374617475733a2050726f6a656374206e6f7420666f6044820152621d5b9960ea1b60648201526084015b60405180910390fd5b50505050565b620004476200136e565b620004536000620013ca565b565b60606000805b600254811015620004cb576004600060028381548110620004805762000480620018d6565b60009182526020808320909101546001600160a01b03168352820192909252604001902060010154620004b490836200191e565b915080620004c28162001902565b9150506200045b565b5060008167ffffffffffffffff811115620004ea57620004ea62001720565b6040519080825280602002602001820160405280156200052757816020015b620005136200141a565b815260200190600190039081620005095790505b506002549091506000036200053c5792915050565b6000805b600254811015620007e55760006004600060028481548110620005675762000567620018d6565b60009182526020808320909101546001600160a01b031683528281019390935260409182018120600101805483518186028101860190945280845292939092919084015b82821015620007575783829060005260206000209060070201604051806101000160405290816000820154815260200160018201548152602001600282018054806020026020016040519081016040528092919081815260200182805480156200063557602002820191906000526020600020905b81548152602001906001019080831162000620575b5050505050815260200160038201805462000650906200193a565b80601f01602080910402602001604051908101604052809291908181526020018280546200067e906200193a565b8015620006cf5780601f10620006a357610100808354040283529160200191620006cf565b820191906000526020600020905b815481529060010190602001808311620006b157829003601f168201915b5050509183525050600482015460209091019060ff166002811115620006f957620006f9620015d6565b60028111156200070d576200070d620015d6565b815260048201546001600160a01b036101009091048116602080840191909152600584015482166040840152600690930154166060909101529082526001929092019101620005ab565b50505050905060005b8151811015620007cd578181815181106200077f576200077f620018d6565b60200260200101518585815181106200079c576200079c620018d6565b60200260200101819052508380620007b49062001902565b9450508080620007c49062001902565b91505062000760565b50508080620007dc9062001902565b91505062000540565b50909392505050565b60008511620008555760405162461bcd60e51b815260206004820152602c60248201527f63726561746550726f6a6563743a20416d6f756e74206d75737420626520677260448201526b06561746572207468616e20360a41b60648201526084016200042e565b428411620008cc5760405162461bcd60e51b815260206004820152603960248201527f63726561746550726f6a6563743a20446561646c696e65206d7573742062652060448201527f67726561746572207468616e2063757272656e742074696d650000000000000060648201526084016200042e565b8251600214620009385760405162461bcd60e51b815260206004820152603060248201527f63726561746550726f6a6563743a2050726f6a6563742074696d65206d75737460448201526f2068617665203220656c656d656e747360801b60648201526084016200042e565b826000815181106200094e576200094e620018d6565b6020026020010151841115620009db5760405162461bcd60e51b815260206004820152604560248201527f63726561746550726f6a6563743a20446561646c696e65206d7573742062652060448201527f6c657373206f7220657175616c207468616e2070726f6a6563742073746172746064820152642074696d6560d81b608482015260a4016200042e565b82600181518110620009f157620009f1620018d6565b6020026020010151836000600181111562000a105762000a10620015d6565b8151811062000a235762000a23620018d6565b60200260200101511062000aae5760405162461bcd60e51b8152602060048201526044602482018190527f63726561746550726f6a6563743a2050726f6a6563742073746172742074696d908201527f65206d757374206265206c657373207468616e2070726f6a65637420656e642060648201526374696d6560e01b608482015260a4016200042e565b336000908152600460205260409020548062000aca8162001902565b3360009081526004602052604081208290559092509050606462000af088600562001976565b62000afc919062001990565b90506000606462000b0f83600a62001976565b62000b1b919062001990565b9050600085905060008984848b33600160009054906101000a90046001600160a01b03167f00000000000000000000000000000000000000000000000000000000000000007f00000000000000000000000000000000000000000000000000000000000000008d60405162000b909062001473565b62000ba499989796959493929190620019b3565b604051809103906000f08015801562000bc1573d6000803e3d6000fd5b50905060007f00000000000000000000000000000000000000000000000000000000000000007f000000000000000000000000000000000000000000000000000000000000000083338d8d8860405162000c1b9062001481565b62000c2d979695949392919062001a5b565b604051809103906000f08015801562000c4a573d6000803e3d6000fd5b50604051632fba153f60e11b81526001600160a01b038083166004830152600160248301529192507f000000000000000000000000000000000000000000000000000000000000000090911690635f742a7e90604401600060405180830381600087803b15801562000cbb57600080fd5b505af115801562000cd0573d6000803e3d6000fd5b5050604051630f5f3c2b60e31b81526001600160a01b03848116600483015285169250637af9e15891506024016020604051808303816000875af115801562000d1d573d6000803e3d6000fd5b505050506040513d601f19601f8201168201806040525081019062000d43919062001ab4565b5060405163f2fde38b60e01b81523060048201526001600160a01b0383169063f2fde38b90602401600060405180830381600087803b15801562000d8657600080fd5b505af115801562000d9b573d6000803e3d6000fd5b505060405163f2fde38b60e01b81523060048201526001600160a01b038416925063f2fde38b9150602401600060405180830381600087803b15801562000de157600080fd5b505af115801562000df6573d6000803e3d6000fd5b5050505060006040518061010001604052808881526020018d81526020018b81526020018981526020016000600281111562000e365762000e36620015d6565b81526001600160a01b038086166020808401919091529085166040808401919091523360609093018390526000928352600390915290205490915060ff1662000ed657336000818152600360205260408120805460ff191660019081179091556002805491820181559091527f405787fa12a823e0f2b7631cc41b3ba8828b3321ca811111fa75cd3aa3bb5ace0180546001600160a01b03191690911790555b3360009081526004602090815260408083206001908101805480830182559085529383902085516007909502019384558483015190840155830151805184939262000f299260028501929101906200148f565b506060820151600382019062000f40908262001b27565b50608082015160048201805460ff1916600183600281111562000f675762000f67620015d6565b021790555060a08201516004820180546001600160a01b0392831661010002610100600160a81b031990911617905560c08301516005830180549183166001600160a01b031992831617905560e090930151600690920180549282169290931691909117909155828116908416887fb547b8943914ca765ec0f833455114c104183e93d66a2cb9ea9f8372f15e32eb8f8e8d6000336040516200100f95949392919062001bf4565b60405180910390a4505050505050505050505050565b60005b600254811015620012c0576000600282815481106200104b576200104b620018d6565b60009182526020808320909101546001600160a01b0316808352600490915260408220909250905b6001820154811015620012a75760008260010182815481106200109a576200109a620018d6565b6000918252602082206007909102019150600482015460ff166002811115620010c757620010c7620015d6565b03620012915760008160040160019054906101000a90046001600160a01b03169050806001600160a01b03166329dcb0cf6040518163ffffffff1660e01b8152600401602060405180830381865afa15801562001128573d6000803e3d6000fd5b505050506040513d601f19601f820116820180604052508101906200114e919062001c46565b42118015620012245750806001600160a01b03166342cde4e86040518163ffffffff1660e01b8152600401602060405180830381865afa15801562001197573d6000803e3d6000fd5b505050506040513d601f19601f82011682018060405250810190620011bd919062001c46565b816001600160a01b03166312065fe06040518163ffffffff1660e01b8152600401602060405180830381865afa158015620011fc573d6000803e3d6000fd5b505050506040513d601f19601f8201168201806040525081019062001222919062001c46565b105b156200128f57806001600160a01b03166338e771ab6040518163ffffffff1660e01b8152600401600060405180830381600087803b1580156200126657600080fd5b505af11580156200127b573d6000803e3d6000fd5b5050505060048201805460ff191660011790555b505b50806200129e8162001902565b91505062001073565b5050508080620012b79062001902565b91505062001028565b50565b6000620012cf6200136e565b50600180546001600160a01b0319166001600160a01b0392909216918217905590565b620012fc6200136e565b6001600160a01b038116620013635760405162461bcd60e51b815260206004820152602660248201527f4f776e61626c653a206e6577206f776e657220697320746865207a65726f206160448201526564647265737360d01b60648201526084016200042e565b620012c081620013ca565b6000546001600160a01b03163314620004535760405162461bcd60e51b815260206004820181905260248201527f4f776e61626c653a2063616c6c6572206973206e6f7420746865206f776e657260448201526064016200042e565b600080546001600160a01b038381166001600160a01b0319831681178455604051919092169283917f8be0079c531659141344cd1fd0a4f28419497f9722a3daafe3b4186f6b6457e09190a35050565b6040518061010001604052806000815260200160008152602001606081526020016060815260200160006002811115620014585762001458620015d6565b81526000602082018190526040820181905260609091015290565b611e778062001c6183390190565b6124a58062003ad883390190565b828054828255906000526020600020908101928215620014cd579160200282015b82811115620014cd578251825591602001919060010190620014b0565b50620014db929150620014df565b5090565b5b80821115620014db5760008155600101620014e0565b6000602082840312156200150957600080fd5b5035919050565b6001600160a01b0381168114620012c057600080fd5b6000602082840312156200153957600080fd5b8135620015468162001510565b9392505050565b600080604083850312156200156157600080fd5b82356200156e8162001510565b91506020830135600381106200158357600080fd5b809150509250929050565b6000815180845260005b81811015620015b65760208185018101518683018201520162001598565b506000602082860101526020601f19601f83011685010191505092915050565b634e487b7160e01b600052602160045260246000fd5b600381106200160b57634e487b7160e01b600052602160045260246000fd5b9052565b60006020808301818452808551808352604092508286019150828160051b8701018488016000805b848110156200171157898403603f1901865282518051855288810151898601528781015161010089870181905281519087018190526101208701918b019085905b808210156200169a5782518452928c0192918c01916001919091019062001678565b50505060608083015187830382890152620016b683826200158e565b92505050608080830151620016ce82890182620015ec565b505060a0828101516001600160a01b039081169188019190915260c08084015182169088015260e092830151169190950152948701949187019160010162001637565b50919998505050505050505050565b634e487b7160e01b600052604160045260246000fd5b604051601f8201601f1916810167ffffffffffffffff8111828210171562001762576200176262001720565b604052919050565b600082601f8301126200177c57600080fd5b813567ffffffffffffffff81111562001799576200179962001720565b620017ae601f8201601f191660200162001736565b818152846020838601011115620017c457600080fd5b816020850160208301376000918101602001919091529392505050565b600080600080600060a08688031215620017fa57600080fd5b853594506020808701359450604087013567ffffffffffffffff808211156200182257600080fd5b818901915089601f8301126200183757600080fd5b8135818111156200184c576200184c62001720565b8060051b6200185d85820162001736565b918252838101850191858101908d8411156200187857600080fd5b948601945b8386101562001898578535825294860194908601906200187d565b9850505050606089013594506080890135925080831115620018b957600080fd5b5050620018c9888289016200176a565b9150509295509295909350565b634e487b7160e01b600052603260045260246000fd5b634e487b7160e01b600052601160045260246000fd5b600060018201620019175762001917620018ec565b5060010190565b80820180821115620019345762001934620018ec565b92915050565b600181811c908216806200194f57607f821691505b6020821081036200197057634e487b7160e01b600052602260045260246000fd5b50919050565b8082028115828204841417620019345762001934620018ec565b600082620019ae57634e487b7160e01b600052601260045260246000fd5b500490565b8981526020810189905260408101889052606081018790526001600160a01b03868116608083015285811660a083015284811660c0830152831660e0820152610120610100820181905260009062001a0e838201856200158e565b9c9b505050505050505050505050565b600081518084526020808501945080840160005b8381101562001a505781518752958201959082019060010162001a32565b509495945050505050565b6001600160a01b03888116825287811660208301528681166040830152851660608201526080810184905260e060a0820181905260009062001aa09083018562001a1e565b90508260c083015298975050505050505050565b60006020828403121562001ac757600080fd5b8151620015468162001510565b601f82111562001b2257600081815260208120601f850160051c8101602086101562001afd5750805b601f850160051c820191505b8181101562001b1e5782815560010162001b09565b5050505b505050565b815167ffffffffffffffff81111562001b445762001b4462001720565b62001b5c8162001b5584546200193a565b8462001ad4565b602080601f83116001811462001b94576000841562001b7b5750858301515b600019600386901b1c1916600185901b17855562001b1e565b600085815260208120601f198616915b8281101562001bc55788860151825594840194600190910190840162001ba4565b508582101562001be45787850151600019600388901b60f8161c191681555b5050505050600190811b01905550565b85815260a06020820152600062001c0f60a083018762001a1e565b828103604084015262001c2381876200158e565b606084019590955250506001600160a01b03919091166080909101529392505050565b60006020828403121562001c5957600080fd5b505191905056fe60806040526000805461ffff60a01b1916600160a01b1790553480156200002557600080fd5b5060405162001e7738038062001e77833981016040819052620000489162000251565b6200005333620001ce565b60008911620000cf5760405162461bcd60e51b815260206004820152603660248201527f636f6e7374727563746f7243726f776466756e64696e673a20616d6f756e742060448201527f6d7573742062652067726561746572207468616e20300000000000000000000060648201526084015b60405180910390fd5b428611620001525760405162461bcd60e51b815260206004820152604360248201527f636f6e7374727563746f7243726f776466756e64696e673a20646561646c696e60448201527f65206d7573742062652067726561746572207468616e2063757272656e742074606482015262696d6560e81b608482015260a401620000c6565b6002899055600388905560048790556001869055600980546001600160a01b038088166001600160a01b031992831617909255600a8054878416908316179055600680548684169083161790556008805492851692909116919091179055600c620001be82826200042b565b50505050505050505050620004f7565b600080546001600160a01b038381166001600160a01b0319831681178455604051919092169283917f8be0079c531659141344cd1fd0a4f28419497f9722a3daafe3b4186f6b6457e09190a35050565b80516001600160a01b03811681146200023657600080fd5b919050565b634e487b7160e01b600052604160045260246000fd5b60008060008060008060008060006101208a8c0312156200027157600080fd5b8951985060208a0151975060408a0151965060608a015195506200029860808b016200021e565b9450620002a860a08b016200021e565b9350620002b860c08b016200021e565b9250620002c860e08b016200021e565b6101008b01519092506001600160401b0380821115620002e757600080fd5b818c0191508c601f830112620002fc57600080fd5b8151818111156200031157620003116200023b565b604051601f8201601f19908116603f011681019083821181831017156200033c576200033c6200023b565b816040528281528f60208487010111156200035657600080fd5b600093505b828410156200037e5760208486010151602085830101526020840193506200035b565b60006020848301015280955050505050509295985092959850929598565b600181811c90821680620003b157607f821691505b602082108103620003d257634e487b7160e01b600052602260045260246000fd5b50919050565b601f8211156200042657600081815260208120601f850160051c81016020861015620004015750805b601f850160051c820191505b8181101562000422578281556001016200040d565b5050505b505050565b81516001600160401b038111156200044757620004476200023b565b6200045f816200045884546200039c565b84620003d8565b602080601f8311600181146200049757600084156200047e5750858301515b600019600386901b1c1916600185901b17855562000422565b600085815260208120601f198616915b82811015620004c857888601518255948401946001909101908401620004a7565b5085821015620004e75787850151600019600388901b60f8161c191681555b5050505050600190811b01905550565b61197080620005076000396000f3fe6080604052600436106101d15760003560e01c80636b1a91ee116100f7578063bc197c8111610095578063ddca3f4311610064578063ddca3f431461054b578063f23a6e6114610561578063f2fde38b146105a7578063fd5e6dd1146105c757600080fd5b8063bc197c8114610495578063bc61495b146104f6578063bfb29f3714610516578063c5f956af1461052b57600080fd5b80638da5cb5b116100d15780638da5cb5b1461042a578063943dfef1146104485780639876a6431461045e57806398bdf6f51461047f57600080fd5b80636b1a91ee146103d4578063715018a6146103f55780637af9e1581461040a57600080fd5b80632af5c9191161016f57806342cde4e81161013e57806342cde4e81461036757806343352d611461037d5780635c321ea81461039f57806361461954146103bf57600080fd5b80632af5c91914610308578063370158ea1461032857806338e771ab1461034a5780633a4b66f11461035f57600080fd5b80631300a6d1116101ab5780631300a6d1146102805780631d0d35f51461029557806327e235e3146102c557806329dcb0cf146102f257600080fd5b806301ffc9a7146101e557806302d05d3f1461022b57806312065fe01461026357600080fd5b366101e0576101de6105e7565b005b600080fd5b3480156101f157600080fd5b50610216610200366004611399565b6001600160e01b031916630271189760e51b1490565b60405190151581526020015b60405180910390f35b34801561023757600080fd5b5060095461024b906001600160a01b031681565b6040516001600160a01b039091168152602001610222565b34801561026f57600080fd5b50475b604051908152602001610222565b34801561028c57600080fd5b50610272610895565b3480156102a157600080fd5b506102166102b03660046113da565b600e6020526000908152604090205460ff1681565b3480156102d157600080fd5b506102726102e03660046113da565b600d6020526000908152604090205481565b3480156102fe57600080fd5b5061027260015481565b34801561031457600080fd5b5060075461024b906001600160a01b031681565b34801561033457600080fd5b5061033d6108ba565b604051610222919061143b565b34801561035657600080fd5b506101de610948565b6101de6105e7565b34801561037357600080fd5b5061027260025481565b34801561038957600080fd5b50610392610af7565b604051610222919061144e565b3480156103ab57600080fd5b5060065461024b906001600160a01b031681565b3480156103cb57600080fd5b506101de610b59565b3480156103e057600080fd5b5060005461021690600160a01b900460ff1681565b34801561040157600080fd5b506101de6111c4565b34801561041657600080fd5b5061024b6104253660046113da565b6111d8565b34801561043657600080fd5b506000546001600160a01b031661024b565b34801561045457600080fd5b5061027260035481565b34801561046a57600080fd5b5060005461021690600160a81b900460ff1681565b34801561048b57600080fd5b5061027260055481565b3480156104a157600080fd5b506104dd6104b0366004611529565b7fbc197c819b3e337a6f9652dd10becd7eef83032af3b9d958d3d42f669414662198975050505050505050565b6040516001600160e01b03199091168152602001610222565b34801561050257600080fd5b5060085461024b906001600160a01b031681565b34801561052257600080fd5b50610272611207565b34801561053757600080fd5b50600a5461024b906001600160a01b031681565b34801561055757600080fd5b5061027260045481565b34801561056d57600080fd5b506104dd61057c3660046115e4565b7ff23a6e612e1ff4830e658fe43f4e3cb4a5f8170bd5d9e69fb5d7a7fa9e4fdf979695505050505050565b3480156105b357600080fd5b506101de6105c23660046113da565b611217565b3480156105d357600080fd5b5061024b6105e236600461165c565b61128d565b6009546001600160a01b031633036106465760405162461bcd60e51b815260206004820152601f60248201527f7374616b653a207468652063726561746f722063616e6e6f74207374616b650060448201526064015b60405180910390fd5b600054600160a01b900460ff1661069f5760405162461bcd60e51b815260206004820152601b60248201527f7374616b653a20746865207374616b657220697320636c6f7365640000000000604482015260640161063d565b60015442106106f05760405162461bcd60e51b815260206004820152601d60248201527f7374616b653a20746865207374616b652074696d65206973206f766572000000604482015260640161063d565b600034116107535760405162461bcd60e51b815260206004820152602a60248201527f7374616b653a207374616b6520616d6f756e74206d75737420626520677265616044820152690746572207468616e20360b41b606482015260840161063d565b6002544711156107a55760405162461bcd60e51b815260206004820152601d60248201527f7374616b653a20657863656564656420746865207468726573686f6c64000000604482015260640161063d565b60025447036107c3576000805461ffff60a01b1916600160a81b1790555b336000908152600e602052604090205460ff1661083757336000818152600e60205260408120805460ff19166001908117909155600b805491820181559091527f0175b7a638427703f0dbe7bb9bbf987a2551717b34e79f33b5b1008d1fa01db90180546001600160a01b03191690911790555b336000908152600d60205260408120805434929061085690849061168b565b9091555050604080513381523460208201527febedb8b3c678666e7f36970bc8f57abf6d8fa2e828c0da91ea5b75bf68ed101a910160405180910390a1565b60006001544210156108b457426001546108af91906116a4565b905090565b50600090565b600c80546108c7906116b7565b80601f01602080910402602001604051908101604052809291908181526020018280546108f3906116b7565b80156109405780601f1061091557610100808354040283529160200191610940565b820191906000526020600020905b81548152906001019060200180831161092357829003601f168201915b505050505081565b60025447106109a45760405162461bcd60e51b815260206004820152602260248201527f43726f776466756e64696e673a204e6f20726566756e647320617661696c61626044820152616c6560f01b606482015260840161063d565b60005b600b54811015610af4576000600b82815481106109c6576109c66116f1565b60009182526020808320909101546001600160a01b0316808352600d9091526040909120549091508015610adf576001600160a01b0382166000818152600d60205260408082208290555190919083908381818185875af1925050503d8060008114610a4e576040519150601f19603f3d011682016040523d82523d6000602084013e610a53565b606091505b5050905080610a9b5760405162461bcd60e51b81526020600482015260146024820152732330b4b632b2103a379039b2b7321022ba3432b960611b604482015260640161063d565b604080516001600160a01b0385168152602081018490527f884edad9ce6fa2440d8a54cc123490eb96d2768479d49ff9c7366125a9424364910160405180910390a1505b50508080610aec90611707565b9150506109a7565b50565b6060600b805480602002602001604051908101604052809291908181526020018280548015610b4f57602002820191906000526020600020905b81546001600160a01b03168152600190910190602001808311610b31575b5050505050905090565b6009546001600160a01b03163314610bc25760405162461bcd60e51b815260206004820152602660248201527f6f6e6c7943726561746f723a2063616c6c6572206973206e6f742074686520636044820152653932b0ba37b960d11b606482015260840161063d565b600054600160a81b900460ff16610c1b5760405162461bcd60e51b815260206004820152601f60248201527f657865637574653a2074686520776974686472617720697320636c6f73656400604482015260640161063d565b600154421015610c795760405162461bcd60e51b8152602060048201526024808201527f657865637574653a2074686520646561646c696e6520686173206e6f742070616044820152631cdcd95960e21b606482015260840161063d565b6002544714610cda5760405162461bcd60e51b815260206004820152602760248201527f657865637574653a20746865207468726573686f6c6420686173206e6f74206260448201526619595b881b595d60ca1b606482015260840161063d565b6007546040805163e141480d60e01b815290516000926001600160a01b03169163e141480d916004808301926020929190829003018187875af1158015610d25573d6000803e3d6000fd5b505050506040513d601f19601f82011682018060405250810190610d499190611720565b905080610da45760405162461bcd60e51b8152602060048201526024808201527f657865637574653a206661696c656420746f2073656c656374206576616c7561604482015263746f727360e01b606482015260840161063d565b600b5460009067ffffffffffffffff811115610dc257610dc2611742565b604051908082528060200260200182016040528015610deb578160200160208202803683370190505b50905060005b600b54811015610e65576000600b8281548110610e1057610e106116f1565b60009182526020822001546001600160a01b03169150610e2f826112b7565b905080848481518110610e4457610e446116f1565b60200260200101818152505050508080610e5d90611707565b915050610df1565b50600654600554604080516000808252602082019283905263c1341c4f60e01b90925290926001600160a01b03169163c1341c4f91610eae913091606490600c60248201611758565b6020604051808303816000875af1158015610ecd573d6000803e3d6000fd5b505050506040513d601f19601f82011682018060405250810190610ef19190611836565b600580549192506000610f0383611707565b90915550506006546040805160008152602081019182905263864c1cd960e01b9091526001600160a01b039091169063864c1cd990610f4e903090600b90869088906024810161184f565b600060405180830381600087803b158015610f6857600080fd5b505af1158015610f7c573d6000803e3d6000fd5b5050600a54600454604051600094506001600160a01b039092169250908381818185875af1925050503d8060008114610fd1576040519150601f19603f3d011682016040523d82523d6000602084013e610fd6565b606091505b50509050806110395760405162461bcd60e51b815260206004820152602960248201527f657865637574653a206661696c656420746f2073656e6420657468657220746f60448201526820747265617375727960b81b606482015260840161063d565b600060045460035461104b91906116a4565b6007546040519192506000916001600160a01b039091169083908381818185875af1925050503d806000811461109d576040519150601f19603f3d011682016040523d82523d6000602084013e6110a2565b606091505b50509050806111075760405162461bcd60e51b815260206004820152602b60248201527f657865637574653a206661696c656420746f2073656e6420657468657220746f60448201526a1032bb30b63ab0ba34b7b760a91b606482015260840161063d565b604051600090339047908381818185875af1925050503d8060008114611149576040519150601f19603f3d011682016040523d82523d6000602084013e61114e565b606091505b50509050806111ae5760405162461bcd60e51b815260206004820152602660248201527f657865637574653a206661696c656420746f2073656e6420657468657220746f6044820152651037bbb732b960d11b606482015260840161063d565b50506000805460ff60a81b191690555050505050565b6111cc6112ef565b6111d66000611349565b565b60006111e26112ef565b50600780546001600160a01b0319166001600160a01b0383169081179091555b919050565b6000476002546108af91906116a4565b61121f6112ef565b6001600160a01b0381166112845760405162461bcd60e51b815260206004820152602660248201527f4f776e61626c653a206e6577206f776e657220697320746865207a65726f206160448201526564647265737360d01b606482015260840161063d565b610af481611349565b600b818154811061129d57600080fd5b6000918252602090912001546001600160a01b0316905081565b6001600160a01b0381166000908152600d60205260408120546002546112de826064611901565b6112e89190611918565b9392505050565b6000546001600160a01b031633146111d65760405162461bcd60e51b815260206004820181905260248201527f4f776e61626c653a2063616c6c6572206973206e6f7420746865206f776e6572604482015260640161063d565b600080546001600160a01b038381166001600160a01b0319831681178455604051919092169283917f8be0079c531659141344cd1fd0a4f28419497f9722a3daafe3b4186f6b6457e09190a35050565b6000602082840312156113ab57600080fd5b81356001600160e01b0319811681146112e857600080fd5b80356001600160a01b038116811461120257600080fd5b6000602082840312156113ec57600080fd5b6112e8826113c3565b6000815180845260005b8181101561141b576020818501810151868301820152016113ff565b506000602082860101526020601f19601f83011685010191505092915050565b6020815260006112e860208301846113f5565b6020808252825182820181905260009190848201906040850190845b8181101561148f5783516001600160a01b03168352928401929184019160010161146a565b50909695505050505050565b60008083601f8401126114ad57600080fd5b50813567ffffffffffffffff8111156114c557600080fd5b6020830191508360208260051b85010111156114e057600080fd5b9250929050565b60008083601f8401126114f957600080fd5b50813567ffffffffffffffff81111561151157600080fd5b6020830191508360208285010111156114e057600080fd5b60008060008060008060008060a0898b03121561154557600080fd5b61154e896113c3565b975061155c60208a016113c3565b9650604089013567ffffffffffffffff8082111561157957600080fd5b6115858c838d0161149b565b909850965060608b013591508082111561159e57600080fd5b6115aa8c838d0161149b565b909650945060808b01359150808211156115c357600080fd5b506115d08b828c016114e7565b999c989b5096995094979396929594505050565b60008060008060008060a087890312156115fd57600080fd5b611606876113c3565b9550611614602088016113c3565b94506040870135935060608701359250608087013567ffffffffffffffff81111561163e57600080fd5b61164a89828a016114e7565b979a9699509497509295939492505050565b60006020828403121561166e57600080fd5b5035919050565b634e487b7160e01b600052601160045260246000fd5b8082018082111561169e5761169e611675565b92915050565b8181038181111561169e5761169e611675565b600181811c908216806116cb57607f821691505b6020821081036116eb57634e487b7160e01b600052602260045260246000fd5b50919050565b634e487b7160e01b600052603260045260246000fd5b60006001820161171957611719611675565b5060010190565b60006020828403121561173257600080fd5b815180151581146112e857600080fd5b634e487b7160e01b600052604160045260246000fd5b60018060a01b038616815260006020868184015285604084015260a0606084015261178660a08401866113f5565b83810360808501528454600090600181811c90808316806117a857607f831692505b86831081036117c557634e487b7160e01b85526022600452602485fd5b8286526020860195508080156117e257600181146117f857611823565b60ff198516875283151560051b87019550611823565b60008b81526020902060005b8581101561181d57815489820152908401908901611804565b88019650505b50939d9c50505050505050505050505050565b60006020828403121561184857600080fd5b5051919050565b600060a0820160018060a01b038089168452602060a08186015282895480855260c0870191508a60005282600020945060005b818110156118a0578554851683526001958601959284019201611882565b505060408601899052858103606087015287518082529082019350915080870160005b838110156118df578151855293820193908201906001016118c3565b5050505082810360808401526118f581856113f5565b98975050505050505050565b808202811582820484141761169e5761169e611675565b60008261193557634e487b7160e01b600052601260045260246000fd5b50049056fea2646970667358221220bb1554d32c0885fb5b6ea4e234f0896bf376446ad859f83f92624604831a4b2964736f6c6343000814003360806040526000805460ff60a01b1916600160a01b1790553480156200002457600080fd5b50604051620024a5380380620024a58339810160408190526200004791620001c1565b6200005233620000d7565b600780546001600160a01b03808a166001600160a01b0319928316179092556008805489841690831617905560098054928816929091169190911790558151620000a490600590602085019062000127565b5060035550600680546001600160a01b0319166001600160a01b03939093169290921790915560025550620002eb915050565b600080546001600160a01b038381166001600160a01b0319831681178455604051919092169283917f8be0079c531659141344cd1fd0a4f28419497f9722a3daafe3b4186f6b6457e09190a35050565b82805482825590600052602060002090810192821562000165579160200282015b828111156200016557825182559160200191906001019062000148565b506200017392915062000177565b5090565b5b8082111562000173576000815560010162000178565b80516001600160a01b0381168114620001a657600080fd5b919050565b634e487b7160e01b600052604160045260246000fd5b600080600080600080600060e0888a031215620001dd57600080fd5b620001e8886200018e565b96506020620001f9818a016200018e565b96506200020960408a016200018e565b95506200021960608a016200018e565b60808a015160a08b015191965094506001600160401b03808211156200023e57600080fd5b818b0191508b601f8301126200025357600080fd5b815181811115620002685762000268620001ab565b8060051b604051601f19603f83011681018181108582111715620002905762000290620001ab565b60405291825284820192508381018501918e831115620002af57600080fd5b938501935b82851015620002cf57845184529385019392850192620002b4565b80975050505050505060c0880151905092959891949750929550565b6121aa80620002fb6000396000f3fe6080604052600436106101bb5760003560e01c80638422a2f2116100ec578063bc61495b1161008a578063e141480d11610064578063e141480d1461057e578063e168afe314610593578063f2fde38b146105b3578063f3ad1535146105d357600080fd5b8063bc61495b1461051c578063c0840f561461053c578063c201c9f71461055e57600080fd5b806392ceecf1116100c657806392ceecf1146104b9578063943dfef1146104cf578063a77e0987146104e5578063aa209e7c1461050757600080fd5b80638422a2f21461043f57806384e08ab61461047b5780638da5cb5b1461049b57600080fd5b806329dcb0cf1161015957806367ecb10f1161013357806367ecb10f146103be5780636a5d498c146103f5578063715018a61461040a5780637ed2492a1461041f57600080fd5b806329dcb0cf1461036857806356885cd81461037e5780635ac9d2c41461039e57600080fd5b80631ef4d1fd116101955780631ef4d1fd146102d4578063214eafd4146102f4578063222743a21461031457806325b2564a1461034457600080fd5b806302d05d3f146102365780630cf9af03146102735780631b561cf9146102a457600080fd5b36610231576009546001600160a01b0316331461022f5760405162461bcd60e51b815260206004820152602760248201527f72656365697665723a204e6f74207468652063726f776466756e64696e6720636044820152661bdb9d1c9858dd60ca1b60648201526084015b60405180910390fd5b005b600080fd5b34801561024257600080fd5b50600654610256906001600160a01b031681565b6040516001600160a01b0390911681526020015b60405180910390f35b34801561027f57600080fd5b5060005461029490600160a01b900460ff1681565b604051901515815260200161026a565b3480156102b057600080fd5b506102946102bf366004611a87565b600f6020526000908152604090205460ff1681565b3480156102e057600080fd5b50600754610256906001600160a01b031681565b34801561030057600080fd5b5061022f61030f366004611b14565b6105f5565b34801561032057600080fd5b5061029461032f366004611a87565b60106020526000908152604090205460ff1681565b34801561035057600080fd5b5061035a60045481565b60405190815260200161026a565b34801561037457600080fd5b5061035a60025481565b34801561038a57600080fd5b50600954610256906001600160a01b031681565b3480156103aa57600080fd5b506102566103b9366004611bb1565b6106d0565b3480156103ca57600080fd5b506103de6103d9366004611bb1565b6106fa565b60408051921515835290151560208301520161026a565b34801561040157600080fd5b5061022f61072f565b34801561041657600080fd5b5061022f610862565b34801561042b57600080fd5b5061022f61043a366004611c47565b610876565b34801561044b57600080fd5b506103de61045a366004611a87565b600e6020526000908152604090206001015460ff8082169161010090041682565b34801561048757600080fd5b5061022f610496366004611ccc565b610fb2565b3480156104a757600080fd5b506000546001600160a01b0316610256565b3480156104c557600080fd5b5061035a60035481565b3480156104db57600080fd5b5061035a60015481565b3480156104f157600080fd5b506104fa61112a565b60405161026a9190611d85565b34801561051357600080fd5b5061022f6111b8565b34801561052857600080fd5b50600854610256906001600160a01b031681565b34801561054857600080fd5b5061055161139a565b60405161026a9190611df5565b34801561056a57600080fd5b5061035a610579366004611bb1565b6115c5565b34801561058a57600080fd5b506102946115e6565b34801561059f57600080fd5b506102566105ae366004611bb1565b611755565b3480156105bf57600080fd5b5061022f6105ce366004611a87565b611765565b3480156105df57600080fd5b506105e86117db565b60405161026a9190611e95565b6007546001600160a01b031633146106635760405162461bcd60e51b815260206004820152602b60248201527f73657453656c65637465644576616c7561746f72733a204e6f7420746865205660448201526a14918818dbdb9d1c9858dd60aa1b6064820152608401610226565b60005b8151811015610681578061067981611ef8565b915050610666565b50805161069590600a906020840190611903565b507ffd35f96279e550a2cd0fa660d841f96151fb8e2f8fdded9e10f8865219543306816040516106c59190611e95565b60405180910390a150565b600a81815481106106e057600080fd5b6000918252602090912001546001600160a01b0316905081565b600c818154811061070a57600080fd5b600091825260209091206001600390920201015460ff80821692506101009091041682565b60025442106107965760405162461bcd60e51b815260206004820152602d60248201527f6265636f6d654576616c7561746f723a207468652073656c656374696f6e207060448201526c32b934b7b21034b99037bb32b960991b6064820152608401610226565b336000908152600f602052604090205460ff16156108045760405162461bcd60e51b815260206004820152602560248201527f6265636f6d654576616c7561746f723a20416c726561647920616e206576616c6044820152643ab0ba37b960d91b6064820152608401610226565b336000818152600f60205260408120805460ff19166001908117909155600b805491820181559091527f0175b7a638427703f0dbe7bb9bbf987a2551717b34e79f33b5b1008d1fa01db90180546001600160a01b0319169091179055565b61086a61183d565b6108746000611897565b565b600054600160a01b900460ff166108e75760405162461bcd60e51b815260206004820152602f60248201527f6576616c7561746545766964656e63653a20546865206576616c756174696f6e60448201526e103832b934b7b21034b99037bb32b960891b6064820152608401610226565b600254421180156108f9575060035442105b6109605760405162461bcd60e51b815260206004820152603260248201527f6576616c7561746545766964656e63653a205468652073656c656374696f6e206044820152713832b934b7b21034b9903737ba1037bb32b960711b6064820152608401610226565b83516003146109c05760405162461bcd60e51b815260206004820152602660248201527f6576616c7561746545766964656e63653a2054686520696d6167657320617265604482015265206e6f74203360d01b6064820152608401610226565b8051600314610a1f5760405162461bcd60e51b815260206004820152602560248201527f6576616c7561746545766964656e63653a20546865206c696e6b7320617265206044820152646e6f74203360d81b6064820152608401610226565b610acb60405180602001604052806000815250600d8054610a3f90611f11565b80601f0160208091040260200160405190810160405280929190818152602001828054610a6b90611f11565b8015610ab85780601f10610a8d57610100808354040283529160200191610ab8565b820191906000526020600020905b815481529060010190602001808311610a9b57829003601f168201915b50505050506118e790919063ffffffff16565b15610b285760405162461bcd60e51b815260206004820152602760248201527f6576616c7561746545766964656e63653a205468652065766964656e636520696044820152667320656d70747960c81b6064820152608401610226565b336000908152600f602052604090205460ff16610b925760405162461bcd60e51b815260206004820152602260248201527f6576616c7561746545766964656e63653a204e6f7420616e206576616c75617460448201526137b960f11b6064820152608401610226565b3360009081526010602052604090205460ff1615610bfe5760405162461bcd60e51b815260206004820152602360248201527f6576616c7561746545766964656e63653a20416c7265616479206576616c75616044820152621d195960ea1b6064820152608401610226565b604080516080810182528581528415156020808301919091528415158284015260608201849052336000908152600e8252929092208151805192939192610c489284920190611968565b50602082810151600183018054604086015115156101000261ff00199315159390931661ffff199091161791909117905560608301518051610c909260028501920190611968565b5050336000908152601060209081526040808320805460ff19166001908117909155600e9092528220600c8054928301815590925281549192506003027fdf6966c971051c3d54ec59162606531493a51404a002842f56009d7e5cf4a8c70190610cfd9082908490611a08565b5060018281018054918301805460ff938416151560ff19821681178355925461010090819004909416151590930261ff001990921661ffff199093169290921717905560028083018054610d549284019190611a08565b50506004805491506000610d6783611ef8565b9190505550600454600303610fac5760005b600a54811015610e90576000600a8281548110610d9857610d98611f45565b6000918252602090912001546001546001600160a01b0390911690610dbf90600390611f5b565b604051600081818185875af1925050503d8060008114610dfb576040519150601f19603f3d011682016040523d82523d6000602084013e610e00565b606091505b5050905080610e5b5760405162461bcd60e51b815260206004820152602160248201527f6576616c7561746545766964656e63653a205472616e73666572206661696c656044820152601960fa1b6064820152608401610226565b336001600160a01b0316600a8381548110610e7857610e78611f45565b50600052505080610e8881611ef8565b915050610d79565b50600080546001600160a01b03166006546040516001600160a01b0391821660248201526002604482015291169060640160408051601f198184030181529181526020820180516001600160e01b031663327c8aa160e11b17905251610ef69190611f7d565b6000604051808303816000865af19150503d8060008114610f33576040519150601f19603f3d011682016040523d82523d6000602084013e610f38565b606091505b5050905080610f9d5760405162461bcd60e51b815260206004820152602b60248201527f6576616c7561746545766964656e63653a205365742070726f6a65637420737460448201526a185d1d5cc819985a5b195960aa1b6064820152608401610226565b506000805460ff60a01b191690555b50505050565b6006546001600160a01b0316331461101b5760405162461bcd60e51b815260206004820152602660248201527f6f6e6c7943726561746f723a2063616c6c6572206973206e6f742074686520636044820152653932b0ba37b960d11b6064820152608401610226565b600560018154811061102f5761102f611f45565b90600052602060002001544210156110945760405162461bcd60e51b815260206004820152602260248201527f73657445766964656e63653a205468652070726f6a6563742068617320656e64604482015261195960f21b6064820152608401610226565b60035442106110fa5760405162461bcd60e51b815260206004820152602c60248201527f73657445766964656e63653a20546865206576616c756174696f6e207065726960448201526b1bd9081a185cc8195b99195960a21b6064820152608401610226565b60005b600a54811015611119578061111181611ef8565b9150506110fd565b50600d6111268282611fe8565b5050565b600d805461113790611f11565b80601f016020809104026020016040519081016040528092919081815260200182805461116390611f11565b80156111b05780601f10611185576101008083540402835291602001916111b0565b820191906000526020600020905b81548152906001019060200180831161119357829003601f168201915b505050505081565b600254421061121d5760405162461bcd60e51b815260206004820152602b60248201527f6c6566744576616c7561746f723a207468652073656c656374696f6e2070657260448201526a34b7b21034b99037bb32b960a91b6064820152608401610226565b336000908152600f602052604090205460ff1661127c5760405162461bcd60e51b815260206004820152601f60248201527f6c6566744576616c7561746f723a204e6f7420616e206576616c7561746f72006044820152606401610226565b336000908152600f60205260408120805460ff191690555b600b5481101561139757336001600160a01b0316600b82815481106112bb576112bb611f45565b6000918252602090912001546001600160a01b03160361138557600b80546112e5906001906120a8565b815481106112f5576112f5611f45565b600091825260209091200154600b80546001600160a01b03909216918390811061132157611321611f45565b9060005260206000200160006101000a8154816001600160a01b0302191690836001600160a01b03160217905550600b805480611360576113606120bb565b600082815260209020810160001990810180546001600160a01b031916905501905550565b8061138f81611ef8565b915050611294565b50565b600b5460609060009067ffffffffffffffff8111156113bb576113bb611aa9565b60405190808252806020026020018201604052801561141b57816020015b611408604051806080016040528060608152602001600015158152602001600015158152602001606081525090565b8152602001906001900390816113d95790505b50600b5490915060000361142e57919050565b60005b600b548110156115bf57600e6000600b838154811061145257611452611f45565b60009182526020808320909101546001600160a01b0316835282810193909352604091820190208151815460a094810282018501909352608081018381529093919284928491908401828280156114e857602002820191906000526020600020906000905b825461010083900a900460ff1615158152602060019283018181049485019490930390920291018084116114b75790505b5050509183525050600182015460ff8082161515602080850191909152610100909204161515604080840191909152600284018054825181850281018501909352808352606090940193919290919083018282801561158657602002820191906000526020600020906000905b825461010083900a900460ff1615158152602060019283018181049485019490930390920291018084116115555790505b5050505050815250508282815181106115a1576115a1611f45565b602002602001018190525080806115b790611ef8565b915050611431565b50919050565b600581815481106115d557600080fd5b600091825260209091200154905081565b6009546000906001600160a01b0316331461165b5760405162461bcd60e51b815260206004820152602f60248201527f73656c6563744576616c7561746f72733a204e6f74207468652063726f77646660448201526e1d5b991a5b99c818dbdb9d1c9858dd608a1b6064820152608401610226565b600b54600310156116e757600754604051630a6fba9f60e31b81526001600160a01b039091169063537dd4f89061169c906003903090600b9060040161210f565b6020604051808303816000875af11580156116bb573d6000803e3d6000fd5b505050506040513d601f19601f820116820180604052508101906116df9190612148565b506001905090565b600b5460030361174f5760005b600a54811015611710578061170881611ef8565b9150506116f4565b507ffd35f96279e550a2cd0fa660d841f96151fb8e2f8fdded9e10f8865219543306600b6040516117419190612161565b60405180910390a150600190565b50600090565b600b81815481106106e057600080fd5b61176d61183d565b6001600160a01b0381166117d25760405162461bcd60e51b815260206004820152602660248201527f4f776e61626c653a206e6577206f776e657220697320746865207a65726f206160448201526564647265737360d01b6064820152608401610226565b61139781611897565b6060600a80548060200260200160405190810160405280929190818152602001828054801561183357602002820191906000526020600020905b81546001600160a01b03168152600190910190602001808311611815575b5050505050905090565b6000546001600160a01b031633146108745760405162461bcd60e51b815260206004820181905260248201527f4f776e61626c653a2063616c6c6572206973206e6f7420746865206f776e65726044820152606401610226565b600080546001600160a01b038381166001600160a01b0319831681178455604051919092169283917f8be0079c531659141344cd1fd0a4f28419497f9722a3daafe3b4186f6b6457e09190a35050565b6000818051906020012083805190602001201490505b92915050565b828054828255906000526020600020908101928215611958579160200282015b8281111561195857825182546001600160a01b0319166001600160a01b03909116178255602090920191600190910190611923565b50611964929150611a56565b5090565b82805482825590600052602060002090601f016020900481019282156119585791602002820160005b838211156119ce57835183826101000a81548160ff0219169083151502179055509260200192600101602081600001049283019260010302611991565b80156119fb5782816101000a81549060ff02191690556001016020816000010492830192600103026119ce565b5050611964929150611a56565b82805482825590600052602060002090601f0160209004810192821561195857600052602060002091601f016020900482015b82811115611958578254825591600101919060010190611a3b565b5b808211156119645760008155600101611a57565b80356001600160a01b0381168114611a8257600080fd5b919050565b600060208284031215611a9957600080fd5b611aa282611a6b565b9392505050565b634e487b7160e01b600052604160045260246000fd5b604051601f8201601f1916810167ffffffffffffffff81118282101715611ae857611ae8611aa9565b604052919050565b600067ffffffffffffffff821115611b0a57611b0a611aa9565b5060051b60200190565b60006020808385031215611b2757600080fd5b823567ffffffffffffffff811115611b3e57600080fd5b8301601f81018513611b4f57600080fd5b8035611b62611b5d82611af0565b611abf565b81815260059190911b82018301908381019087831115611b8157600080fd5b928401925b82841015611ba657611b9784611a6b565b82529284019290840190611b86565b979650505050505050565b600060208284031215611bc357600080fd5b5035919050565b80358015158114611a8257600080fd5b600082601f830112611beb57600080fd5b81356020611bfb611b5d83611af0565b82815260059290921b84018101918181019086841115611c1a57600080fd5b8286015b84811015611c3c57611c2f81611bca565b8352918301918301611c1e565b509695505050505050565b60008060008060808587031215611c5d57600080fd5b843567ffffffffffffffff80821115611c7557600080fd5b611c8188838901611bda565b9550611c8f60208801611bca565b9450611c9d60408801611bca565b93506060870135915080821115611cb357600080fd5b50611cc087828801611bda565b91505092959194509250565b60006020808385031215611cdf57600080fd5b823567ffffffffffffffff80821115611cf757600080fd5b818501915085601f830112611d0b57600080fd5b813581811115611d1d57611d1d611aa9565b611d2f601f8201601f19168501611abf565b91508082528684828501011115611d4557600080fd5b8084840185840137600090820190930192909252509392505050565b60005b83811015611d7c578181015183820152602001611d64565b50506000910152565b6020815260008251806020840152611da4816040850160208701611d61565b601f01601f19169190910160400192915050565b600081518084526020808501945080840160005b83811015611dea578151151587529582019590820190600101611dcc565b509495945050505050565b60006020808301818452808551808352604092508286019150828160051b87010184880160005b83811015611e8757603f19898403018552815160808151818652611e4282870182611db8565b915050888201511515898601528782015115158886015260608083015192508582038187015250611e738183611db8565b968901969450505090860190600101611e1c565b509098975050505050505050565b6020808252825182820181905260009190848201906040850190845b81811015611ed65783516001600160a01b031683529284019291840191600101611eb1565b50909695505050505050565b634e487b7160e01b600052601160045260246000fd5b600060018201611f0a57611f0a611ee2565b5060010190565b600181811c90821680611f2557607f821691505b6020821081036115bf57634e487b7160e01b600052602260045260246000fd5b634e487b7160e01b600052603260045260246000fd5b600082611f7857634e487b7160e01b600052601260045260246000fd5b500490565b60008251611f8f818460208701611d61565b9190910192915050565b601f821115611fe357600081815260208120601f850160051c81016020861015611fc05750805b601f850160051c820191505b81811015611fdf57828155600101611fcc565b5050505b505050565b815167ffffffffffffffff81111561200257612002611aa9565b612016816120108454611f11565b84611f99565b602080601f83116001811461204b57600084156120335750858301515b600019600386901b1c1916600185901b178555611fdf565b600085815260208120601f198616915b8281101561207a5788860151825594840194600190910190840161205b565b50858210156120985787850151600019600388901b60f8161c191681555b5050505050600190811b01905550565b818103818111156118fd576118fd611ee2565b634e487b7160e01b600052603160045260246000fd5b6000815480845260208085019450836000528060002060005b83811015611dea5781546001600160a01b0316875295820195600191820191016120ea565b63ffffffff841681526001600160a01b038316602082015260606040820181905260009061213f908301846120d1565b95945050505050565b60006020828403121561215a57600080fd5b5051919050565b602081526000611aa260208301846120d156fea2646970667358221220882e83214e0047267c39f5dd5f8ac9f7a791d15ea107efc2444baa868543c79d64736f6c63430008140033a26469706673582212208dab2e22fe482c9335b69f3a05383b97f9f0979551802353cbfb96515f26473a64736f6c63430008140033",
  "devdoc": {
    "kind": "dev",
    "methods": {
      "owner()": {
        "details": "Returns the address of the current owner."
      },
      "renounceOwnership()": {
        "details": "Leaves the contract without owner. It will not be possible to call `onlyOwner` functions. Can only be called by the current owner. NOTE: Renouncing ownership will leave the contract without an owner, thereby disabling any functionality that is only available to the owner."
      },
      "transferOwnership(address)": {
        "details": "Transfers ownership of the contract to a new account (`newOwner`). Can only be called by the current owner."
      }
    },
    "version": 1
  },
  "userdoc": {
    "kind": "user",
    "methods": {},
    "version": 1
  },
  "storageLayout": {
    "storage": [
      {
        "astId": 359,
        "contract": "contracts/NatureLink.sol:NatureLink",
        "label": "_owner",
        "offset": 0,
        "slot": "0",
        "type": "t_address"
      },
      {
        "astId": 5156,
        "contract": "contracts/NatureLink.sol:NatureLink",
        "label": "treasury",
        "offset": 0,
        "slot": "1",
        "type": "t_address"
      },
      {
        "astId": 5159,
        "contract": "contracts/NatureLink.sol:NatureLink",
        "label": "users",
        "offset": 0,
        "slot": "2",
        "type": "t_array(t_address)dyn_storage"
      },
      {
        "astId": 5191,
        "contract": "contracts/NatureLink.sol:NatureLink",
        "label": "isUser",
        "offset": 0,
        "slot": "3",
        "type": "t_mapping(t_address,t_bool)"
      },
      {
        "astId": 5196,
        "contract": "contracts/NatureLink.sol:NatureLink",
        "label": "portfolios",
        "offset": 0,
        "slot": "4",
        "type": "t_mapping(t_address,t_struct(Portfolio)5166_storage)"
      }
    ],
    "types": {
      "t_address": {
        "encoding": "inplace",
        "label": "address",
        "numberOfBytes": "20"
      },
      "t_array(t_address)dyn_storage": {
        "base": "t_address",
        "encoding": "dynamic_array",
        "label": "address[]",
        "numberOfBytes": "32"
      },
      "t_array(t_struct(Project)5187_storage)dyn_storage": {
        "base": "t_struct(Project)5187_storage",
        "encoding": "dynamic_array",
        "label": "struct NatureLink.Project[]",
        "numberOfBytes": "32"
      },
      "t_array(t_uint256)dyn_storage": {
        "base": "t_uint256",
        "encoding": "dynamic_array",
        "label": "uint256[]",
        "numberOfBytes": "32"
      },
      "t_bool": {
        "encoding": "inplace",
        "label": "bool",
        "numberOfBytes": "1"
      },
      "t_contract(Crowdfunding)4290": {
        "encoding": "inplace",
        "label": "contract Crowdfunding",
        "numberOfBytes": "20"
      },
      "t_contract(Evaluation)4948": {
        "encoding": "inplace",
        "label": "contract Evaluation",
        "numberOfBytes": "20"
      },
      "t_enum(status)6329": {
        "encoding": "inplace",
        "label": "enum status",
        "numberOfBytes": "1"
      },
      "t_mapping(t_address,t_bool)": {
        "encoding": "mapping",
        "key": "t_address",
        "label": "mapping(address => bool)",
        "numberOfBytes": "32",
        "value": "t_bool"
      },
      "t_mapping(t_address,t_struct(Portfolio)5166_storage)": {
        "encoding": "mapping",
        "key": "t_address",
        "label": "mapping(address => struct NatureLink.Portfolio)",
        "numberOfBytes": "32",
        "value": "t_struct(Portfolio)5166_storage"
      },
      "t_string_storage": {
        "encoding": "bytes",
        "label": "string",
        "numberOfBytes": "32"
      },
      "t_struct(Portfolio)5166_storage": {
        "encoding": "inplace",
        "label": "struct NatureLink.Portfolio",
        "members": [
          {
            "astId": 5161,
            "contract": "contracts/NatureLink.sol:NatureLink",
            "label": "projectIdCounter",
            "offset": 0,
            "slot": "0",
            "type": "t_uint256"
          },
          {
            "astId": 5165,
            "contract": "contracts/NatureLink.sol:NatureLink",
            "label": "projects",
            "offset": 0,
            "slot": "1",
            "type": "t_array(t_struct(Project)5187_storage)dyn_storage"
          }
        ],
        "numberOfBytes": "64"
      },
      "t_struct(Project)5187_storage": {
        "encoding": "inplace",
        "label": "struct NatureLink.Project",
        "members": [
          {
            "astId": 5168,
            "contract": "contracts/NatureLink.sol:NatureLink",
            "label": "id",
            "offset": 0,
            "slot": "0",
            "type": "t_uint256"
          },
          {
            "astId": 5170,
            "contract": "contracts/NatureLink.sol:NatureLink",
            "label": "amount",
            "offset": 0,
            "slot": "1",
            "type": "t_uint256"
          },
          {
            "astId": 5173,
            "contract": "contracts/NatureLink.sol:NatureLink",
            "label": "projectTime",
            "offset": 0,
            "slot": "2",
            "type": "t_array(t_uint256)dyn_storage"
          },
          {
            "astId": 5175,
            "contract": "contracts/NatureLink.sol:NatureLink",
            "label": "info",
            "offset": 0,
            "slot": "3",
            "type": "t_string_storage"
          },
          {
            "astId": 5178,
            "contract": "contracts/NatureLink.sol:NatureLink",
            "label": "status",
            "offset": 0,
            "slot": "4",
            "type": "t_enum(status)6329"
          },
          {
            "astId": 5181,
            "contract": "contracts/NatureLink.sol:NatureLink",
            "label": "crowdfunding",
            "offset": 1,
            "slot": "4",
            "type": "t_contract(Crowdfunding)4290"
          },
          {
            "astId": 5184,
            "contract": "contracts/NatureLink.sol:NatureLink",
            "label": "evaluation",
            "offset": 0,
            "slot": "5",
            "type": "t_contract(Evaluation)4948"
          },
          {
            "astId": 5186,
            "contract": "contracts/NatureLink.sol:NatureLink",
            "label": "creator",
            "offset": 0,
            "slot": "6",
            "type": "t_address"
          }
        ],
        "numberOfBytes": "224"
      },
      "t_uint256": {
        "encoding": "inplace",
        "label": "uint256",
        "numberOfBytes": "32"
      }
    }
  }
}