{
  "address": "0x713f2Ed660a0711A32a333606Fe60Ca4f1bc3030",
  "abi": [
    {
      "inputs": [],
      "stateMutability": "nonpayable",
      "type": "constructor"
    },
    {
      "anonymous": false,
      "inputs": [
        {
          "indexed": true,
          "internalType": "address",
          "name": "previousOwner",
          "type": "address"
        },
        {
          "indexed": true,
          "internalType": "address",
          "name": "newOwner",
          "type": "address"
        }
      ],
      "name": "OwnershipTransferred",
      "type": "event"
    },
    {
      "inputs": [],
      "name": "getBalance",
      "outputs": [
        {
          "internalType": "uint256",
          "name": "",
          "type": "uint256"
        }
      ],
      "stateMutability": "view",
      "type": "function"
    },
    {
      "inputs": [],
      "name": "owner",
      "outputs": [
        {
          "internalType": "address",
          "name": "",
          "type": "address"
        }
      ],
      "stateMutability": "view",
      "type": "function"
    },
    {
      "inputs": [],
      "name": "renounceOwnership",
      "outputs": [],
      "stateMutability": "nonpayable",
      "type": "function"
    },
    {
      "inputs": [
        {
          "internalType": "address",
          "name": "newOwner",
          "type": "address"
        }
      ],
      "name": "transferOwnership",
      "outputs": [],
      "stateMutability": "nonpayable",
      "type": "function"
    },
    {
      "inputs": [],
      "name": "withdraw",
      "outputs": [],
      "stateMutability": "nonpayable",
      "type": "function"
    },
    {
      "stateMutability": "payable",
      "type": "receive"
    }
  ],
  "transactionHash": "0xbd0744d7e7831bb909a199d0262bdb451fa08f23accea70f97b32a4176e75049",
  "args": [],
  "numDeployments": 1,
  "solcInputHash": "59c451c9e9863bbc52952911526fb962",
  "bytecode": "0x608060405234801561001057600080fd5b5061001a3361001f565b61006f565b600080546001600160a01b038381166001600160a01b0319831681178455604051919092169283917f8be0079c531659141344cd1fd0a4f28419497f9722a3daafe3b4186f6b6457e09190a35050565b6103808061007e6000396000f3fe60806040526004361061004e5760003560e01c806312065fe01461005a5780633ccfd60b1461007a578063715018a6146100915780638da5cb5b146100a6578063f2fde38b146100ce57600080fd5b3661005557005b600080fd5b34801561006657600080fd5b506040514781526020015b60405180910390f35b34801561008657600080fd5b5061008f6100ee565b005b34801561009d57600080fd5b5061008f6101e6565b3480156100b257600080fd5b506000546040516001600160a01b039091168152602001610071565b3480156100da57600080fd5b5061008f6100e936600461031a565b6101fa565b6100f6610270565b6000471161014b5760405162461bcd60e51b815260206004820152601e60248201527f77697468647261773a206e6f2066756e647320746f207769746864726177000060448201526064015b60405180910390fd5b604051600090339047908381818185875af1925050503d806000811461018d576040519150601f19603f3d011682016040523d82523d6000602084013e610192565b606091505b50509050806101e35760405162461bcd60e51b815260206004820152601e60248201527f77697468647261773a206661696c656420746f2073656e6420457468657200006044820152606401610142565b50565b6101ee610270565b6101f860006102ca565b565b610202610270565b6001600160a01b0381166102675760405162461bcd60e51b815260206004820152602660248201527f4f776e61626c653a206e6577206f776e657220697320746865207a65726f206160448201526564647265737360d01b6064820152608401610142565b6101e3816102ca565b6000546001600160a01b031633146101f85760405162461bcd60e51b815260206004820181905260248201527f4f776e61626c653a2063616c6c6572206973206e6f7420746865206f776e65726044820152606401610142565b600080546001600160a01b038381166001600160a01b0319831681178455604051919092169283917f8be0079c531659141344cd1fd0a4f28419497f9722a3daafe3b4186f6b6457e09190a35050565b60006020828403121561032c57600080fd5b81356001600160a01b038116811461034357600080fd5b939250505056fea264697066735822122086897e25ea21fc2d79cd70540183a312d5365382dd665a2a223a640d11fcfedb64736f6c63430008140033",
  "devdoc": {
    "kind": "dev",
    "methods": {
      "owner()": {
        "details": "Returns the address of the current owner."
      },
      "renounceOwnership()": {
        "details": "Leaves the contract without owner. It will not be possible to call `onlyOwner` functions. Can only be called by the current owner. NOTE: Renouncing ownership will leave the contract without an owner, thereby disabling any functionality that is only available to the owner."
      },
      "transferOwnership(address)": {
        "details": "Transfers ownership of the contract to a new account (`newOwner`). Can only be called by the current owner."
      }
    },
    "version": 1
  },
  "userdoc": {
    "kind": "user",
    "methods": {},
    "version": 1
  },
  "storageLayout": {
    "storage": [
      {
        "astId": 359,
        "contract": "contracts/Treasury.sol:Treasury",
        "label": "_owner",
        "offset": 0,
        "slot": "0",
        "type": "t_address"
      }
    ],
    "types": {
      "t_address": {
        "encoding": "inplace",
        "label": "address",
        "numberOfBytes": "20"
      }
    }
  }
}