{
  "address": "0x6870374Fd05dCd4AF476A41505f8c18FffD18033",
  "abi": [
    {
      "inputs": [
        {
          "internalType": "uint64",
          "name": "_subscriptionId",
          "type": "uint64"
        }
      ],
      "stateMutability": "nonpayable",
      "type": "constructor"
    },
    {
      "inputs": [
        {
          "internalType": "address",
          "name": "have",
          "type": "address"
        },
        {
          "internalType": "address",
          "name": "want",
          "type": "address"
        }
      ],
      "name": "OnlyCoordinatorCanFulfill",
      "type": "error"
    },
    {
      "anonymous": false,
      "inputs": [
        {
          "indexed": true,
          "internalType": "address",
          "name": "from",
          "type": "address"
        },
        {
          "indexed": true,
          "internalType": "address",
          "name": "to",
          "type": "address"
        }
      ],
      "name": "OwnershipTransferRequested",
      "type": "event"
    },
    {
      "anonymous": false,
      "inputs": [
        {
          "indexed": true,
          "internalType": "address",
          "name": "from",
          "type": "address"
        },
        {
          "indexed": true,
          "internalType": "address",
          "name": "to",
          "type": "address"
        }
      ],
      "name": "OwnershipTransferred",
      "type": "event"
    },
    {
      "anonymous": false,
      "inputs": [
        {
          "indexed": false,
          "internalType": "uint256",
          "name": "requestId",
          "type": "uint256"
        },
        {
          "indexed": false,
          "internalType": "uint256[]",
          "name": "randomWords",
          "type": "uint256[]"
        }
      ],
      "name": "RequestFulfilled",
      "type": "event"
    },
    {
      "anonymous": false,
      "inputs": [
        {
          "indexed": false,
          "internalType": "uint256",
          "name": "requestId",
          "type": "uint256"
        },
        {
          "indexed": false,
          "internalType": "uint32",
          "name": "numWords",
          "type": "uint32"
        }
      ],
      "name": "RequestSent",
      "type": "event"
    },
    {
      "inputs": [],
      "name": "acceptOwnership",
      "outputs": [],
      "stateMutability": "nonpayable",
      "type": "function"
    },
    {
      "inputs": [],
      "name": "evaluation",
      "outputs": [
        {
          "internalType": "contract IEvaluation",
          "name": "",
          "type": "address"
        }
      ],
      "stateMutability": "view",
      "type": "function"
    },
    {
      "inputs": [
        {
          "internalType": "uint256",
          "name": "_requestId",
          "type": "uint256"
        }
      ],
      "name": "getRequestStatus",
      "outputs": [
        {
          "internalType": "bool",
          "name": "fulfilled",
          "type": "bool"
        },
        {
          "internalType": "uint256[]",
          "name": "randomWords",
          "type": "uint256[]"
        }
      ],
      "stateMutability": "view",
      "type": "function"
    },
    {
      "inputs": [],
      "name": "lastRequestId",
      "outputs": [
        {
          "internalType": "uint256",
          "name": "",
          "type": "uint256"
        }
      ],
      "stateMutability": "view",
      "type": "function"
    },
    {
      "inputs": [],
      "name": "natureLinkAddress",
      "outputs": [
        {
          "internalType": "address",
          "name": "",
          "type": "address"
        }
      ],
      "stateMutability": "view",
      "type": "function"
    },
    {
      "inputs": [],
      "name": "owner",
      "outputs": [
        {
          "internalType": "address",
          "name": "",
          "type": "address"
        }
      ],
      "stateMutability": "view",
      "type": "function"
    },
    {
      "inputs": [
        {
          "internalType": "address",
          "name": "",
          "type": "address"
        }
      ],
      "name": "permitted",
      "outputs": [
        {
          "internalType": "bool",
          "name": "",
          "type": "bool"
        }
      ],
      "stateMutability": "view",
      "type": "function"
    },
    {
      "inputs": [
        {
          "internalType": "uint256",
          "name": "requestId",
          "type": "uint256"
        },
        {
          "internalType": "uint256[]",
          "name": "randomWords",
          "type": "uint256[]"
        }
      ],
      "name": "rawFulfillRandomWords",
      "outputs": [],
      "stateMutability": "nonpayable",
      "type": "function"
    },
    {
      "inputs": [
        {
          "internalType": "uint256",
          "name": "",
          "type": "uint256"
        }
      ],
      "name": "requestIds",
      "outputs": [
        {
          "internalType": "uint256",
          "name": "",
          "type": "uint256"
        }
      ],
      "stateMutability": "view",
      "type": "function"
    },
    {
      "inputs": [
        {
          "internalType": "uint32",
          "name": "_numWords",
          "type": "uint32"
        },
        {
          "internalType": "address",
          "name": "_evaluatorContract",
          "type": "address"
        },
        {
          "internalType": "address[]",
          "name": "_evaluators",
          "type": "address[]"
        }
      ],
      "name": "requestRandomWords",
      "outputs": [
        {
          "internalType": "uint256",
          "name": "requestId",
          "type": "uint256"
        }
      ],
      "stateMutability": "nonpayable",
      "type": "function"
    },
    {
      "inputs": [],
      "name": "s_evaluatorContract",
      "outputs": [
        {
          "internalType": "address",
          "name": "",
          "type": "address"
        }
      ],
      "stateMutability": "view",
      "type": "function"
    },
    {
      "inputs": [
        {
          "internalType": "uint256",
          "name": "",
          "type": "uint256"
        }
      ],
      "name": "s_evaluators",
      "outputs": [
        {
          "internalType": "address",
          "name": "",
          "type": "address"
        }
      ],
      "stateMutability": "view",
      "type": "function"
    },
    {
      "inputs": [
        {
          "internalType": "uint256",
          "name": "",
          "type": "uint256"
        }
      ],
      "name": "s_evaluatorsSelected",
      "outputs": [
        {
          "internalType": "address",
          "name": "",
          "type": "address"
        }
      ],
      "stateMutability": "view",
      "type": "function"
    },
    {
      "inputs": [
        {
          "internalType": "uint256",
          "name": "",
          "type": "uint256"
        }
      ],
      "name": "s_requests",
      "outputs": [
        {
          "internalType": "bool",
          "name": "fulfilled",
          "type": "bool"
        },
        {
          "internalType": "bool",
          "name": "exists",
          "type": "bool"
        }
      ],
      "stateMutability": "view",
      "type": "function"
    },
    {
      "inputs": [
        {
          "internalType": "address",
          "name": "_natureLinkAddress",
          "type": "address"
        }
      ],
      "name": "setNaturelinkAddress",
      "outputs": [
        {
          "internalType": "address",
          "name": "",
          "type": "address"
        }
      ],
      "stateMutability": "nonpayable",
      "type": "function"
    },
    {
      "inputs": [
        {
          "internalType": "address",
          "name": "_evaluator",
          "type": "address"
        },
        {
          "internalType": "bool",
          "name": "_permitted",
          "type": "bool"
        }
      ],
      "name": "setPermittedEvaluator",
      "outputs": [],
      "stateMutability": "nonpayable",
      "type": "function"
    },
    {
      "inputs": [
        {
          "internalType": "address",
          "name": "to",
          "type": "address"
        }
      ],
      "name": "transferOwnership",
      "outputs": [],
      "stateMutability": "nonpayable",
      "type": "function"
    }
  ],
  "transactionHash": "0x72d292e91735ba70f4d0140ed22fe425fabcd966018839c4acded60dbdeb80f6",
  "args": [
    6527
  ],
  "numDeployments": 1,
  "solcInputHash": "f808b6bfc71daa408eae8fb8166f3aa9",
  "bytecode": "0x600360a08181526101206040529060c0606080368337505081516200002c9260099250602001906200023d565b50600a805465ffffffffffff1916640186a000031790557f474e34a077df58807dbe9c96d3c009b23b3c6d0cce433e59bbf5b34f823bc56c600b553480156200007457600080fd5b50604051620014cc380380620014cc8339810160408190526200009791620002be565b737a1bac17ccc5b313516c5e16fb24f7659aa5ebed6080523380600081620001065760405162461bcd60e51b815260206004820152601860248201527f43616e6e6f7420736574206f776e657220746f207a65726f000000000000000060448201526064015b60405180910390fd5b600080546001600160a01b0319166001600160a01b03848116919091179091558116156200013957620001398162000192565b5050600480546001600160a01b031916738103b0a8a00be2ddc778e6e7eaa21791cd36462517905550600180546001600160401b03909216600160a01b02600160a01b600160e01b0319909216919091179055620002f0565b336001600160a01b03821603620001ec5760405162461bcd60e51b815260206004820152601760248201527f43616e6e6f74207472616e7366657220746f2073656c660000000000000000006044820152606401620000fd565b600180546001600160a01b0319166001600160a01b0383811691821790925560008054604051929316917fed8889f560326eb138920d842192f0eb3dd22b4f139c87a2c57538e05bae12789190a350565b82805482825590600052602060002090810192821562000295579160200282015b828111156200029557825182546001600160a01b0319166001600160a01b039091161782556020909201916001909101906200025e565b50620002a3929150620002a7565b5090565b5b80821115620002a35760008155600101620002a8565b600060208284031215620002d157600080fd5b81516001600160401b0381168114620002e957600080fd5b9392505050565b6080516111b962000313600039600081816102fc015261033e01526111b96000f3fe608060405234801561001057600080fd5b506004361061010b5760003560e01c80638796ba8c116100a2578063c66880a511610071578063c66880a514610264578063c947dc0014610277578063d8a4676f1461028a578063f2fde38b146102ab578063fc2a88c3146102be57600080fd5b80638796ba8c146101ea5780638c6d9b71146101fd5780638da5cb5b14610210578063a168fa891461022157600080fd5b80635f742a7e116100de5780635f742a7e146101895780636cc301e31461019c57806379ba5097146101cf578063877e7c15146101d757600080fd5b80631ecddcfb146101105780631fe543e3146101405780632af5c91914610155578063537dd4f814610168575b600080fd5b61012361011e366004610dc2565b6102c7565b6040516001600160a01b0390911681526020015b60405180910390f35b61015361014e366004610e46565b6102f1565b005b600554610123906001600160a01b031681565b61017b610176366004610eff565b61037e565b604051908152602001610137565b610153610197366004610fc5565b61065d565b6101bf6101aa366004611001565b600d6020526000908152604090205460ff1681565b6040519015158152602001610137565b6101536106f0565b6101236101e5366004610dc2565b61079a565b61017b6101f8366004610dc2565b6107aa565b600754610123906001600160a01b031681565b6000546001600160a01b0316610123565b61024d61022f366004610dc2565b600c6020526000908152604090205460ff8082169161010090041682565b604080519215158352901515602083015201610137565b600654610123906001600160a01b031681565b610123610285366004611001565b6107cb565b61029d610298366004610dc2565b6107fa565b60405161013792919061105e565b6101536102b9366004611001565b6108ee565b61017b60025481565b600981815481106102d757600080fd5b6000918252602090912001546001600160a01b0316905081565b336001600160a01b037f000000000000000000000000000000000000000000000000000000000000000016146103705760405163073e64fd60e21b81523360048201526001600160a01b037f00000000000000000000000000000000000000000000000000000000000000001660248201526044015b60405180910390fd5b61037a8282610902565b5050565b6000610388610c0f565b336000908152600d602052604090205460ff166103f15760405162461bcd60e51b815260206004820152602160248201527f7265717565737452616e646f6d576f7264733a204e6f74207065726d697474656044820152601960fa1b6064820152608401610367565b6003825110156104545760405162461bcd60e51b815260206004820152602860248201527f7265717565737452616e646f6d576f7264733a204e6f7420656e6f7567682061604482015267646472657373657360c01b6064820152608401610367565b600580546001600160a01b0319166001600160a01b038581169190911790915560048054600b54600154600a546040516305d3b1d360e41b815294850192909252600160a01b900467ffffffffffffffff16602484015261ffff8116604484015262010000900463ffffffff90811660648401528716608483015290911690635d3b1d309060a4016020604051808303816000875af11580156104fb573d6000803e3d6000fd5b505050506040513d601f19601f8201168201806040525081019061051f9190611081565b8251909150610535906008906020850190610d0d565b5060408051600380825260808201909252906020820160608036833750508151610566926009925060200190610d0d565b506040805160608101825260008082526001602080840182815285518481528083018752858701908152878552600c83529590932084518154945161ffff1990951690151561ff001916176101009415159490940293909317835593518051939492936105db93928501929190910190610d72565b5050600380546001810182556000919091527fc2575a0e9e593c00f959f8c92f12db2869c3395a3b0502d05e2516446f71f85b018290555060028190556040805182815263ffffffff861660208201527fcc58b13ad3eab50626c6a6300b1d139cd6ebb1688a7cced9461c2f7e762665ee910160405180910390a19392505050565b6006546001600160a01b031633146106c55760405162461bcd60e51b815260206004820152602560248201527f7365745065726d69747465644576616c7561746f723a204e6f7420617574686f6044820152641c9a5e995960da1b6064820152608401610367565b6001600160a01b03919091166000908152600d60205260409020805460ff1916911515919091179055565b6001546001600160a01b031633146107435760405162461bcd60e51b815260206004820152601660248201527526bab9ba10313290383937b837b9b2b21037bbb732b960511b6044820152606401610367565b60008054336001600160a01b0319808316821784556001805490911690556040516001600160a01b0390921692909183917f8be0079c531659141344cd1fd0a4f28419497f9722a3daafe3b4186f6b6457e091a350565b600881815481106102d757600080fd5b600381815481106107ba57600080fd5b600091825260209091200154905081565b60006107d5610c0f565b50600680546001600160a01b0319166001600160a01b0383169081179091555b919050565b6000818152600c6020526040812054606090610100900460ff166108545760405162461bcd60e51b81526020600482015260116024820152701c995c5d595cdd081b9bdd08199bdd5b99607a1b6044820152606401610367565b6000838152600c602090815260408083208151606081018352815460ff80821615158352610100909104161515818501526001820180548451818702810187018652818152929593948601938301828280156108cf57602002820191906000526020600020905b8154815260200190600101908083116108bb575b5050505050815250509050806000015181604001519250925050915091565b6108f6610c0f565b6108ff81610c64565b50565b6000828152600c6020526040902054610100900460ff166109595760405162461bcd60e51b81526020600482015260116024820152701c995c5d595cdd081b9bdd08199bdd5b99607a1b6044820152606401610367565b6003815110156109ab5760405162461bcd60e51b815260206004820152601760248201527f4e6f7420656e6f7567682072616e646f6d20776f7264730000000000000000006044820152606401610367565b6000828152600c60205260408120805460ff1916600117905560085467ffffffffffffffff8111156109df576109df610ddb565b604051908082528060200260200182016040528015610a08578160200160208202803683370190505b50905060005b825181108015610a1e5750600381105b15610b3d576000600880549050600a858481518110610a3f57610a3f61109a565b6020026020010151610a5191906110b0565b610a5b91906110b0565b90505b828181518110610a7057610a7061109a565b602002602001015115610a9c57600854610a8b8260016110e8565b610a9591906110b0565b9050610a5e565b6001838281518110610ab057610ab061109a565b60200260200101901515908115158152505060088181548110610ad557610ad561109a565b600091825260209091200154600980546001600160a01b039092169184908110610b0157610b0161109a565b600091825260209091200180546001600160a01b0319166001600160a01b03929092169190911790555080610b3581611101565b915050610a0e565b50600554604051630853abf560e21b81526001600160a01b039091169063214eafd490610b6f9060099060040161111a565b600060405180830381600087803b158015610b8957600080fd5b505af1158015610b9d573d6000803e3d6000fd5b5050506000848152600c60209081526040909120805460ff1916600190811782558551610bd09450910191850190610d72565b507ffe2e2d779dba245964d4e3ef9b994be63856fd568bf7d3ca9e224755cb1bd54d8383604051610c0292919061116a565b60405180910390a1505050565b6000546001600160a01b03163314610c625760405162461bcd60e51b815260206004820152601660248201527527b7363c9031b0b63630b1363290313c9037bbb732b960511b6044820152606401610367565b565b336001600160a01b03821603610cbc5760405162461bcd60e51b815260206004820152601760248201527f43616e6e6f74207472616e7366657220746f2073656c660000000000000000006044820152606401610367565b600180546001600160a01b0319166001600160a01b0383811691821790925560008054604051929316917fed8889f560326eb138920d842192f0eb3dd22b4f139c87a2c57538e05bae12789190a350565b828054828255906000526020600020908101928215610d62579160200282015b82811115610d6257825182546001600160a01b0319166001600160a01b03909116178255602090920191600190910190610d2d565b50610d6e929150610dad565b5090565b828054828255906000526020600020908101928215610d62579160200282015b82811115610d62578251825591602001919060010190610d92565b5b80821115610d6e5760008155600101610dae565b600060208284031215610dd457600080fd5b5035919050565b634e487b7160e01b600052604160045260246000fd5b604051601f8201601f1916810167ffffffffffffffff81118282101715610e1a57610e1a610ddb565b604052919050565b600067ffffffffffffffff821115610e3c57610e3c610ddb565b5060051b60200190565b60008060408385031215610e5957600080fd5b8235915060208084013567ffffffffffffffff811115610e7857600080fd5b8401601f81018613610e8957600080fd5b8035610e9c610e9782610e22565b610df1565b81815260059190911b82018301908381019088831115610ebb57600080fd5b928401925b82841015610ed957833582529284019290840190610ec0565b80955050505050509250929050565b80356001600160a01b03811681146107f557600080fd5b600080600060608486031215610f1457600080fd5b833563ffffffff81168114610f2857600080fd5b92506020610f37858201610ee8565b9250604085013567ffffffffffffffff811115610f5357600080fd5b8501601f81018713610f6457600080fd5b8035610f72610e9782610e22565b81815260059190911b82018301908381019089831115610f9157600080fd5b928401925b82841015610fb657610fa784610ee8565b82529284019290840190610f96565b80955050505050509250925092565b60008060408385031215610fd857600080fd5b610fe183610ee8565b915060208301358015158114610ff657600080fd5b809150509250929050565b60006020828403121561101357600080fd5b61101c82610ee8565b9392505050565b600081518084526020808501945080840160005b8381101561105357815187529582019590820190600101611037565b509495945050505050565b82151581526040602082015260006110796040830184611023565b949350505050565b60006020828403121561109357600080fd5b5051919050565b634e487b7160e01b600052603260045260246000fd5b6000826110cd57634e487b7160e01b600052601260045260246000fd5b500690565b634e487b7160e01b600052601160045260246000fd5b808201808211156110fb576110fb6110d2565b92915050565b600060018201611113576111136110d2565b5060010190565b6020808252825482820181905260008481528281209092916040850190845b8181101561115e5783546001600160a01b031683526001938401939285019201611139565b50909695505050505050565b828152604060208201526000611079604083018461102356fea26469706673582212200824e42676074613ff14bf271be715abc47196b384c8ec61c532ffef6826a02764736f6c63430008140033",
  "devdoc": {
    "kind": "dev",
    "methods": {},
    "version": 1
  },
  "userdoc": {
    "kind": "user",
    "methods": {
      "acceptOwnership()": {
        "notice": "Allows an ownership transfer to be completed by the recipient."
      },
      "constructor": {
        "notice": "HARDCODED FOR MUMBAI COORDINATOR: 0x7a1BaC17Ccc5b313516C5E16fb24f7659aA5ebed"
      },
      "owner()": {
        "notice": "Get the current owner"
      },
      "transferOwnership(address)": {
        "notice": "Allows an owner to begin transferring ownership to a new address, pending."
      }
    },
    "version": 1
  },
  "storageLayout": {
    "storage": [
      {
        "astId": 123,
        "contract": "contracts/VRFv2Consumer.sol:VRFv2Consumer",
        "label": "s_owner",
        "offset": 0,
        "slot": "0",
        "type": "t_address"
      },
      {
        "astId": 125,
        "contract": "contracts/VRFv2Consumer.sol:VRFv2Consumer",
        "label": "s_pendingOwner",
        "offset": 0,
        "slot": "1",
        "type": "t_address"
      },
      {
        "astId": 5928,
        "contract": "contracts/VRFv2Consumer.sol:VRFv2Consumer",
        "label": "s_subscriptionId",
        "offset": 20,
        "slot": "1",
        "type": "t_uint64"
      },
      {
        "astId": 5930,
        "contract": "contracts/VRFv2Consumer.sol:VRFv2Consumer",
        "label": "lastRequestId",
        "offset": 0,
        "slot": "2",
        "type": "t_uint256"
      },
      {
        "astId": 5933,
        "contract": "contracts/VRFv2Consumer.sol:VRFv2Consumer",
        "label": "requestIds",
        "offset": 0,
        "slot": "3",
        "type": "t_array(t_uint256)dyn_storage"
      },
      {
        "astId": 5936,
        "contract": "contracts/VRFv2Consumer.sol:VRFv2Consumer",
        "label": "COORDINATOR",
        "offset": 0,
        "slot": "4",
        "type": "t_contract(VRFCoordinatorV2Interface)95"
      },
      {
        "astId": 5939,
        "contract": "contracts/VRFv2Consumer.sol:VRFv2Consumer",
        "label": "evaluation",
        "offset": 0,
        "slot": "5",
        "type": "t_contract(IEvaluation)6338"
      },
      {
        "astId": 5941,
        "contract": "contracts/VRFv2Consumer.sol:VRFv2Consumer",
        "label": "natureLinkAddress",
        "offset": 0,
        "slot": "6",
        "type": "t_address"
      },
      {
        "astId": 5943,
        "contract": "contracts/VRFv2Consumer.sol:VRFv2Consumer",
        "label": "s_evaluatorContract",
        "offset": 0,
        "slot": "7",
        "type": "t_address"
      },
      {
        "astId": 5946,
        "contract": "contracts/VRFv2Consumer.sol:VRFv2Consumer",
        "label": "s_evaluators",
        "offset": 0,
        "slot": "8",
        "type": "t_array(t_address)dyn_storage"
      },
      {
        "astId": 5954,
        "contract": "contracts/VRFv2Consumer.sol:VRFv2Consumer",
        "label": "s_evaluatorsSelected",
        "offset": 0,
        "slot": "9",
        "type": "t_array(t_address)dyn_storage"
      },
      {
        "astId": 5957,
        "contract": "contracts/VRFv2Consumer.sol:VRFv2Consumer",
        "label": "requestConfirmations",
        "offset": 0,
        "slot": "10",
        "type": "t_uint16"
      },
      {
        "astId": 5960,
        "contract": "contracts/VRFv2Consumer.sol:VRFv2Consumer",
        "label": "callbackGasLimit",
        "offset": 2,
        "slot": "10",
        "type": "t_uint32"
      },
      {
        "astId": 5963,
        "contract": "contracts/VRFv2Consumer.sol:VRFv2Consumer",
        "label": "keyHash",
        "offset": 0,
        "slot": "11",
        "type": "t_bytes32"
      },
      {
        "astId": 5976,
        "contract": "contracts/VRFv2Consumer.sol:VRFv2Consumer",
        "label": "s_requests",
        "offset": 0,
        "slot": "12",
        "type": "t_mapping(t_uint256,t_struct(RequestStatus)5971_storage)"
      },
      {
        "astId": 5980,
        "contract": "contracts/VRFv2Consumer.sol:VRFv2Consumer",
        "label": "permitted",
        "offset": 0,
        "slot": "13",
        "type": "t_mapping(t_address,t_bool)"
      }
    ],
    "types": {
      "t_address": {
        "encoding": "inplace",
        "label": "address",
        "numberOfBytes": "20"
      },
      "t_array(t_address)dyn_storage": {
        "base": "t_address",
        "encoding": "dynamic_array",
        "label": "address[]",
        "numberOfBytes": "32"
      },
      "t_array(t_uint256)dyn_storage": {
        "base": "t_uint256",
        "encoding": "dynamic_array",
        "label": "uint256[]",
        "numberOfBytes": "32"
      },
      "t_bool": {
        "encoding": "inplace",
        "label": "bool",
        "numberOfBytes": "1"
      },
      "t_bytes32": {
        "encoding": "inplace",
        "label": "bytes32",
        "numberOfBytes": "32"
      },
      "t_contract(IEvaluation)6338": {
        "encoding": "inplace",
        "label": "contract IEvaluation",
        "numberOfBytes": "20"
      },
      "t_contract(VRFCoordinatorV2Interface)95": {
        "encoding": "inplace",
        "label": "contract VRFCoordinatorV2Interface",
        "numberOfBytes": "20"
      },
      "t_mapping(t_address,t_bool)": {
        "encoding": "mapping",
        "key": "t_address",
        "label": "mapping(address => bool)",
        "numberOfBytes": "32",
        "value": "t_bool"
      },
      "t_mapping(t_uint256,t_struct(RequestStatus)5971_storage)": {
        "encoding": "mapping",
        "key": "t_uint256",
        "label": "mapping(uint256 => struct VRFv2Consumer.RequestStatus)",
        "numberOfBytes": "32",
        "value": "t_struct(RequestStatus)5971_storage"
      },
      "t_struct(RequestStatus)5971_storage": {
        "encoding": "inplace",
        "label": "struct VRFv2Consumer.RequestStatus",
        "members": [
          {
            "astId": 5965,
            "contract": "contracts/VRFv2Consumer.sol:VRFv2Consumer",
            "label": "fulfilled",
            "offset": 0,
            "slot": "0",
            "type": "t_bool"
          },
          {
            "astId": 5967,
            "contract": "contracts/VRFv2Consumer.sol:VRFv2Consumer",
            "label": "exists",
            "offset": 1,
            "slot": "0",
            "type": "t_bool"
          },
          {
            "astId": 5970,
            "contract": "contracts/VRFv2Consumer.sol:VRFv2Consumer",
            "label": "randomWords",
            "offset": 0,
            "slot": "1",
            "type": "t_array(t_uint256)dyn_storage"
          }
        ],
        "numberOfBytes": "64"
      },
      "t_uint16": {
        "encoding": "inplace",
        "label": "uint16",
        "numberOfBytes": "2"
      },
      "t_uint256": {
        "encoding": "inplace",
        "label": "uint256",
        "numberOfBytes": "32"
      },
      "t_uint32": {
        "encoding": "inplace",
        "label": "uint32",
        "numberOfBytes": "4"
      },
      "t_uint64": {
        "encoding": "inplace",
        "label": "uint64",
        "numberOfBytes": "8"
      }
    }
  }
}